{
	"data": {
		"bytecode": {
			"linkReferences": {},
			"object": "608060405234801561001057600080fd5b5061001a3361001f565b610093565b60006100376000805160206105208339815191525490565b905061004f8260008051602061052083398151915255565b816001600160a01b0316816001600160a01b03167f5a3e66efaa1e445ebd894728a69d6959842ea1e97bd79b892797106e270efcd960405160405180910390a35050565b61047e806100a26000396000f3fe60806040526004361061004e5760003560e01c8063025313a21461006557806310b2b981146100965780633d643cbe146100ab578063afe13fbc146100cb578063f1739cae146100e05761005d565b3661005d5761005b610100565b005b61005b610100565b34801561007157600080fd5b5061007a610132565b6040516001600160a01b03909116815260200160405180910390f35b3480156100a257600080fd5b5061007a610161565b3480156100b757600080fd5b5061005b6100c63660046103d3565b61018b565b3480156100d757600080fd5b5061005b61023e565b3480156100ec57600080fd5b5061005b6100fb3660046103d3565b610277565b61013061012b7f9a1f1e098310d583b5217269e373bf0137d9ebbd218ab5d04d9ff18a0c5c62e15490565b610317565b565b600061015c7f3d5fef76c3ed66b0ef56fb540c5aae1f78bb9d0a3b938760982770c408c354cd5490565b905090565b600061015c7f9a1f1e098310d583b5217269e373bf0137d9ebbd218ab5d04d9ff18a0c5c62e15490565b33610194610132565b6001600160a01b0316146101c35760405162461bcd60e51b81526004016101ba90610403565b60405180910390fd5b6001600160a01b0381163b61021a5760405162461bcd60e51b815260206004820152601a60248201527f414444524553532053484f554c4420424520434f4e545241435400000000000060448201526064016101ba565b7f9a1f1e098310d583b5217269e373bf0137d9ebbd218ab5d04d9ff18a0c5c62e155565b33610247610132565b6001600160a01b03161461026d5760405162461bcd60e51b81526004016101ba90610403565b610130600061033b565b33610280610132565b6001600160a01b0316146102a65760405162461bcd60e51b81526004016101ba90610403565b6001600160a01b03811661030b5760405162461bcd60e51b815260206004820152602660248201527f4f776e61626c653a206e6577206f776e657220697320746865207a65726f206160448201526564647265737360d01b60648201526084016101ba565b6103148161033b565b50565b3660008037600080366000845af43d6000803e808015610336573d6000f35b3d6000fd5b60006103657f3d5fef76c3ed66b0ef56fb540c5aae1f78bb9d0a3b938760982770c408c354cd5490565b905061038f827f3d5fef76c3ed66b0ef56fb540c5aae1f78bb9d0a3b938760982770c408c354cd55565b816001600160a01b0316816001600160a01b03167f5a3e66efaa1e445ebd894728a69d6959842ea1e97bd79b892797106e270efcd960405160405180910390a35050565b6000602082840312156103e557600080fd5b81356001600160a01b03811681146103fc57600080fd5b9392505050565b60208082526025908201527f50726f78794f776e61626c653a2063616c6c6572206973206e6f74207468652060408201526437bbb732b960d91b60608201526080019056fea2646970667358221220ad0b3e4faf89fa9a95485ccd89dcbae1e3b3c737b6a5fe0bf4b02df7c63922b164736f6c634300081200333d5fef76c3ed66b0ef56fb540c5aae1f78bb9d0a3b938760982770c408c354cd",
			"opcodes": "PUSH1 0x80 PUSH1 0x40 MSTORE CALLVALUE DUP1 ISZERO PUSH2 0x10 JUMPI PUSH1 0x0 DUP1 REVERT JUMPDEST POP PUSH2 0x1A CALLER PUSH2 0x1F JUMP JUMPDEST PUSH2 0x93 JUMP JUMPDEST PUSH1 0x0 PUSH2 0x37 PUSH1 0x0 DUP1 MLOAD PUSH1 0x20 PUSH2 0x520 DUP4 CODECOPY DUP2 MLOAD SWAP2 MSTORE SLOAD SWAP1 JUMP JUMPDEST SWAP1 POP PUSH2 0x4F DUP3 PUSH1 0x0 DUP1 MLOAD PUSH1 0x20 PUSH2 0x520 DUP4 CODECOPY DUP2 MLOAD SWAP2 MSTORE SSTORE JUMP JUMPDEST DUP2 PUSH1 0x1 PUSH1 0x1 PUSH1 0xA0 SHL SUB AND DUP2 PUSH1 0x1 PUSH1 0x1 PUSH1 0xA0 SHL SUB AND PUSH32 0x5A3E66EFAA1E445EBD894728A69D6959842EA1E97BD79B892797106E270EFCD9 PUSH1 0x40 MLOAD PUSH1 0x40 MLOAD DUP1 SWAP2 SUB SWAP1 LOG3 POP POP JUMP JUMPDEST PUSH2 0x47E DUP1 PUSH2 0xA2 PUSH1 0x0 CODECOPY PUSH1 0x0 RETURN INVALID PUSH1 0x80 PUSH1 0x40 MSTORE PUSH1 0x4 CALLDATASIZE LT PUSH2 0x4E JUMPI PUSH1 0x0 CALLDATALOAD PUSH1 0xE0 SHR DUP1 PUSH4 0x25313A2 EQ PUSH2 0x65 JUMPI DUP1 PUSH4 0x10B2B981 EQ PUSH2 0x96 JUMPI DUP1 PUSH4 0x3D643CBE EQ PUSH2 0xAB JUMPI DUP1 PUSH4 0xAFE13FBC EQ PUSH2 0xCB JUMPI DUP1 PUSH4 0xF1739CAE EQ PUSH2 0xE0 JUMPI PUSH2 0x5D JUMP JUMPDEST CALLDATASIZE PUSH2 0x5D JUMPI PUSH2 0x5B PUSH2 0x100 JUMP JUMPDEST STOP JUMPDEST PUSH2 0x5B PUSH2 0x100 JUMP JUMPDEST CALLVALUE DUP1 ISZERO PUSH2 0x71 JUMPI PUSH1 0x0 DUP1 REVERT JUMPDEST POP PUSH2 0x7A PUSH2 0x132 JUMP JUMPDEST PUSH1 0x40 MLOAD PUSH1 0x1 PUSH1 0x1 PUSH1 0xA0 SHL SUB SWAP1 SWAP2 AND DUP2 MSTORE PUSH1 0x20 ADD PUSH1 0x40 MLOAD DUP1 SWAP2 SUB SWAP1 RETURN JUMPDEST CALLVALUE DUP1 ISZERO PUSH2 0xA2 JUMPI PUSH1 0x0 DUP1 REVERT JUMPDEST POP PUSH2 0x7A PUSH2 0x161 JUMP JUMPDEST CALLVALUE DUP1 ISZERO PUSH2 0xB7 JUMPI PUSH1 0x0 DUP1 REVERT JUMPDEST POP PUSH2 0x5B PUSH2 0xC6 CALLDATASIZE PUSH1 0x4 PUSH2 0x3D3 JUMP JUMPDEST PUSH2 0x18B JUMP JUMPDEST CALLVALUE DUP1 ISZERO PUSH2 0xD7 JUMPI PUSH1 0x0 DUP1 REVERT JUMPDEST POP PUSH2 0x5B PUSH2 0x23E JUMP JUMPDEST CALLVALUE DUP1 ISZERO PUSH2 0xEC JUMPI PUSH1 0x0 DUP1 REVERT JUMPDEST POP PUSH2 0x5B PUSH2 0xFB CALLDATASIZE PUSH1 0x4 PUSH2 0x3D3 JUMP JUMPDEST PUSH2 0x277 JUMP JUMPDEST PUSH2 0x130 PUSH2 0x12B PUSH32 0x9A1F1E098310D583B5217269E373BF0137D9EBBD218AB5D04D9FF18A0C5C62E1 SLOAD SWAP1 JUMP JUMPDEST PUSH2 0x317 JUMP JUMPDEST JUMP JUMPDEST PUSH1 0x0 PUSH2 0x15C PUSH32 0x3D5FEF76C3ED66B0EF56FB540C5AAE1F78BB9D0A3B938760982770C408C354CD SLOAD SWAP1 JUMP JUMPDEST SWAP1 POP SWAP1 JUMP JUMPDEST PUSH1 0x0 PUSH2 0x15C PUSH32 0x9A1F1E098310D583B5217269E373BF0137D9EBBD218AB5D04D9FF18A0C5C62E1 SLOAD SWAP1 JUMP JUMPDEST CALLER PUSH2 0x194 PUSH2 0x132 JUMP JUMPDEST PUSH1 0x1 PUSH1 0x1 PUSH1 0xA0 SHL SUB AND EQ PUSH2 0x1C3 JUMPI PUSH1 0x40 MLOAD PUSH3 0x461BCD PUSH1 0xE5 SHL DUP2 MSTORE PUSH1 0x4 ADD PUSH2 0x1BA SWAP1 PUSH2 0x403 JUMP JUMPDEST PUSH1 0x40 MLOAD DUP1 SWAP2 SUB SWAP1 REVERT JUMPDEST PUSH1 0x1 PUSH1 0x1 PUSH1 0xA0 SHL SUB DUP2 AND EXTCODESIZE PUSH2 0x21A JUMPI PUSH1 0x40 MLOAD PUSH3 0x461BCD PUSH1 0xE5 SHL DUP2 MSTORE PUSH1 0x20 PUSH1 0x4 DUP3 ADD MSTORE PUSH1 0x1A PUSH1 0x24 DUP3 ADD MSTORE PUSH32 0x414444524553532053484F554C4420424520434F4E5452414354000000000000 PUSH1 0x44 DUP3 ADD MSTORE PUSH1 0x64 ADD PUSH2 0x1BA JUMP JUMPDEST PUSH32 0x9A1F1E098310D583B5217269E373BF0137D9EBBD218AB5D04D9FF18A0C5C62E1 SSTORE JUMP JUMPDEST CALLER PUSH2 0x247 PUSH2 0x132 JUMP JUMPDEST PUSH1 0x1 PUSH1 0x1 PUSH1 0xA0 SHL SUB AND EQ PUSH2 0x26D JUMPI PUSH1 0x40 MLOAD PUSH3 0x461BCD PUSH1 0xE5 SHL DUP2 MSTORE PUSH1 0x4 ADD PUSH2 0x1BA SWAP1 PUSH2 0x403 JUMP JUMPDEST PUSH2 0x130 PUSH1 0x0 PUSH2 0x33B JUMP JUMPDEST CALLER PUSH2 0x280 PUSH2 0x132 JUMP JUMPDEST PUSH1 0x1 PUSH1 0x1 PUSH1 0xA0 SHL SUB AND EQ PUSH2 0x2A6 JUMPI PUSH1 0x40 MLOAD PUSH3 0x461BCD PUSH1 0xE5 SHL DUP2 MSTORE PUSH1 0x4 ADD PUSH2 0x1BA SWAP1 PUSH2 0x403 JUMP JUMPDEST PUSH1 0x1 PUSH1 0x1 PUSH1 0xA0 SHL SUB DUP2 AND PUSH2 0x30B JUMPI PUSH1 0x40 MLOAD PUSH3 0x461BCD PUSH1 0xE5 SHL DUP2 MSTORE PUSH1 0x20 PUSH1 0x4 DUP3 ADD MSTORE PUSH1 0x26 PUSH1 0x24 DUP3 ADD MSTORE PUSH32 0x4F776E61626C653A206E6577206F776E657220697320746865207A65726F2061 PUSH1 0x44 DUP3 ADD MSTORE PUSH6 0x646472657373 PUSH1 0xD0 SHL PUSH1 0x64 DUP3 ADD MSTORE PUSH1 0x84 ADD PUSH2 0x1BA JUMP JUMPDEST PUSH2 0x314 DUP2 PUSH2 0x33B JUMP JUMPDEST POP JUMP JUMPDEST CALLDATASIZE PUSH1 0x0 DUP1 CALLDATACOPY PUSH1 0x0 DUP1 CALLDATASIZE PUSH1 0x0 DUP5 GAS DELEGATECALL RETURNDATASIZE PUSH1 0x0 DUP1 RETURNDATACOPY DUP1 DUP1 ISZERO PUSH2 0x336 JUMPI RETURNDATASIZE PUSH1 0x0 RETURN JUMPDEST RETURNDATASIZE PUSH1 0x0 REVERT JUMPDEST PUSH1 0x0 PUSH2 0x365 PUSH32 0x3D5FEF76C3ED66B0EF56FB540C5AAE1F78BB9D0A3B938760982770C408C354CD SLOAD SWAP1 JUMP JUMPDEST SWAP1 POP PUSH2 0x38F DUP3 PUSH32 0x3D5FEF76C3ED66B0EF56FB540C5AAE1F78BB9D0A3B938760982770C408C354CD SSTORE JUMP JUMPDEST DUP2 PUSH1 0x1 PUSH1 0x1 PUSH1 0xA0 SHL SUB AND DUP2 PUSH1 0x1 PUSH1 0x1 PUSH1 0xA0 SHL SUB AND PUSH32 0x5A3E66EFAA1E445EBD894728A69D6959842EA1E97BD79B892797106E270EFCD9 PUSH1 0x40 MLOAD PUSH1 0x40 MLOAD DUP1 SWAP2 SUB SWAP1 LOG3 POP POP JUMP JUMPDEST PUSH1 0x0 PUSH1 0x20 DUP3 DUP5 SUB SLT ISZERO PUSH2 0x3E5 JUMPI PUSH1 0x0 DUP1 REVERT JUMPDEST DUP2 CALLDATALOAD PUSH1 0x1 PUSH1 0x1 PUSH1 0xA0 SHL SUB DUP2 AND DUP2 EQ PUSH2 0x3FC JUMPI PUSH1 0x0 DUP1 REVERT JUMPDEST SWAP4 SWAP3 POP POP POP JUMP JUMPDEST PUSH1 0x20 DUP1 DUP3 MSTORE PUSH1 0x25 SWAP1 DUP3 ADD MSTORE PUSH32 0x50726F78794F776E61626C653A2063616C6C6572206973206E6F742074686520 PUSH1 0x40 DUP3 ADD MSTORE PUSH5 0x37BBB732B9 PUSH1 0xD9 SHL PUSH1 0x60 DUP3 ADD MSTORE PUSH1 0x80 ADD SWAP1 JUMP INVALID LOG2 PUSH5 0x6970667358 0x22 SLT KECCAK256 0xAD SIGNEXTEND RETURNDATACOPY 0x4F 0xAF DUP10 STATICCALL SWAP11 SWAP6 BASEFEE 0x5C 0xCD DUP10 0xDC 0xBA 0xE1 0xE3 0xB3 0xC7 CALLDATACOPY 0xB6 0xA5 INVALID SIGNEXTEND DELEGATECALL 0xB0 0x2D 0xF7 0xC6 CODECOPY 0x22 0xB1 PUSH5 0x736F6C6343 STOP ADDMOD SLT STOP CALLER RETURNDATASIZE 0x5F 0xEF PUSH23 0xC3ED66B0EF56FB540C5AAE1F78BB9D0A3B938760982770 0xC4 ADDMOD 0xC3 SLOAD 0xCD "
		},
		"gasEstimates": {
			"creation": {
				"codeDepositCost": "230000",
				"executionCost": "26190",
				"totalCost": "256190"
			},
			"external": {
				"": "infinite",
				"getImplementAddress()": "2339",
				"proxyOwner()": "2317",
				"renounceProxyOwnership()": "11122",
				"setImplementAddress(address)": "27217",
				"transferProxyOwnership(address)": "28404"
			},
			"internal": {
				"_implementation()": "infinite",
				"_loadProxyOwner()": "infinite",
				"_storeProxyOwner(address)": "infinite"
			}
		},
		"methodIdentifiers": {
			"getImplementAddress()": "10b2b981",
			"proxyOwner()": "025313a2",
			"renounceProxyOwnership()": "afe13fbc",
			"setImplementAddress(address)": "3d643cbe",
			"transferProxyOwnership(address)": "f1739cae"
		}
	},
	"abi": [
		{
			"anonymous": false,
			"inputs": [
				{
					"indexed": true,
					"internalType": "address",
					"name": "previousOwner",
					"type": "address"
				},
				{
					"indexed": true,
					"internalType": "address",
					"name": "newOwner",
					"type": "address"
				}
			],
			"name": "ProxyOwnershipTransferred",
			"type": "event"
		},
		{
			"stateMutability": "payable",
			"type": "fallback"
		},
		{
			"inputs": [],
			"name": "getImplementAddress",
			"outputs": [
				{
					"internalType": "address",
					"name": "",
					"type": "address"
				}
			],
			"stateMutability": "view",
			"type": "function"
		},
		{
			"inputs": [],
			"name": "proxyOwner",
			"outputs": [
				{
					"internalType": "address",
					"name": "",
					"type": "address"
				}
			],
			"stateMutability": "view",
			"type": "function"
		},
		{
			"inputs": [],
			"name": "renounceProxyOwnership",
			"outputs": [],
			"stateMutability": "nonpayable",
			"type": "function"
		},
		{
			"inputs": [
				{
					"internalType": "address",
					"name": "cellulaGame",
					"type": "address"
				}
			],
			"name": "setImplementAddress",
			"outputs": [],
			"stateMutability": "nonpayable",
			"type": "function"
		},
		{
			"inputs": [
				{
					"internalType": "address",
					"name": "newOwner",
					"type": "address"
				}
			],
			"name": "transferProxyOwnership",
			"outputs": [],
			"stateMutability": "nonpayable",
			"type": "function"
		},
		{
			"stateMutability": "payable",
			"type": "receive"
		}
	]
}