{
	"proxy/CellulaGameProxy.sol": {
		"CellulaGameProxy": {
			"abi": [
				{
					"anonymous": false,
					"inputs": [
						{
							"indexed": true,
							"internalType": "address",
							"name": "previousOwner",
							"type": "address"
						},
						{
							"indexed": true,
							"internalType": "address",
							"name": "newOwner",
							"type": "address"
						}
					],
					"name": "ProxyOwnershipTransferred",
					"type": "event"
				},
				{
					"stateMutability": "payable",
					"type": "fallback"
				},
				{
					"inputs": [],
					"name": "getImplementAddress",
					"outputs": [
						{
							"internalType": "address",
							"name": "",
							"type": "address"
						}
					],
					"stateMutability": "view",
					"type": "function"
				},
				{
					"inputs": [],
					"name": "proxyOwner",
					"outputs": [
						{
							"internalType": "address",
							"name": "",
							"type": "address"
						}
					],
					"stateMutability": "view",
					"type": "function"
				},
				{
					"inputs": [],
					"name": "renounceProxyOwnership",
					"outputs": [],
					"stateMutability": "nonpayable",
					"type": "function"
				},
				{
					"inputs": [
						{
							"internalType": "address",
							"name": "cellulaGame",
							"type": "address"
						}
					],
					"name": "setImplementAddress",
					"outputs": [],
					"stateMutability": "nonpayable",
					"type": "function"
				},
				{
					"inputs": [
						{
							"internalType": "address",
							"name": "newOwner",
							"type": "address"
						}
					],
					"name": "transferProxyOwnership",
					"outputs": [],
					"stateMutability": "nonpayable",
					"type": "function"
				},
				{
					"stateMutability": "payable",
					"type": "receive"
				}
			],
			"devdoc": {
				"details": "upgrade limit：he new version of the contract can only add data on the basis of the previous version of the contract,                    and the order of declaration must be behind the original data.。",
				"kind": "dev",
				"methods": {
					"getImplementAddress()": {
						"details": "return the address of the implement contract"
					},
					"proxyOwner()": {
						"details": "Returns the address of the current owner."
					},
					"renounceProxyOwnership()": {
						"details": "Leaves the contract without owner. It will not be possible to call `onlyOwner` functions anymore. Can only be called by the current owner. NOTE: Renouncing ownership will leave the contract without an owner, thereby removing any functionality that is only available to the owner."
					},
					"setImplementAddress(address)": {
						"details": "Set the address of the implement contract , only called by the owner"
					},
					"transferProxyOwnership(address)": {
						"details": "Transfers ownership of the contract to a new account (`newOwner`). Can only be called by the current owner."
					}
				},
				"stateVariables": {
					"_IMPLEMENT_ADDRESS_POSITION": {
						"details": "The address location of the CellulaGame contract is adopted in this way so as not to be overwritten by the data in the proxy contract itself"
					},
					"_OWNER_POSITION": {
						"details": "Where the Owner is actually stored"
					}
				},
				"version": 1
			},
			"evm": {
				"assembly": "    /* \"proxy/CellulaGameProxy.sol\":504:2303  contract CellulaGameProxy is Proxy, ProxyOwnable {... */\n  mstore(0x40, 0x80)\n  callvalue\n  dup1\n  iszero\n  tag_1\n  jumpi\n  0x00\n  dup1\n  revert\ntag_1:\n  pop\n    /* \"proxy/ProxyOwnable.sol\":457:494  _transferProxyOwnership(_msgSender()) */\n  tag_4\n    /* \"@openzeppelin/contracts/utils/Context.sol\":719:729  msg.sender */\n  caller\n    /* \"proxy/ProxyOwnable.sol\":457:480  _transferProxyOwnership */\n  tag_7\n    /* \"proxy/ProxyOwnable.sol\":457:494  _transferProxyOwnership(_msgSender()) */\n  jump\t// in\ntag_4:\n    /* \"proxy/CellulaGameProxy.sol\":504:2303  contract CellulaGameProxy is Proxy, ProxyOwnable {... */\n  jump(tag_8)\n    /* \"proxy/ProxyOwnable.sol\":1882:2103  function _transferProxyOwnership(address newOwner) internal virtual {... */\ntag_7:\n    /* \"proxy/ProxyOwnable.sol\":1961:1977  address oldOwner */\n  0x00\n    /* \"proxy/ProxyOwnable.sol\":1980:1997  _loadProxyOwner() */\n  tag_11\n  0x00\n  dup1\n  mload\n  0x20\n  data_793d5e288add57694fc2da147c04083308faff12a86820938f1ff30fd35e0b97\n  dup4\n  codecopy\n  dup2\n  mload\n  swap2\n  mstore\n    /* \"proxy/CellulaGameProxy.sol\":2243:2258  sload(position) */\n  sload\n  swap1\n    /* \"proxy/CellulaGameProxy.sol\":2060:2300  function _loadProxyOwner() internal view override returns (address) {... */\n  jump\n    /* \"proxy/ProxyOwnable.sol\":1980:1997  _loadProxyOwner() */\ntag_11:\n    /* \"proxy/ProxyOwnable.sol\":1961:1997  address oldOwner = _loadProxyOwner() */\n  swap1\n  pop\n    /* \"proxy/ProxyOwnable.sol\":2008:2034  _storeProxyOwner(newOwner) */\n  tag_13\n    /* \"proxy/ProxyOwnable.sol\":2025:2033  newOwner */\n  dup3\n  0x00\n  dup1\n  mload\n  0x20\n  data_793d5e288add57694fc2da147c04083308faff12a86820938f1ff30fd35e0b97\n  dup4\n  codecopy\n  dup2\n  mload\n  swap2\n  mstore\n    /* \"proxy/CellulaGameProxy.sol\":2011:2035  sstore(position, _owner) */\n  sstore\n    /* \"proxy/CellulaGameProxy.sol\":1871:2053  function _storeProxyOwner(address _owner) internal override {... */\n  jump\n    /* \"proxy/ProxyOwnable.sol\":2008:2034  _storeProxyOwner(newOwner) */\ntag_13:\n    /* \"proxy/ProxyOwnable.sol\":2086:2094  newOwner */\n  dup2\n  sub(shl(0xa0, 0x01), 0x01)\n    /* \"proxy/ProxyOwnable.sol\":2050:2095  ProxyOwnershipTransferred(oldOwner, newOwner) */\n  and\n    /* \"proxy/ProxyOwnable.sol\":2076:2084  oldOwner */\n  dup2\n  sub(shl(0xa0, 0x01), 0x01)\n    /* \"proxy/ProxyOwnable.sol\":2050:2095  ProxyOwnershipTransferred(oldOwner, newOwner) */\n  and\n  0x5a3e66efaa1e445ebd894728a69d6959842ea1e97bd79b892797106e270efcd9\n  mload(0x40)\n  mload(0x40)\n  dup1\n  swap2\n  sub\n  swap1\n  log3\n    /* \"proxy/ProxyOwnable.sol\":1950:2103  {... */\n  pop\n    /* \"proxy/ProxyOwnable.sol\":1882:2103  function _transferProxyOwnership(address newOwner) internal virtual {... */\n  pop\n  jump\t// out\n    /* \"proxy/CellulaGameProxy.sol\":504:2303  contract CellulaGameProxy is Proxy, ProxyOwnable {... */\ntag_8:\n  dataSize(sub_0)\n  dup1\n  dataOffset(sub_0)\n  0x00\n  codecopy\n  0x00\n  return\nstop\ndata_793d5e288add57694fc2da147c04083308faff12a86820938f1ff30fd35e0b97 3d5fef76c3ed66b0ef56fb540c5aae1f78bb9d0a3b938760982770c408c354cd\n\nsub_0: assembly {\n        /* \"proxy/CellulaGameProxy.sol\":504:2303  contract CellulaGameProxy is Proxy, ProxyOwnable {... */\n      mstore(0x40, 0x80)\n      jumpi(tag_1, lt(calldatasize, 0x04))\n      shr(0xe0, calldataload(0x00))\n      dup1\n      0x025313a2\n      eq\n      tag_3\n      jumpi\n      dup1\n      0x10b2b981\n      eq\n      tag_4\n      jumpi\n      dup1\n      0x3d643cbe\n      eq\n      tag_5\n      jumpi\n      dup1\n      0xafe13fbc\n      eq\n      tag_6\n      jumpi\n      dup1\n      0xf1739cae\n      eq\n      tag_7\n      jumpi\n      jump(tag_2)\n    tag_1:\n      jumpi(tag_2, calldatasize)\n        /* \"@openzeppelin/contracts/proxy/Proxy.sol\":2898:2909  _fallback() */\n      tag_10\n        /* \"@openzeppelin/contracts/proxy/Proxy.sol\":2898:2907  _fallback */\n      tag_11\n        /* \"@openzeppelin/contracts/proxy/Proxy.sol\":2898:2909  _fallback() */\n      jump\t// in\n    tag_10:\n        /* \"proxy/CellulaGameProxy.sol\":504:2303  contract CellulaGameProxy is Proxy, ProxyOwnable {... */\n      stop\n    tag_2:\n        /* \"@openzeppelin/contracts/proxy/Proxy.sol\":2675:2686  _fallback() */\n      tag_10\n        /* \"@openzeppelin/contracts/proxy/Proxy.sol\":2675:2684  _fallback */\n      tag_11\n        /* \"@openzeppelin/contracts/proxy/Proxy.sol\":2675:2686  _fallback() */\n      jump\t// in\n        /* \"proxy/ProxyOwnable.sol\":579:674  function proxyOwner() public view returns (address) {... */\n    tag_3:\n      callvalue\n      dup1\n      iszero\n      tag_15\n      jumpi\n      0x00\n      dup1\n      revert\n    tag_15:\n      pop\n      tag_16\n      tag_17\n      jump\t// in\n    tag_16:\n      mload(0x40)\n      sub(shl(0xa0, 0x01), 0x01)\n        /* \"#utility.yul\":178:210   */\n      swap1\n      swap2\n      and\n        /* \"#utility.yul\":160:211   */\n      dup2\n      mstore\n        /* \"#utility.yul\":148:150   */\n      0x20\n        /* \"#utility.yul\":133:151   */\n      add\n        /* \"proxy/ProxyOwnable.sol\":579:674  function proxyOwner() public view returns (address) {... */\n      mload(0x40)\n      dup1\n      swap2\n      sub\n      swap1\n      return\n        /* \"proxy/CellulaGameProxy.sol\":1432:1536  function getImplementAddress() public view returns (address) {... */\n    tag_4:\n      callvalue\n      dup1\n      iszero\n      tag_20\n      jumpi\n      0x00\n      dup1\n      revert\n    tag_20:\n      pop\n      tag_16\n      tag_22\n      jump\t// in\n        /* \"proxy/CellulaGameProxy.sol\":1084:1368  function setImplementAddress(address cellulaGame)public onlyProxyOwner {... */\n    tag_5:\n      callvalue\n      dup1\n      iszero\n      tag_24\n      jumpi\n      0x00\n      dup1\n      revert\n    tag_24:\n      pop\n      tag_10\n      tag_26\n      calldatasize\n      0x04\n      tag_27\n      jump\t// in\n    tag_26:\n      tag_28\n      jump\t// in\n        /* \"proxy/ProxyOwnable.sol\":1241:1359  function renounceProxyOwnership() public virtual onlyProxyOwner {... */\n    tag_6:\n      callvalue\n      dup1\n      iszero\n      tag_29\n      jumpi\n      0x00\n      dup1\n      revert\n    tag_29:\n      pop\n      tag_10\n      tag_31\n      jump\t// in\n        /* \"proxy/ProxyOwnable.sol\":1509:1727  function transferProxyOwnership(address newOwner) public virtual onlyProxyOwner {... */\n    tag_7:\n      callvalue\n      dup1\n      iszero\n      tag_32\n      jumpi\n      0x00\n      dup1\n      revert\n    tag_32:\n      pop\n      tag_10\n      tag_34\n      calldatasize\n      0x04\n      tag_27\n      jump\t// in\n    tag_34:\n      tag_35\n      jump\t// in\n        /* \"@openzeppelin/contracts/proxy/Proxy.sol\":2322:2432  function _fallback() internal virtual {... */\n    tag_11:\n        /* \"@openzeppelin/contracts/proxy/Proxy.sol\":2397:2425  _delegate(_implementation()) */\n      tag_39\n        /* \"@openzeppelin/contracts/proxy/Proxy.sol\":2407:2424  _implementation() */\n      tag_40\n        /* \"proxy/CellulaGameProxy.sol\":802:849  keccak256(\"Cellula.Game.impl.address.84c2ce47\") */\n      0x9a1f1e098310d583b5217269e373bf0137d9ebbd218ab5d04d9ff18a0c5c62e1\n        /* \"proxy/CellulaGameProxy.sol\":1809:1824  sload(position) */\n      sload\n      swap1\n        /* \"proxy/CellulaGameProxy.sol\":1610:1864  function _implementation() internal view virtual override returns (address) {... */\n      jump\n        /* \"@openzeppelin/contracts/proxy/Proxy.sol\":2407:2424  _implementation() */\n    tag_40:\n        /* \"@openzeppelin/contracts/proxy/Proxy.sol\":2397:2406  _delegate */\n      tag_42\n        /* \"@openzeppelin/contracts/proxy/Proxy.sol\":2397:2425  _delegate(_implementation()) */\n      jump\t// in\n    tag_39:\n        /* \"@openzeppelin/contracts/proxy/Proxy.sol\":2322:2432  function _fallback() internal virtual {... */\n      jump\t// out\n        /* \"proxy/ProxyOwnable.sol\":579:674  function proxyOwner() public view returns (address) {... */\n    tag_17:\n        /* \"proxy/ProxyOwnable.sol\":622:629  address */\n      0x00\n        /* \"proxy/ProxyOwnable.sol\":649:666  _loadProxyOwner() */\n      tag_44\n        /* \"proxy/CellulaGameProxy.sol\":948:994  keccak256(\"Cellula.Game.Proxy.owner.7e2efd65\") */\n      0x3d5fef76c3ed66b0ef56fb540c5aae1f78bb9d0a3b938760982770c408c354cd\n        /* \"proxy/CellulaGameProxy.sol\":2243:2258  sload(position) */\n      sload\n      swap1\n        /* \"proxy/CellulaGameProxy.sol\":2060:2300  function _loadProxyOwner() internal view override returns (address) {... */\n      jump\n        /* \"proxy/ProxyOwnable.sol\":649:666  _loadProxyOwner() */\n    tag_44:\n        /* \"proxy/ProxyOwnable.sol\":642:666  return _loadProxyOwner() */\n      swap1\n      pop\n        /* \"proxy/ProxyOwnable.sol\":579:674  function proxyOwner() public view returns (address) {... */\n      swap1\n      jump\t// out\n        /* \"proxy/CellulaGameProxy.sol\":1432:1536  function getImplementAddress() public view returns (address) {... */\n    tag_22:\n        /* \"proxy/CellulaGameProxy.sol\":1484:1491  address */\n      0x00\n        /* \"proxy/CellulaGameProxy.sol\":1511:1528  _implementation() */\n      tag_44\n        /* \"proxy/CellulaGameProxy.sol\":802:849  keccak256(\"Cellula.Game.impl.address.84c2ce47\") */\n      0x9a1f1e098310d583b5217269e373bf0137d9ebbd218ab5d04d9ff18a0c5c62e1\n        /* \"proxy/CellulaGameProxy.sol\":1809:1824  sload(position) */\n      sload\n      swap1\n        /* \"proxy/CellulaGameProxy.sol\":1610:1864  function _implementation() internal view virtual override returns (address) {... */\n      jump\n        /* \"proxy/CellulaGameProxy.sol\":1084:1368  function setImplementAddress(address cellulaGame)public onlyProxyOwner {... */\n    tag_28:\n        /* \"@openzeppelin/contracts/utils/Context.sol\":719:729  msg.sender */\n      caller\n        /* \"proxy/ProxyOwnable.sol\":808:820  proxyOwner() */\n      tag_51\n        /* \"proxy/ProxyOwnable.sol\":808:818  proxyOwner */\n      tag_17\n        /* \"proxy/ProxyOwnable.sol\":808:820  proxyOwner() */\n      jump\t// in\n    tag_51:\n      sub(shl(0xa0, 0x01), 0x01)\n        /* \"proxy/ProxyOwnable.sol\":808:836  proxyOwner() == _msgSender() */\n      and\n      eq\n        /* \"proxy/ProxyOwnable.sol\":800:878  require(proxyOwner() == _msgSender(), \"ProxyOwnable: caller is not the owner\") */\n      tag_52\n      jumpi\n      mload(0x40)\n      shl(0xe5, 0x461bcd)\n      dup2\n      mstore\n      0x04\n      add\n      tag_53\n      swap1\n      tag_54\n      jump\t// in\n    tag_53:\n      mload(0x40)\n      dup1\n      swap2\n      sub\n      swap1\n      revert\n    tag_52:\n      sub(shl(0xa0, 0x01), 0x01)\n        /* \"proxy/CellulaGameProxy.sol\":1174:1196  cellulaGame.isContract */\n      dup2\n      and\n        /* \"@openzeppelin/contracts/utils/Address.sol\":1702:1721  account.code.length */\n      extcodesize\n        /* \"proxy/CellulaGameProxy.sol\":1166:1229  require(cellulaGame.isContract(), \"ADDRESS SHOULD BE CONTRACT\") */\n      tag_58\n      jumpi\n      mload(0x40)\n      shl(0xe5, 0x461bcd)\n      dup2\n      mstore\n        /* \"#utility.yul\":1121:1123   */\n      0x20\n        /* \"proxy/CellulaGameProxy.sol\":1166:1229  require(cellulaGame.isContract(), \"ADDRESS SHOULD BE CONTRACT\") */\n      0x04\n      dup3\n      add\n        /* \"#utility.yul\":1103:1124   */\n      mstore\n        /* \"#utility.yul\":1160:1162   */\n      0x1a\n        /* \"#utility.yul\":1140:1158   */\n      0x24\n      dup3\n      add\n        /* \"#utility.yul\":1133:1163   */\n      mstore\n        /* \"#utility.yul\":1199:1227   */\n      0x414444524553532053484f554c4420424520434f4e5452414354000000000000\n        /* \"#utility.yul\":1179:1197   */\n      0x44\n      dup3\n      add\n        /* \"#utility.yul\":1172:1228   */\n      mstore\n        /* \"#utility.yul\":1245:1263   */\n      0x64\n      add\n        /* \"proxy/CellulaGameProxy.sol\":1166:1229  require(cellulaGame.isContract(), \"ADDRESS SHOULD BE CONTRACT\") */\n      tag_53\n        /* \"#utility.yul\":919:1269   */\n      jump\n        /* \"proxy/CellulaGameProxy.sol\":1166:1229  require(cellulaGame.isContract(), \"ADDRESS SHOULD BE CONTRACT\") */\n    tag_58:\n        /* \"proxy/CellulaGameProxy.sol\":802:849  keccak256(\"Cellula.Game.impl.address.84c2ce47\") */\n      0x9a1f1e098310d583b5217269e373bf0137d9ebbd218ab5d04d9ff18a0c5c62e1\n        /* \"proxy/CellulaGameProxy.sol\":1321:1350  sstore(position, cellulaGame) */\n      sstore\n        /* \"proxy/CellulaGameProxy.sol\":1084:1368  function setImplementAddress(address cellulaGame)public onlyProxyOwner {... */\n      jump\t// out\n        /* \"proxy/ProxyOwnable.sol\":1241:1359  function renounceProxyOwnership() public virtual onlyProxyOwner {... */\n    tag_31:\n        /* \"@openzeppelin/contracts/utils/Context.sol\":719:729  msg.sender */\n      caller\n        /* \"proxy/ProxyOwnable.sol\":808:820  proxyOwner() */\n      tag_63\n        /* \"proxy/ProxyOwnable.sol\":808:818  proxyOwner */\n      tag_17\n        /* \"proxy/ProxyOwnable.sol\":808:820  proxyOwner() */\n      jump\t// in\n    tag_63:\n      sub(shl(0xa0, 0x01), 0x01)\n        /* \"proxy/ProxyOwnable.sol\":808:836  proxyOwner() == _msgSender() */\n      and\n      eq\n        /* \"proxy/ProxyOwnable.sol\":800:878  require(proxyOwner() == _msgSender(), \"ProxyOwnable: caller is not the owner\") */\n      tag_64\n      jumpi\n      mload(0x40)\n      shl(0xe5, 0x461bcd)\n      dup2\n      mstore\n      0x04\n      add\n      tag_53\n      swap1\n      tag_54\n      jump\t// in\n    tag_64:\n        /* \"proxy/ProxyOwnable.sol\":1316:1351  _transferProxyOwnership(address(0)) */\n      tag_39\n        /* \"proxy/ProxyOwnable.sol\":1348:1349  0 */\n      0x00\n        /* \"proxy/ProxyOwnable.sol\":1316:1339  _transferProxyOwnership */\n      tag_68\n        /* \"proxy/ProxyOwnable.sol\":1316:1351  _transferProxyOwnership(address(0)) */\n      jump\t// in\n        /* \"proxy/ProxyOwnable.sol\":1509:1727  function transferProxyOwnership(address newOwner) public virtual onlyProxyOwner {... */\n    tag_35:\n        /* \"@openzeppelin/contracts/utils/Context.sol\":719:729  msg.sender */\n      caller\n        /* \"proxy/ProxyOwnable.sol\":808:820  proxyOwner() */\n      tag_71\n        /* \"proxy/ProxyOwnable.sol\":808:818  proxyOwner */\n      tag_17\n        /* \"proxy/ProxyOwnable.sol\":808:820  proxyOwner() */\n      jump\t// in\n    tag_71:\n      sub(shl(0xa0, 0x01), 0x01)\n        /* \"proxy/ProxyOwnable.sol\":808:836  proxyOwner() == _msgSender() */\n      and\n      eq\n        /* \"proxy/ProxyOwnable.sol\":800:878  require(proxyOwner() == _msgSender(), \"ProxyOwnable: caller is not the owner\") */\n      tag_72\n      jumpi\n      mload(0x40)\n      shl(0xe5, 0x461bcd)\n      dup2\n      mstore\n      0x04\n      add\n      tag_53\n      swap1\n      tag_54\n      jump\t// in\n    tag_72:\n      sub(shl(0xa0, 0x01), 0x01)\n        /* \"proxy/ProxyOwnable.sol\":1608:1630  newOwner != address(0) */\n      dup2\n      and\n        /* \"proxy/ProxyOwnable.sol\":1600:1673  require(newOwner != address(0), \"Ownable: new owner is the zero address\") */\n      tag_75\n      jumpi\n      mload(0x40)\n      shl(0xe5, 0x461bcd)\n      dup2\n      mstore\n        /* \"#utility.yul\":1476:1478   */\n      0x20\n        /* \"proxy/ProxyOwnable.sol\":1600:1673  require(newOwner != address(0), \"Ownable: new owner is the zero address\") */\n      0x04\n      dup3\n      add\n        /* \"#utility.yul\":1458:1479   */\n      mstore\n        /* \"#utility.yul\":1515:1517   */\n      0x26\n        /* \"#utility.yul\":1495:1513   */\n      0x24\n      dup3\n      add\n        /* \"#utility.yul\":1488:1518   */\n      mstore\n        /* \"#utility.yul\":1554:1588   */\n      0x4f776e61626c653a206e6577206f776e657220697320746865207a65726f2061\n        /* \"#utility.yul\":1534:1552   */\n      0x44\n      dup3\n      add\n        /* \"#utility.yul\":1527:1589   */\n      mstore\n      shl(0xd0, 0x646472657373)\n        /* \"#utility.yul\":1605:1623   */\n      0x64\n      dup3\n      add\n        /* \"#utility.yul\":1598:1634   */\n      mstore\n        /* \"#utility.yul\":1651:1670   */\n      0x84\n      add\n        /* \"proxy/ProxyOwnable.sol\":1600:1673  require(newOwner != address(0), \"Ownable: new owner is the zero address\") */\n      tag_53\n        /* \"#utility.yul\":1274:1676   */\n      jump\n        /* \"proxy/ProxyOwnable.sol\":1600:1673  require(newOwner != address(0), \"Ownable: new owner is the zero address\") */\n    tag_75:\n        /* \"proxy/ProxyOwnable.sol\":1686:1719  _transferProxyOwnership(newOwner) */\n      tag_78\n        /* \"proxy/ProxyOwnable.sol\":1710:1718  newOwner */\n      dup2\n        /* \"proxy/ProxyOwnable.sol\":1686:1709  _transferProxyOwnership */\n      tag_68\n        /* \"proxy/ProxyOwnable.sol\":1686:1719  _transferProxyOwnership(newOwner) */\n      jump\t// in\n    tag_78:\n        /* \"proxy/ProxyOwnable.sol\":1509:1727  function transferProxyOwnership(address newOwner) public virtual onlyProxyOwner {... */\n      pop\n      jump\t// out\n        /* \"@openzeppelin/contracts/proxy/Proxy.sol\":948:1843  function _delegate(address implementation) internal virtual {... */\n    tag_42:\n        /* \"@openzeppelin/contracts/proxy/Proxy.sol\":1286:1300  calldatasize() */\n      calldatasize\n        /* \"@openzeppelin/contracts/proxy/Proxy.sol\":1283:1284  0 */\n      0x00\n        /* \"@openzeppelin/contracts/proxy/Proxy.sol\":1280:1281  0 */\n      dup1\n        /* \"@openzeppelin/contracts/proxy/Proxy.sol\":1267:1301  calldatacopy(0, 0, calldatasize()) */\n      calldatacopy\n        /* \"@openzeppelin/contracts/proxy/Proxy.sol\":1500:1501  0 */\n      0x00\n        /* \"@openzeppelin/contracts/proxy/Proxy.sol\":1497:1498  0 */\n      dup1\n        /* \"@openzeppelin/contracts/proxy/Proxy.sol\":1481:1495  calldatasize() */\n      calldatasize\n        /* \"@openzeppelin/contracts/proxy/Proxy.sol\":1478:1479  0 */\n      0x00\n        /* \"@openzeppelin/contracts/proxy/Proxy.sol\":1462:1476  implementation */\n      dup5\n        /* \"@openzeppelin/contracts/proxy/Proxy.sol\":1455:1460  gas() */\n      gas\n        /* \"@openzeppelin/contracts/proxy/Proxy.sol\":1442:1502  delegatecall(gas(), implementation, 0, calldatasize(), 0, 0) */\n      delegatecall\n        /* \"@openzeppelin/contracts/proxy/Proxy.sol\":1576:1592  returndatasize() */\n      returndatasize\n        /* \"@openzeppelin/contracts/proxy/Proxy.sol\":1573:1574  0 */\n      0x00\n        /* \"@openzeppelin/contracts/proxy/Proxy.sol\":1570:1571  0 */\n      dup1\n        /* \"@openzeppelin/contracts/proxy/Proxy.sol\":1555:1593  returndatacopy(0, 0, returndatasize()) */\n      returndatacopy\n        /* \"@openzeppelin/contracts/proxy/Proxy.sol\":1614:1620  result */\n      dup1\n        /* \"@openzeppelin/contracts/proxy/Proxy.sol\":1681:1747  case 0 {... */\n      dup1\n      iszero\n      tag_83\n      jumpi\n        /* \"@openzeppelin/contracts/proxy/Proxy.sol\":1796:1812  returndatasize() */\n      returndatasize\n        /* \"@openzeppelin/contracts/proxy/Proxy.sol\":1793:1794  0 */\n      0x00\n        /* \"@openzeppelin/contracts/proxy/Proxy.sol\":1786:1813  return(0, returndatasize()) */\n      return\n        /* \"@openzeppelin/contracts/proxy/Proxy.sol\":1681:1747  case 0 {... */\n    tag_83:\n        /* \"@openzeppelin/contracts/proxy/Proxy.sol\":1716:1732  returndatasize() */\n      returndatasize\n        /* \"@openzeppelin/contracts/proxy/Proxy.sol\":1713:1714  0 */\n      0x00\n        /* \"@openzeppelin/contracts/proxy/Proxy.sol\":1706:1733  revert(0, returndatasize()) */\n      revert\n        /* \"proxy/ProxyOwnable.sol\":1882:2103  function _transferProxyOwnership(address newOwner) internal virtual {... */\n    tag_68:\n        /* \"proxy/ProxyOwnable.sol\":1961:1977  address oldOwner */\n      0x00\n        /* \"proxy/ProxyOwnable.sol\":1980:1997  _loadProxyOwner() */\n      tag_88\n        /* \"proxy/CellulaGameProxy.sol\":948:994  keccak256(\"Cellula.Game.Proxy.owner.7e2efd65\") */\n      0x3d5fef76c3ed66b0ef56fb540c5aae1f78bb9d0a3b938760982770c408c354cd\n        /* \"proxy/CellulaGameProxy.sol\":2243:2258  sload(position) */\n      sload\n      swap1\n        /* \"proxy/CellulaGameProxy.sol\":2060:2300  function _loadProxyOwner() internal view override returns (address) {... */\n      jump\n        /* \"proxy/ProxyOwnable.sol\":1980:1997  _loadProxyOwner() */\n    tag_88:\n        /* \"proxy/ProxyOwnable.sol\":1961:1997  address oldOwner = _loadProxyOwner() */\n      swap1\n      pop\n        /* \"proxy/ProxyOwnable.sol\":2008:2034  _storeProxyOwner(newOwner) */\n      tag_89\n        /* \"proxy/ProxyOwnable.sol\":2025:2033  newOwner */\n      dup3\n        /* \"proxy/CellulaGameProxy.sol\":948:994  keccak256(\"Cellula.Game.Proxy.owner.7e2efd65\") */\n      0x3d5fef76c3ed66b0ef56fb540c5aae1f78bb9d0a3b938760982770c408c354cd\n        /* \"proxy/CellulaGameProxy.sol\":2011:2035  sstore(position, _owner) */\n      sstore\n        /* \"proxy/CellulaGameProxy.sol\":1871:2053  function _storeProxyOwner(address _owner) internal override {... */\n      jump\n        /* \"proxy/ProxyOwnable.sol\":2008:2034  _storeProxyOwner(newOwner) */\n    tag_89:\n        /* \"proxy/ProxyOwnable.sol\":2086:2094  newOwner */\n      dup2\n      sub(shl(0xa0, 0x01), 0x01)\n        /* \"proxy/ProxyOwnable.sol\":2050:2095  ProxyOwnershipTransferred(oldOwner, newOwner) */\n      and\n        /* \"proxy/ProxyOwnable.sol\":2076:2084  oldOwner */\n      dup2\n      sub(shl(0xa0, 0x01), 0x01)\n        /* \"proxy/ProxyOwnable.sol\":2050:2095  ProxyOwnershipTransferred(oldOwner, newOwner) */\n      and\n      0x5a3e66efaa1e445ebd894728a69d6959842ea1e97bd79b892797106e270efcd9\n      mload(0x40)\n      mload(0x40)\n      dup1\n      swap2\n      sub\n      swap1\n      log3\n        /* \"proxy/ProxyOwnable.sol\":1950:2103  {... */\n      pop\n        /* \"proxy/ProxyOwnable.sol\":1882:2103  function _transferProxyOwnership(address newOwner) internal virtual {... */\n      pop\n      jump\t// out\n        /* \"#utility.yul\":222:508   */\n    tag_27:\n        /* \"#utility.yul\":281:287   */\n      0x00\n        /* \"#utility.yul\":334:336   */\n      0x20\n        /* \"#utility.yul\":322:331   */\n      dup3\n        /* \"#utility.yul\":313:320   */\n      dup5\n        /* \"#utility.yul\":309:332   */\n      sub\n        /* \"#utility.yul\":305:337   */\n      slt\n        /* \"#utility.yul\":302:354   */\n      iszero\n      tag_95\n      jumpi\n        /* \"#utility.yul\":350:351   */\n      0x00\n        /* \"#utility.yul\":347:348   */\n      dup1\n        /* \"#utility.yul\":340:352   */\n      revert\n        /* \"#utility.yul\":302:354   */\n    tag_95:\n        /* \"#utility.yul\":376:399   */\n      dup2\n      calldataload\n      sub(shl(0xa0, 0x01), 0x01)\n        /* \"#utility.yul\":428:459   */\n      dup2\n      and\n        /* \"#utility.yul\":418:460   */\n      dup2\n      eq\n        /* \"#utility.yul\":408:478   */\n      tag_96\n      jumpi\n        /* \"#utility.yul\":474:475   */\n      0x00\n        /* \"#utility.yul\":471:472   */\n      dup1\n        /* \"#utility.yul\":464:476   */\n      revert\n        /* \"#utility.yul\":408:478   */\n    tag_96:\n        /* \"#utility.yul\":497:502   */\n      swap4\n        /* \"#utility.yul\":222:508   */\n      swap3\n      pop\n      pop\n      pop\n      jump\t// out\n        /* \"#utility.yul\":513:914   */\n    tag_54:\n        /* \"#utility.yul\":715:717   */\n      0x20\n        /* \"#utility.yul\":697:718   */\n      dup1\n      dup3\n      mstore\n        /* \"#utility.yul\":754:756   */\n      0x25\n        /* \"#utility.yul\":734:752   */\n      swap1\n      dup3\n      add\n        /* \"#utility.yul\":727:757   */\n      mstore\n        /* \"#utility.yul\":793:827   */\n      0x50726f78794f776e61626c653a2063616c6c6572206973206e6f742074686520\n        /* \"#utility.yul\":788:790   */\n      0x40\n        /* \"#utility.yul\":773:791   */\n      dup3\n      add\n        /* \"#utility.yul\":766:828   */\n      mstore\n      shl(0xd9, 0x37bbb732b9)\n        /* \"#utility.yul\":859:861   */\n      0x60\n        /* \"#utility.yul\":844:862   */\n      dup3\n      add\n        /* \"#utility.yul\":837:872   */\n      mstore\n        /* \"#utility.yul\":904:907   */\n      0x80\n        /* \"#utility.yul\":889:908   */\n      add\n      swap1\n        /* \"#utility.yul\":513:914   */\n      jump\t// out\n\n    auxdata: 0xa26469706673582212209d182b1269c6a71bdc096a04cd2ada06a8233f7ac92275c6b86e31d0655ad74b64736f6c634300080a0033\n}\n",
				"bytecode": {
					"linkReferences": {},
					"object": "608060405234801561001057600080fd5b5061001a3361001f565b610093565b60006100376000805160206105208339815191525490565b905061004f8260008051602061052083398151915255565b816001600160a01b0316816001600160a01b03167f5a3e66efaa1e445ebd894728a69d6959842ea1e97bd79b892797106e270efcd960405160405180910390a35050565b61047e806100a26000396000f3fe60806040526004361061004e5760003560e01c8063025313a21461006557806310b2b981146100965780633d643cbe146100ab578063afe13fbc146100cb578063f1739cae146100e05761005d565b3661005d5761005b610100565b005b61005b610100565b34801561007157600080fd5b5061007a610132565b6040516001600160a01b03909116815260200160405180910390f35b3480156100a257600080fd5b5061007a610161565b3480156100b757600080fd5b5061005b6100c63660046103d3565b61018b565b3480156100d757600080fd5b5061005b61023e565b3480156100ec57600080fd5b5061005b6100fb3660046103d3565b610277565b61013061012b7f9a1f1e098310d583b5217269e373bf0137d9ebbd218ab5d04d9ff18a0c5c62e15490565b610317565b565b600061015c7f3d5fef76c3ed66b0ef56fb540c5aae1f78bb9d0a3b938760982770c408c354cd5490565b905090565b600061015c7f9a1f1e098310d583b5217269e373bf0137d9ebbd218ab5d04d9ff18a0c5c62e15490565b33610194610132565b6001600160a01b0316146101c35760405162461bcd60e51b81526004016101ba90610403565b60405180910390fd5b6001600160a01b0381163b61021a5760405162461bcd60e51b815260206004820152601a60248201527f414444524553532053484f554c4420424520434f4e545241435400000000000060448201526064016101ba565b7f9a1f1e098310d583b5217269e373bf0137d9ebbd218ab5d04d9ff18a0c5c62e155565b33610247610132565b6001600160a01b03161461026d5760405162461bcd60e51b81526004016101ba90610403565b610130600061033b565b33610280610132565b6001600160a01b0316146102a65760405162461bcd60e51b81526004016101ba90610403565b6001600160a01b03811661030b5760405162461bcd60e51b815260206004820152602660248201527f4f776e61626c653a206e6577206f776e657220697320746865207a65726f206160448201526564647265737360d01b60648201526084016101ba565b6103148161033b565b50565b3660008037600080366000845af43d6000803e808015610336573d6000f35b3d6000fd5b60006103657f3d5fef76c3ed66b0ef56fb540c5aae1f78bb9d0a3b938760982770c408c354cd5490565b905061038f827f3d5fef76c3ed66b0ef56fb540c5aae1f78bb9d0a3b938760982770c408c354cd55565b816001600160a01b0316816001600160a01b03167f5a3e66efaa1e445ebd894728a69d6959842ea1e97bd79b892797106e270efcd960405160405180910390a35050565b6000602082840312156103e557600080fd5b81356001600160a01b03811681146103fc57600080fd5b9392505050565b60208082526025908201527f50726f78794f776e61626c653a2063616c6c6572206973206e6f74207468652060408201526437bbb732b960d91b60608201526080019056fea26469706673582212209d182b1269c6a71bdc096a04cd2ada06a8233f7ac92275c6b86e31d0655ad74b64736f6c634300080a00333d5fef76c3ed66b0ef56fb540c5aae1f78bb9d0a3b938760982770c408c354cd",
					"opcodes": "PUSH1 0x80 PUSH1 0x40 MSTORE CALLVALUE DUP1 ISZERO PUSH2 0x10 JUMPI PUSH1 0x0 DUP1 REVERT JUMPDEST POP PUSH2 0x1A CALLER PUSH2 0x1F JUMP JUMPDEST PUSH2 0x93 JUMP JUMPDEST PUSH1 0x0 PUSH2 0x37 PUSH1 0x0 DUP1 MLOAD PUSH1 0x20 PUSH2 0x520 DUP4 CODECOPY DUP2 MLOAD SWAP2 MSTORE SLOAD SWAP1 JUMP JUMPDEST SWAP1 POP PUSH2 0x4F DUP3 PUSH1 0x0 DUP1 MLOAD PUSH1 0x20 PUSH2 0x520 DUP4 CODECOPY DUP2 MLOAD SWAP2 MSTORE SSTORE JUMP JUMPDEST DUP2 PUSH1 0x1 PUSH1 0x1 PUSH1 0xA0 SHL SUB AND DUP2 PUSH1 0x1 PUSH1 0x1 PUSH1 0xA0 SHL SUB AND PUSH32 0x5A3E66EFAA1E445EBD894728A69D6959842EA1E97BD79B892797106E270EFCD9 PUSH1 0x40 MLOAD PUSH1 0x40 MLOAD DUP1 SWAP2 SUB SWAP1 LOG3 POP POP JUMP JUMPDEST PUSH2 0x47E DUP1 PUSH2 0xA2 PUSH1 0x0 CODECOPY PUSH1 0x0 RETURN INVALID PUSH1 0x80 PUSH1 0x40 MSTORE PUSH1 0x4 CALLDATASIZE LT PUSH2 0x4E JUMPI PUSH1 0x0 CALLDATALOAD PUSH1 0xE0 SHR DUP1 PUSH4 0x25313A2 EQ PUSH2 0x65 JUMPI DUP1 PUSH4 0x10B2B981 EQ PUSH2 0x96 JUMPI DUP1 PUSH4 0x3D643CBE EQ PUSH2 0xAB JUMPI DUP1 PUSH4 0xAFE13FBC EQ PUSH2 0xCB JUMPI DUP1 PUSH4 0xF1739CAE EQ PUSH2 0xE0 JUMPI PUSH2 0x5D JUMP JUMPDEST CALLDATASIZE PUSH2 0x5D JUMPI PUSH2 0x5B PUSH2 0x100 JUMP JUMPDEST STOP JUMPDEST PUSH2 0x5B PUSH2 0x100 JUMP JUMPDEST CALLVALUE DUP1 ISZERO PUSH2 0x71 JUMPI PUSH1 0x0 DUP1 REVERT JUMPDEST POP PUSH2 0x7A PUSH2 0x132 JUMP JUMPDEST PUSH1 0x40 MLOAD PUSH1 0x1 PUSH1 0x1 PUSH1 0xA0 SHL SUB SWAP1 SWAP2 AND DUP2 MSTORE PUSH1 0x20 ADD PUSH1 0x40 MLOAD DUP1 SWAP2 SUB SWAP1 RETURN JUMPDEST CALLVALUE DUP1 ISZERO PUSH2 0xA2 JUMPI PUSH1 0x0 DUP1 REVERT JUMPDEST POP PUSH2 0x7A PUSH2 0x161 JUMP JUMPDEST CALLVALUE DUP1 ISZERO PUSH2 0xB7 JUMPI PUSH1 0x0 DUP1 REVERT JUMPDEST POP PUSH2 0x5B PUSH2 0xC6 CALLDATASIZE PUSH1 0x4 PUSH2 0x3D3 JUMP JUMPDEST PUSH2 0x18B JUMP JUMPDEST CALLVALUE DUP1 ISZERO PUSH2 0xD7 JUMPI PUSH1 0x0 DUP1 REVERT JUMPDEST POP PUSH2 0x5B PUSH2 0x23E JUMP JUMPDEST CALLVALUE DUP1 ISZERO PUSH2 0xEC JUMPI PUSH1 0x0 DUP1 REVERT JUMPDEST POP PUSH2 0x5B PUSH2 0xFB CALLDATASIZE PUSH1 0x4 PUSH2 0x3D3 JUMP JUMPDEST PUSH2 0x277 JUMP JUMPDEST PUSH2 0x130 PUSH2 0x12B PUSH32 0x9A1F1E098310D583B5217269E373BF0137D9EBBD218AB5D04D9FF18A0C5C62E1 SLOAD SWAP1 JUMP JUMPDEST PUSH2 0x317 JUMP JUMPDEST JUMP JUMPDEST PUSH1 0x0 PUSH2 0x15C PUSH32 0x3D5FEF76C3ED66B0EF56FB540C5AAE1F78BB9D0A3B938760982770C408C354CD SLOAD SWAP1 JUMP JUMPDEST SWAP1 POP SWAP1 JUMP JUMPDEST PUSH1 0x0 PUSH2 0x15C PUSH32 0x9A1F1E098310D583B5217269E373BF0137D9EBBD218AB5D04D9FF18A0C5C62E1 SLOAD SWAP1 JUMP JUMPDEST CALLER PUSH2 0x194 PUSH2 0x132 JUMP JUMPDEST PUSH1 0x1 PUSH1 0x1 PUSH1 0xA0 SHL SUB AND EQ PUSH2 0x1C3 JUMPI PUSH1 0x40 MLOAD PUSH3 0x461BCD PUSH1 0xE5 SHL DUP2 MSTORE PUSH1 0x4 ADD PUSH2 0x1BA SWAP1 PUSH2 0x403 JUMP JUMPDEST PUSH1 0x40 MLOAD DUP1 SWAP2 SUB SWAP1 REVERT JUMPDEST PUSH1 0x1 PUSH1 0x1 PUSH1 0xA0 SHL SUB DUP2 AND EXTCODESIZE PUSH2 0x21A JUMPI PUSH1 0x40 MLOAD PUSH3 0x461BCD PUSH1 0xE5 SHL DUP2 MSTORE PUSH1 0x20 PUSH1 0x4 DUP3 ADD MSTORE PUSH1 0x1A PUSH1 0x24 DUP3 ADD MSTORE PUSH32 0x414444524553532053484F554C4420424520434F4E5452414354000000000000 PUSH1 0x44 DUP3 ADD MSTORE PUSH1 0x64 ADD PUSH2 0x1BA JUMP JUMPDEST PUSH32 0x9A1F1E098310D583B5217269E373BF0137D9EBBD218AB5D04D9FF18A0C5C62E1 SSTORE JUMP JUMPDEST CALLER PUSH2 0x247 PUSH2 0x132 JUMP JUMPDEST PUSH1 0x1 PUSH1 0x1 PUSH1 0xA0 SHL SUB AND EQ PUSH2 0x26D JUMPI PUSH1 0x40 MLOAD PUSH3 0x461BCD PUSH1 0xE5 SHL DUP2 MSTORE PUSH1 0x4 ADD PUSH2 0x1BA SWAP1 PUSH2 0x403 JUMP JUMPDEST PUSH2 0x130 PUSH1 0x0 PUSH2 0x33B JUMP JUMPDEST CALLER PUSH2 0x280 PUSH2 0x132 JUMP JUMPDEST PUSH1 0x1 PUSH1 0x1 PUSH1 0xA0 SHL SUB AND EQ PUSH2 0x2A6 JUMPI PUSH1 0x40 MLOAD PUSH3 0x461BCD PUSH1 0xE5 SHL DUP2 MSTORE PUSH1 0x4 ADD PUSH2 0x1BA SWAP1 PUSH2 0x403 JUMP JUMPDEST PUSH1 0x1 PUSH1 0x1 PUSH1 0xA0 SHL SUB DUP2 AND PUSH2 0x30B JUMPI PUSH1 0x40 MLOAD PUSH3 0x461BCD PUSH1 0xE5 SHL DUP2 MSTORE PUSH1 0x20 PUSH1 0x4 DUP3 ADD MSTORE PUSH1 0x26 PUSH1 0x24 DUP3 ADD MSTORE PUSH32 0x4F776E61626C653A206E6577206F776E657220697320746865207A65726F2061 PUSH1 0x44 DUP3 ADD MSTORE PUSH6 0x646472657373 PUSH1 0xD0 SHL PUSH1 0x64 DUP3 ADD MSTORE PUSH1 0x84 ADD PUSH2 0x1BA JUMP JUMPDEST PUSH2 0x314 DUP2 PUSH2 0x33B JUMP JUMPDEST POP JUMP JUMPDEST CALLDATASIZE PUSH1 0x0 DUP1 CALLDATACOPY PUSH1 0x0 DUP1 CALLDATASIZE PUSH1 0x0 DUP5 GAS DELEGATECALL RETURNDATASIZE PUSH1 0x0 DUP1 RETURNDATACOPY DUP1 DUP1 ISZERO PUSH2 0x336 JUMPI RETURNDATASIZE PUSH1 0x0 RETURN JUMPDEST RETURNDATASIZE PUSH1 0x0 REVERT JUMPDEST PUSH1 0x0 PUSH2 0x365 PUSH32 0x3D5FEF76C3ED66B0EF56FB540C5AAE1F78BB9D0A3B938760982770C408C354CD SLOAD SWAP1 JUMP JUMPDEST SWAP1 POP PUSH2 0x38F DUP3 PUSH32 0x3D5FEF76C3ED66B0EF56FB540C5AAE1F78BB9D0A3B938760982770C408C354CD SSTORE JUMP JUMPDEST DUP2 PUSH1 0x1 PUSH1 0x1 PUSH1 0xA0 SHL SUB AND DUP2 PUSH1 0x1 PUSH1 0x1 PUSH1 0xA0 SHL SUB AND PUSH32 0x5A3E66EFAA1E445EBD894728A69D6959842EA1E97BD79B892797106E270EFCD9 PUSH1 0x40 MLOAD PUSH1 0x40 MLOAD DUP1 SWAP2 SUB SWAP1 LOG3 POP POP JUMP JUMPDEST PUSH1 0x0 PUSH1 0x20 DUP3 DUP5 SUB SLT ISZERO PUSH2 0x3E5 JUMPI PUSH1 0x0 DUP1 REVERT JUMPDEST DUP2 CALLDATALOAD PUSH1 0x1 PUSH1 0x1 PUSH1 0xA0 SHL SUB DUP2 AND DUP2 EQ PUSH2 0x3FC JUMPI PUSH1 0x0 DUP1 REVERT JUMPDEST SWAP4 SWAP3 POP POP POP JUMP JUMPDEST PUSH1 0x20 DUP1 DUP3 MSTORE PUSH1 0x25 SWAP1 DUP3 ADD MSTORE PUSH32 0x50726F78794F776E61626C653A2063616C6C6572206973206E6F742074686520 PUSH1 0x40 DUP3 ADD MSTORE PUSH5 0x37BBB732B9 PUSH1 0xD9 SHL PUSH1 0x60 DUP3 ADD MSTORE PUSH1 0x80 ADD SWAP1 JUMP INVALID LOG2 PUSH5 0x6970667358 0x22 SLT KECCAK256 SWAP14 XOR 0x2B SLT PUSH10 0xC6A71BDC096A04CD2ADA MOD 0xA8 0x23 EXTCODEHASH PUSH27 0xC92275C6B86E31D0655AD74B64736F6C634300080A00333D5FEF76 0xC3 0xED PUSH7 0xB0EF56FB540C5A 0xAE 0x1F PUSH25 0xBB9D0A3B938760982770C408C354CD00000000000000000000 "
				},
				"gasEstimates": {
					"creation": {
						"codeDepositCost": "230000",
						"executionCost": "26190",
						"totalCost": "256190"
					},
					"external": {
						"": "infinite",
						"getImplementAddress()": "2339",
						"proxyOwner()": "2317",
						"renounceProxyOwnership()": "11122",
						"setImplementAddress(address)": "27217",
						"transferProxyOwnership(address)": "28404"
					},
					"internal": {
						"_implementation()": "infinite",
						"_loadProxyOwner()": "infinite",
						"_storeProxyOwner(address)": "infinite"
					}
				},
				"methodIdentifiers": {
					"getImplementAddress()": "10b2b981",
					"proxyOwner()": "025313a2",
					"renounceProxyOwnership()": "afe13fbc",
					"setImplementAddress(address)": "3d643cbe",
					"transferProxyOwnership(address)": "f1739cae"
				}
			},
			"storageLayout": {
				"storage": [],
				"types": null
			},
			"userdoc": {
				"kind": "user",
				"methods": {},
				"notice": "proxy contract of CellulaGame",
				"version": 1
			}
		}
	}
}