{
	"data": {
		"bytecode": {
			"linkReferences": {},
			"object": "610180604052600060cc81905560cd819055600a60805260cf81905561c79c60a0526101ff60c081905260e0526113f661010052600261012052610384610140526114506101605260d35534801561005657600080fd5b5060805160a05160c05160e051610100516101205161014051610160516144ec6100fb600039600081816105610152610d270152600081816103f8015261234601526000818161096601528181611e88015261236801526000818161089d0152610c42015260006109f30152600081816125aa01526125d401526000818161052d01528181610c1801528181610cab01526116e10152600061267201526144ec6000f3fe6080604052600436106102e85760003560e01c80635f1a360a11610190578063b047fb50116100dc578063e985e9c511610095578063f93019101161006f578063f930191014610954578063f99031a714610988578063fc6f9468146109c1578063fea9b572146109e157600080fd5b8063e985e9c5146108f4578063f364ff5f14610914578063f4a0a5281461093457600080fd5b8063b047fb501461082b578063b88d4fde1461084b578063b9ac62f51461086b578063bb8a16bd1461088b578063c87b56dd146108bf578063dbdff2c1146108df57600080fd5b80637c77259611610149578063944b1b2111610123578063944b1b21146107a157806395d89b41146107d65780639e2591dd146107eb578063a22cb4651461080b57600080fd5b80637c7725961461072f57806380e15f76146107615780638f2839701461078157600080fd5b80635f1a360a146106735780636352211e146106a657806367c8fbd4146106c65780636817c76c146106d957806370a08231146106ef57806379340b431461070f57600080fd5b80632cab00de1161024f578063372c12b1116102085780634cd88b76116101e25780634cd88b76146105f35780634f6ccce71461061357806358b86cb3146106335780635e1045ec1461065357600080fd5b8063372c12b1146105835780633c3a8746146105b357806342842e0e146105d357600080fd5b80632cab00de146104a55780632e1a7d4d146104bb5780632f745c59146104db5780632fe24d36146104fb57806332cb6b0c1461051b57806335b8d98a1461054f57600080fd5b806318160ddd116102a157806318160ddd146103d15780631ae52519146103e65780631f5136601461042f578063226c8ec11461044f57806323b872dd1461046f5780632690b6651461048f57600080fd5b806301ffc9a7146102f457806306fdde0314610329578063081812fc1461034b578063095ea7b3146103835780630d113473146103a55780631249c58b146103c957600080fd5b366102ef57005b600080fd5b34801561030057600080fd5b5061031461030f36600461384d565b610a15565b60405190151581526020015b60405180910390f35b34801561033557600080fd5b5061033e610a40565b60405161032091906138ba565b34801561035757600080fd5b5061036b6103663660046138cd565b610ad2565b6040516001600160a01b039091168152602001610320565b34801561038f57600080fd5b506103a361039e3660046138fb565b610af9565b005b3480156103b157600080fd5b506103bb60d35481565b604051908152602001610320565b6103a3610c13565b3480156103dd57600080fd5b506099546103bb565b3480156103f257600080fd5b5061041a7f000000000000000000000000000000000000000000000000000000000000000081565b60405163ffffffff9091168152602001610320565b34801561043b57600080fd5b5060cb5461036b906001600160a01b031681565b34801561045b57600080fd5b506103a361046a366004613927565b610fc1565b34801561047b57600080fd5b506103a361048a366004613944565b61100d565b34801561049b57600080fd5b506103bb60cf5481565b3480156104b157600080fd5b506103bb60cd5481565b3480156104c757600080fd5b506103a36104d63660046138cd565b61103e565b3480156104e757600080fd5b506103bb6104f63660046138fb565b6110ed565b34801561050757600080fd5b506103a36105163660046139cd565b611183565b34801561052757600080fd5b506103bb7f000000000000000000000000000000000000000000000000000000000000000081565b34801561055b57600080fd5b5061041a7f000000000000000000000000000000000000000000000000000000000000000081565b34801561058f57600080fd5b5061031461059e366004613927565b60ce6020526000908152604090205460ff1681565b3480156105bf57600080fd5b5061033e6105ce3660046138cd565b6111ba565b3480156105df57600080fd5b506103a36105ee366004613944565b611246565b3480156105ff57600080fd5b506103a361060e366004613a0e565b611261565b34801561061f57600080fd5b506103bb61062e3660046138cd565b611435565b34801561063f57600080fd5b5061031461064e3660046138cd565b6114c8565b34801561065f57600080fd5b506103a361066e366004613abd565b611544565b34801561067f57600080fd5b5061041a61068e366004613927565b60d26020526000908152604090205463ffffffff1681565b3480156106b257600080fd5b5061036b6106c13660046138cd565b611635565b6103a36106d4366004613abd565b611695565b3480156106e557600080fd5b506103bb60cc5481565b3480156106fb57600080fd5b506103bb61070a366004613927565b611f0f565b34801561071b57600080fd5b506103bb61072a366004613af2565b611f95565b34801561073b57600080fd5b5061074f61074a366004613b14565b61200e565b60405160ff9091168152602001610320565b34801561076d57600080fd5b506103a361077c3660046138cd565b6120c7565b34801561078d57600080fd5b506103a361079c366004613927565b6120f6565b3480156107ad57600080fd5b506107c16107bc3660046138cd565b612142565b60405161032099989796959493929190613b3f565b3480156107e257600080fd5b5061033e612294565b3480156107f757600080fd5b506103bb6108063660046138cd565b6122a3565b34801561081757600080fd5b506103a3610826366004613bd0565b6123ad565b34801561083757600080fd5b5060ca5461036b906001600160a01b031681565b34801561085757600080fd5b506103a3610866366004613c24565b6123b8565b34801561087757600080fd5b5061033e6108863660046138cd565b6123ea565b34801561089757600080fd5b506103bb7f000000000000000000000000000000000000000000000000000000000000000081565b3480156108cb57600080fd5b5061033e6108da3660046138cd565b6124f3565b3480156108eb57600080fd5b506103bb612559565b34801561090057600080fd5b5061031461090f366004613d03565b612761565b34801561092057600080fd5b506103a361092f366004613927565b61278f565b34801561094057600080fd5b506103a361094f3660046138cd565b6127db565b34801561096057600080fd5b506103bb7f000000000000000000000000000000000000000000000000000000000000000081565b34801561099457600080fd5b506103146109a3366004613927565b6001600160a01b0316600090815260ce602052604090205460ff1690565b3480156109cd57600080fd5b5060c95461036b906001600160a01b031681565b3480156109ed57600080fd5b506103bb7f000000000000000000000000000000000000000000000000000000000000000081565b60006001600160e01b0319821663780e9d6360e01b1480610a3a5750610a3a8261280a565b92915050565b606060658054610a4f90613d31565b80601f0160208091040260200160405190810160405280929190818152602001828054610a7b90613d31565b8015610ac85780601f10610a9d57610100808354040283529160200191610ac8565b820191906000526020600020905b815481529060010190602001808311610aab57829003601f168201915b5050505050905090565b6000610add8261285a565b506000908152606960205260409020546001600160a01b031690565b6000610b0482611635565b9050806001600160a01b0316836001600160a01b031603610b765760405162461bcd60e51b815260206004820152602160248201527f4552433732313a20617070726f76616c20746f2063757272656e74206f776e656044820152603960f91b60648201526084015b60405180910390fd5b336001600160a01b0382161480610b925750610b928133612761565b610c045760405162461bcd60e51b815260206004820152603d60248201527f4552433732313a20617070726f76652063616c6c6572206973206e6f7420746f60448201527f6b656e206f776e6572206f7220617070726f76656420666f7220616c6c0000006064820152608401610b6d565b610c0e83836128bc565b505050565b60d1547f000000000000000000000000000000000000000000000000000000000000000081108015610c6657507f000000000000000000000000000000000000000000000000000000000000000060d354105b610ca95760405162461bcd60e51b8152602060048201526014602482015273746f6b656e4964206f7574206f662072616e676560601b6044820152606401610b6d565b7f0000000000000000000000000000000000000000000000000000000000000000610cd360995490565b1115610d105760405162461bcd60e51b815260206004820152600c60248201526b4f7574206f662073746f636b60a01b6044820152606401610b6d565b33600090815260d2602052604090205463ffffffff7f00000000000000000000000000000000000000000000000000000000000000008116911610610dae5760405162461bcd60e51b815260206004820152602e60248201527f546865206d6178696d756d206e756d626572206f6620696e646976696475616c60448201526d1031b0b9ba34b733b99034b9901960911b6064820152608401610b6d565b33600090815260ce602052604090205460ff16610e0e5760cc543414610e0e5760405162461bcd60e51b81526020600482015260156024820152740a0c2f2dacadce840daeae6e840c4ca4062408aa89605b1b6044820152606401610b6d565b610e18338261292a565b60d354610e26906001613d81565b60d3556000610e33612559565b33600090815260d26020526040902054909150610e579063ffffffff166001613d94565b33600090815260d260205260408120805463ffffffff191663ffffffff93841617905560d1805460018181018355919092527f695fb3134ad82c3b8022bc5464edd0bcc9424ef672b52245dcb6ab2374327ce360049092029190910180546bffffffff000000000000ffff1916600160401b9386169390930261ffff191692909217176001600160c01b0316600160c01b436001600160401b031602178155610efe612ac3565b60018201556040805160008152602081019182905251610f229160038401916137e0565b50805465ffffffff00001916640300030000178155600080805260028201602052604090208054831790556000805b6009811015610f9d57600881901c6000908152600284016020526040902054600160ff83161b1615610f8b57610f88600183613d94565b91505b80610f9581613db8565b915050610f51565b50815463ffffffff909116600160601b0263ffffffff60601b199091161790555050565b60c9546001600160a01b03163314610feb5760405162461bcd60e51b8152600401610b6d90613dd1565b60cb80546001600160a01b0319166001600160a01b0392909216919091179055565b6110173382612b23565b6110335760405162461bcd60e51b8152600401610b6d90613dfe565b610c0e838383612b81565b60ca546001600160a01b031633146110685760405162461bcd60e51b8152600401610b6d90613e4b565b478111156110af5760405162461bcd60e51b8152602060048201526014602482015273496e73756666696369656e742062616c616e636560601b6044820152606401610b6d565b60ca546040516001600160a01b039091169082156108fc029083906000818181858888f193505050501580156110e9573d6000803e3d6000fd5b5050565b60006110f883611f0f565b821061115a5760405162461bcd60e51b815260206004820152602b60248201527f455243373231456e756d657261626c653a206f776e657220696e646578206f7560448201526a74206f6620626f756e647360a81b6064820152608401610b6d565b506001600160a01b03919091166000908152609760209081526040808320938352929052205490565b60c9546001600160a01b031633146111ad5760405162461bcd60e51b8152600401610b6d90613dd1565b60d4610c0e828483613ec4565b6060600060d183815481106111d1576111d1613f83565b9060005260206000209060040201905060006111ec84612cf2565b82549091506112049062010000900461ffff1661308a565b825461121b90640100000000900461ffff1661308a565b8260405160200161122e93929190613f99565b60405160208183030381529060405292505050919050565b610c0e838383604051806020016040528060008152506123b8565b600054610100900460ff16158080156112815750600054600160ff909116105b8061129b5750303b15801561129b575060005460ff166001145b6112fe5760405162461bcd60e51b815260206004820152602e60248201527f496e697469616c697a61626c653a20636f6e747261637420697320616c72656160448201526d191e481a5b9a5d1a585b1a5e995960921b6064820152608401610b6d565b6000805460ff191660011790558015611321576000805461ff0019166101001790555b60c980546001600160a01b0319163317905560408051808201909152601f81527f68747470733a2f2f6170692e63656c6c756c612e6c6966652f746f6b656e2f00602082015260d490611374908261400d565b506113e885858080601f01602080910402602001604051908101604052809392919081815260200183838082843760009201919091525050604080516020601f8901819004810282018101909252878152925087915086908190840183828082843760009201919091525061311a92505050565b801561142e576000805461ff0019169055604051600181527f7f26b83ff96e1f2b6a682f133852f6798a09c465da95921460cefb38474024989060200160405180910390a15b5050505050565b600061144060995490565b82106114a35760405162461bcd60e51b815260206004820152602c60248201527f455243373231456e756d657261626c653a20676c6f62616c20696e646578206f60448201526b7574206f6620626f756e647360a01b6064820152608401610b6d565b609982815481106114b6576114b6613f83565b90600052602060002001549050919050565b60008060d183815481106114de576114de613f83565b60009182526020909120600490910201805490915061ffff166001146115075750600092915050565b8054611531906601000000000000810461ffff1690600160801b90046001600160401b03166140cc565b6001600160401b03164310159392505050565b60cb546001600160a01b031633146115925760405162461bcd60e51b815260206004820152601160248201527043616c6c6572206973206e6f742043544f60781b6044820152606401610b6d565b600082828080602002602001604051908101604052809392919081815260200183836020028082843760009201829052509394505050505b815181101561162f57600160ce60008484815181106115eb576115eb613f83565b6020908102919091018101516001600160a01b03168252810191909152604001600020805460ff19169115159190911790558061162781613db8565b9150506115ca565b50505050565b6000818152606760205260408120546001600160a01b031680610a3a5760405162461bcd60e51b8152602060048201526018602482015277115490cdcc8c4e881a5b9d985b1a59081d1bdad95b88125160421b6044820152606401610b6d565b60cd543410156116df5760405162461bcd60e51b81526020600482015260156024820152740a0c2f2dacadce840daeae6e840c4ca4062408aa89605b1b6044820152606401610b6d565b7f000000000000000000000000000000000000000000000000000000000000000061170960995490565b11156117465760405162461bcd60e51b815260206004820152600c60248201526b4f7574206f662073746f636b60a01b6044820152606401610b6d565b60028110801590611758575060098111155b6117af5760405162461bcd60e51b815260206004820152602260248201527f596f752063616e206f6e6c792075736520322d3920636f6d62696e6174696f6e604482015261732160f01b6064820152608401610b6d565b60005b81811015611b1e5760008383838181106117ce576117ce613f83565b90506020028101906117e091906140ec565b60008181106117f1576117f1613f83565b905060200201359050600060d1828154811061180f5761180f613f83565b906000526020600020906004020190506118288261314b565b6118685760405162461bcd60e51b815260206004820152601160248201527024b73b30b634b21027232a1037bbb732b960791b6044820152606401610b6d565b805461188090600160401b900463ffffffff166114c8565b6118c15760405162461bcd60e51b81526020600482015260126024820152714e465420697320756e617661696c61626c6560701b6044820152606401610b6d565b600a8585858181106118d5576118d5613f83565b90506020028101906118e791906140ec565b60018181106118f8576118f8613f83565b905060200201351061193d5760405162461bcd60e51b815260206004820152600e60248201526d3837b9b4ba34b7b71032b93937b960911b6044820152606401610b6d565b600061194a846001613d81565b90505b84811015611b085785858281811061196757611967613f83565b905060200281019061197991906140ec565b600081811061198a5761198a613f83565b905060200201358686868181106119a3576119a3613f83565b90506020028101906119b591906140ec565b60008181106119c6576119c6613f83565b9050602002013503611a1a5760405162461bcd60e51b815260206004820152601760248201527f4475706c6963617465204e4654732064657465637465640000000000000000006044820152606401610b6d565b858582818110611a2c57611a2c613f83565b9050602002810190611a3e91906140ec565b6001818110611a4f57611a4f613f83565b90506020020135868686818110611a6857611a68613f83565b9050602002810190611a7a91906140ec565b6001818110611a8b57611a8b613f83565b9050602002013503611af65760405162461bcd60e51b815260206004820152602e60248201527f54776f204e4654732063616e6e6f7420626520706c6163656420696e2074686560448201526d1039b0b6b2903837b9b4ba34b7b760911b6064820152608401610b6d565b80611b0081613db8565b91505061194d565b5050508080611b1690613db8565b9150506117b2565b5060d180546001810182556000919091527f695fb3134ad82c3b8022bc5464edd0bcc9424ef672b52245dcb6ab2374327ce36004820201805460026bffffffff000000000000ffff19909116600160401b63ffffffff85160261ffff191617176001600160c01b0316600160c01b436001600160401b031602178155611ba2612ac3565b6001820155805465ffffffff000019166409000900001781556000805b84811015611df9576000868683818110611bdb57611bdb613f83565b9050602002810190611bed91906140ec565b6000818110611bfe57611bfe613f83565b905060200201359050600060d18281548110611c1c57611c1c613f83565b60009182526020808320600492909202909101805467ffffffffffffffff60801b1916600160801b436001600160401b0316021781556003880180546001810182559084529183209091018490559150888885818110611c7e57611c7e613f83565b9050602002810190611c9091906140ec565b6001818110611ca157611ca1613f83565b90506020020135905060006003600183611cbb9190614135565b611cc5919061415e565b611cd0906003614172565b905060006003611ce1600185614135565b611ceb9190614189565b611cf6906003614172565b6000808052600286016020526040812054919250600780831692600381811c83169360069290921c90921691611d2d866009614172565b611d379088613d81565b611d42906051614135565b611d4c9190614135565b600080805260028e0160205260409020805484831b1790559050611d946000611d76600984614135565b600091825260028f01602052604090912080549186901b9091179055565b611dc26000611da4601284614135565b600091825260028f01602052604090912080549187901b9091179055565b8754611ddb90600160601b900463ffffffff168c613d94565b9a505050505050505050508080611df190613db8565b915050611bbf565b50815463ffffffff60601b1916600160601b63ffffffff83160217825560005b84811015611f04576000868683818110611e3557611e35613f83565b9050602002810190611e4791906140ec565b6000818110611e5857611e58613f83565b905060200201359050600060d18281548110611e7657611e76613f83565b906000526020600020906004020190507f000000000000000000000000000000000000000000000000000000000000000084600f611eb4919061419d565b611ebf90603c61419d565b63ffffffff16611ecf9190614189565b815461ffff9190911666010000000000000267ffff000000000000199091161790555080611efc81613db8565b915050611e19565b5061142e338461292a565b60006001600160a01b038216611f795760405162461bcd60e51b815260206004820152602960248201527f4552433732313a2061646472657373207a65726f206973206e6f7420612076616044820152683634b21037bbb732b960b91b6064820152608401610b6d565b506001600160a01b031660009081526068602052604090205490565b60008060d18481548110611fab57611fab613f83565b906000526020600020906004020190506000838260010154611fcc876123ea565b604051602001611fde939291906141c5565b60408051601f19818403018152919052805160209091012090508061200460028261415e565b9695505050505050565b600080805b60098110156120795780600414158015612054575083816009811061203a5761203a613f83565b60200201602081019061204d91906141f2565b60ff166001145b1561206757612064600183614215565b91505b8061207181613db8565b915050612013565b508060ff1660020361209c5761209560a08401608085016141f2565b9392505050565b60018160ff161115806120b3575060048160ff1610155b6120be576001612095565b60009392505050565b60ca546001600160a01b031633146120f15760405162461bcd60e51b8152600401610b6d90613e4b565b60cd55565b60c9546001600160a01b031633146121205760405162461bcd60e51b8152600401610b6d90613dd1565b60c980546001600160a01b0319166001600160a01b0392909216919091179055565b600080606060008060008060006060600060d18b8154811061216657612166613f83565b906000526020600020906004020190508060000160029054906101000a900461ffff1661ffff1699508060000160049054906101000a900461ffff1661ffff1698508060000160009054906101000a900461ffff1696508060000160069054906101000a900461ffff1661ffff1695508060000160189054906101000a90046001600160401b03166001600160401b031694508060030180548060200260200160405190810160405280929190818152602001828054801561224757602002820191906000526020600020905b815481526020019060010190808311612233575b50508454600160601b900463ffffffff16975092945061226c92508d9150612cf29050565b9054999b989a5098959794965092949193600160801b9092046001600160401b031692919050565b606060668054610a4f90613d31565b6000818152606760205260408120546001600160a01b03166123075760405162461bcd60e51b815260206004820152601a60248201527f54686520746f6b656e494420646f6573206e6f742065786973740000000000006044820152606401610b6d565b600060d1838154811061231c5761231c613f83565b600091825260208220600490910201546001600160401b03600160c01b90910416915063ffffffff7f0000000000000000000000000000000000000000000000000000000000000000167f00000000000000000000000000000000000000000000000000000000000000006123918443614135565b61239b9190614172565b6123a59190614189565b949350505050565b6110e9338383613196565b6123c23383612b23565b6123de5760405162461bcd60e51b8152600401610b6d90613dfe565b61162f84848484613264565b6060600060d1838154811061240157612401613f83565b6000918252602082206004909102018054909250606091906124379061ffff64010000000082048116916201000090041661422e565b61ffff169050805b80156124e157600061247c612455600184614135565b600881901c6000908152600288016020526040902054600160ff9092169190911b16151590565b905080156124ab5783604051602001612495919061424c565b60405160208183030381529060405293506124ce565b836040516020016124bc9190614271565b60405160208183030381529060405293505b50806124d981614296565b91505061243f565b506124eb82613297565b509392505050565b60606124fe8261285a565b60006125086132da565b905060008151116125285760405180602001604052806000815250612095565b806125328461308a565b6040516020016125439291906142ad565b6040516020818303038152906040529392505050565b600080423360405160200161258a92919091825260601b6bffffffffffffffffffffffff1916602082015260340190565b6040516020818303038152906040528051906020012060001c905060005b7f000000000000000000000000000000000000000000000000000000000000000081101561266f5760007f00000000000000000000000000000000000000000000000000000000000000006125fd8385613d81565b612607919061415e565b600881901c600090815260d06020526040902054909150600160ff83161b1661265c57600881901c600090815260d0602052604090208054600160ff84161b179055612654816001613d81565b935050505090565b508061266781613db8565b9150506125a8565b507f000000000000000000000000000000000000000000000000000000000000000060cf5410156127155760d060205260007f790dca8aa28f25f1915553dd78bb1fae41686aabbb62ea6516ab2cafb7d2589981905560018082527f77f2c0ceb108931ae1752982c6028a6c43603b39c3741036378ca346c959252982905560cf805491929091612701908490613d81565b9091555061270f9050612559565b91505090565b60405162461bcd60e51b815260206004820152601a60248201527f416c6c206e756d626572732068617665206265656e20757365640000000000006044820152606401610b6d565b5090565b6001600160a01b039182166000908152606a6020908152604080832093909416825291909152205460ff1690565b60c9546001600160a01b031633146127b95760405162461bcd60e51b8152600401610b6d90613dd1565b60ca80546001600160a01b0319166001600160a01b0392909216919091179055565b60ca546001600160a01b031633146128055760405162461bcd60e51b8152600401610b6d90613e4b565b60cc55565b60006001600160e01b031982166380ac58cd60e01b148061283b57506001600160e01b03198216635b5e139f60e01b145b80610a3a57506301ffc9a760e01b6001600160e01b0319831614610a3a565b6000818152606760205260409020546001600160a01b03166128b95760405162461bcd60e51b8152602060048201526018602482015277115490cdcc8c4e881a5b9d985b1a59081d1bdad95b88125160421b6044820152606401610b6d565b50565b600081815260696020526040902080546001600160a01b0319166001600160a01b03841690811790915581906128f182611635565b6001600160a01b03167f8c5be1e5ebec7d5bd14f71427d1e84f3dd0314c0f7b2291e5b200ac8c7c3b92560405160405180910390a45050565b6001600160a01b0382166129805760405162461bcd60e51b815260206004820181905260248201527f4552433732313a206d696e7420746f20746865207a65726f20616464726573736044820152606401610b6d565b6000818152606760205260409020546001600160a01b0316156129e55760405162461bcd60e51b815260206004820152601c60248201527f4552433732313a20746f6b656e20616c7265616479206d696e746564000000006044820152606401610b6d565b6129f36000838360016132e9565b6000818152606760205260409020546001600160a01b031615612a585760405162461bcd60e51b815260206004820152601c60248201527f4552433732313a20746f6b656e20616c7265616479206d696e746564000000006044820152606401610b6d565b6001600160a01b038216600081815260686020908152604080832080546001019055848352606790915280822080546001600160a01b0319168417905551839291907fddf252ad1be2c89b69c2b068fc378daa952ba7f163c4a11628f55a4df523b3ef908290a45050565b60004333612ad2600142614135565b40604051602001612b089392919092835260609190911b6bffffffffffffffffffffffff19166020830152603482015260540190565b60405160208183030381529060405280519060200120905090565b600080612b2f83611635565b9050806001600160a01b0316846001600160a01b03161480612b565750612b568185612761565b806123a55750836001600160a01b0316612b6f84610ad2565b6001600160a01b031614949350505050565b826001600160a01b0316612b9482611635565b6001600160a01b031614612bba5760405162461bcd60e51b8152600401610b6d906142dc565b6001600160a01b038216612c1c5760405162461bcd60e51b8152602060048201526024808201527f4552433732313a207472616e7366657220746f20746865207a65726f206164646044820152637265737360e01b6064820152608401610b6d565b612c2983838360016132e9565b826001600160a01b0316612c3c82611635565b6001600160a01b031614612c625760405162461bcd60e51b8152600401610b6d906142dc565b600081815260696020908152604080832080546001600160a01b03199081169091556001600160a01b0387811680865260688552838620805460001901905590871680865283862080546001019055868652606790945282852080549092168417909155905184937fddf252ad1be2c89b69c2b068fc378daa952ba7f163c4a11628f55a4df523b3ef91a4505050565b6060600060d18381548110612d0957612d09613f83565b600091825260208220600490910201805490925061ffff6201000082048116926401000000009092041690816001600160401b03811115612d4c57612d4c613c0e565b604051908082528060200260200182016040528015612d7f57816020015b6060815260200190600190039081612d6a5790505b50905060005b82811015612ec257836001600160401b03811115612da557612da5613c0e565b604051908082528060200260200182016040528015612dce578160200160208202803683370190505b50828281518110612de157612de1613f83565b602002602001018190525060005b84811015612eaf57612e56600182612e078886614172565b612e119190613d81565b612e1b8789614172565b612e259190614135565b612e2f9190614135565b600881901c6000908152600289016020526040902054600160ff9092169190911b16151590565b612e61576000612e64565b60015b60ff16838381518110612e7957612e79613f83565b60200260200101518281518110612e9257612e92613f83565b602090810291909101015280612ea781613db8565b915050612def565b5080612eba81613db8565b915050612d85565b50604080516020810190915260008082525b8381101561307f576000838281518110612ef057612ef0613f83565b6020026020010151600081518110612f0a57612f0a613f83565b602002602001015190506000805b87811015612ffa576000868581518110612f3457612f34613f83565b60200260200101518281518110612f4d57612f4d613f83565b60200260200101519050838103612f705782612f6881613db8565b935050612fe7565b85612f7a8461308a565b85600114612fa157604051806040016040528060018152602001603160f91b815250612fbc565b604051806040016040528060018152602001606f60f81b8152505b604051602001612fce93929190614321565b6040516020818303038152906040529550809350600192505b5080612ff281613db8565b915050612f18565b50836130058261308a565b8360011461302c57604051806040016040528060018152602001603160f91b815250613047565b604051806040016040528060018152602001606f60f81b8152505b60405160200161305993929190614364565b60405160208183030381529060405293505050808061307790613db8565b915050612ed4565b509695505050505050565b6060600061309783613416565b60010190506000816001600160401b038111156130b6576130b6613c0e565b6040519080825280601f01601f1916602001820160405280156130e0576020820181803683370190505b5090508181016020015b600019016f181899199a1a9b1b9c1cb0b131b232b360811b600a86061a8153600a8504945084156124eb576130ea565b600054610100900460ff166131415760405162461bcd60e51b8152600401610b6d906143b3565b6110e982826134ee565b60008061315783611635565b9050336001600160a01b038216036131725750600192915050565b3361317c84610ad2565b6001600160a01b0316148061209557506120958133612761565b816001600160a01b0316836001600160a01b0316036131f75760405162461bcd60e51b815260206004820152601960248201527f4552433732313a20617070726f766520746f2063616c6c6572000000000000006044820152606401610b6d565b6001600160a01b038381166000818152606a6020908152604080832094871680845294825291829020805460ff191686151590811790915591519182527f17307eab39ab6107e8899845ad3d59bd9653f200f220920489ca2b5937696c31910160405180910390a3505050565b61326f848484612b81565b61327b8484848461352e565b61162f5760405162461bcd60e51b8152600401610b6d906143fe565b6128b9816040516024016132ab91906138ba565b60408051601f198184030181529190526020810180516001600160e01b031663104c13eb60e21b17905261362f565b606060d48054610a4f90613d31565b60018111156133585760405162461bcd60e51b815260206004820152603560248201527f455243373231456e756d657261626c653a20636f6e7365637574697665207472604482015274185b9cd9995c9cc81b9bdd081cdd5c1c1bdc9d1959605a1b6064820152608401610b6d565b816001600160a01b0385166133b4576133af81609980546000838152609a60205260408120829055600182018355919091527f72a152ddfb8e864297c917af52ea6c1c68aead0fee1a62673fcc7e0c94979d000155565b6133d7565b836001600160a01b0316856001600160a01b0316146133d7576133d78582613650565b6001600160a01b0384166133f3576133ee816136ed565b61142e565b846001600160a01b0316846001600160a01b03161461142e5761142e848261379c565b60008072184f03e93ff9f4daa797ed6e38ed64bf6a1f0160401b83106134555772184f03e93ff9f4daa797ed6e38ed64bf6a1f0160401b830492506040015b6d04ee2d6d415b85acef81000000008310613481576d04ee2d6d415b85acef8100000000830492506020015b662386f26fc10000831061349f57662386f26fc10000830492506010015b6305f5e10083106134b7576305f5e100830492506008015b61271083106134cb57612710830492506004015b606483106134dd576064830492506002015b600a8310610a3a5760010192915050565b600054610100900460ff166135155760405162461bcd60e51b8152600401610b6d906143b3565b6065613521838261400d565b506066610c0e828261400d565b60006001600160a01b0384163b1561362457604051630a85bd0160e11b81526001600160a01b0385169063150b7a0290613572903390899088908890600401614450565b6020604051808303816000875af19250505080156135ad575060408051601f3d908101601f191682019092526135aa91810190614483565b60015b61360a573d8080156135db576040519150601f19603f3d011682016040523d82523d6000602084013e6135e0565b606091505b5080516000036136025760405162461bcd60e51b8152600401610b6d906143fe565b805181602001fd5b6001600160e01b031916630a85bd0160e11b1490506123a5565b506001949350505050565b80516a636f6e736f6c652e6c6f67602083016000808483855afa5050505050565b6000600161365d84611f0f565b6136679190614135565b6000838152609860205260409020549091508082146136ba576001600160a01b03841660009081526097602090815260408083208584528252808320548484528184208190558352609890915290208190555b5060009182526098602090815260408084208490556001600160a01b039094168352609781528383209183525290812055565b6099546000906136ff90600190614135565b6000838152609a60205260408120546099805493945090928490811061372757613727613f83565b90600052602060002001549050806099838154811061374857613748613f83565b6000918252602080832090910192909255828152609a90915260408082208490558582528120556099805480613780576137806144a0565b6001900381819060005260206000200160009055905550505050565b60006137a783611f0f565b6001600160a01b039093166000908152609760209081526040808320868452825280832085905593825260989052919091209190915550565b82805482825590600052602060002090810192821561381b579160200282015b8281111561381b578251825591602001919060010190613800565b5061275d9291505b8082111561275d5760008155600101613823565b6001600160e01b0319811681146128b957600080fd5b60006020828403121561385f57600080fd5b813561209581613837565b60005b8381101561388557818101518382015260200161386d565b50506000910152565b600081518084526138a681602086016020860161386a565b601f01601f19169290920160200192915050565b602081526000612095602083018461388e565b6000602082840312156138df57600080fd5b5035919050565b6001600160a01b03811681146128b957600080fd5b6000806040838503121561390e57600080fd5b8235613919816138e6565b946020939093013593505050565b60006020828403121561393957600080fd5b8135612095816138e6565b60008060006060848603121561395957600080fd5b8335613964816138e6565b92506020840135613974816138e6565b929592945050506040919091013590565b60008083601f84011261399757600080fd5b5081356001600160401b038111156139ae57600080fd5b6020830191508360208285010111156139c657600080fd5b9250929050565b600080602083850312156139e057600080fd5b82356001600160401b038111156139f657600080fd5b613a0285828601613985565b90969095509350505050565b60008060008060408587031215613a2457600080fd5b84356001600160401b0380821115613a3b57600080fd5b613a4788838901613985565b90965094506020870135915080821115613a6057600080fd5b50613a6d87828801613985565b95989497509550505050565b60008083601f840112613a8b57600080fd5b5081356001600160401b03811115613aa257600080fd5b6020830191508360208260051b85010111156139c657600080fd5b60008060208385031215613ad057600080fd5b82356001600160401b03811115613ae657600080fd5b613a0285828601613a79565b60008060408385031215613b0557600080fd5b50508035926020909101359150565b6000610120808385031215613b2857600080fd5b838184011115613b3757600080fd5b509092915050565b60006101208b835260208b81850152816040850152613b608285018c61388e565b915061ffff8a1660608501528860808501528760a08501528660c08501528560e08501528382036101008501528185518084528284019150828701935060005b81811015613bbc57845183529383019391830191600101613ba0565b50909e9d5050505050505050505050505050565b60008060408385031215613be357600080fd5b8235613bee816138e6565b915060208301358015158114613c0357600080fd5b809150509250929050565b634e487b7160e01b600052604160045260246000fd5b60008060008060808587031215613c3a57600080fd5b8435613c45816138e6565b93506020850135613c55816138e6565b92506040850135915060608501356001600160401b0380821115613c7857600080fd5b818701915087601f830112613c8c57600080fd5b813581811115613c9e57613c9e613c0e565b604051601f8201601f19908116603f01168101908382118183101715613cc657613cc6613c0e565b816040528281528a6020848701011115613cdf57600080fd5b82602086016020830137600060208483010152809550505050505092959194509250565b60008060408385031215613d1657600080fd5b8235613d21816138e6565b91506020830135613c03816138e6565b600181811c90821680613d4557607f821691505b602082108103613d6557634e487b7160e01b600052602260045260246000fd5b50919050565b634e487b7160e01b600052601160045260246000fd5b80820180821115610a3a57610a3a613d6b565b63ffffffff818116838216019080821115613db157613db1613d6b565b5092915050565b600060018201613dca57613dca613d6b565b5060010190565b60208082526013908201527221b0b63632b91034b9903737ba1020b236b4b760691b604082015260600190565b6020808252602d908201527f4552433732313a2063616c6c6572206973206e6f7420746f6b656e206f776e6560408201526c1c881bdc88185c1c1c9bdd9959609a1b606082015260800190565b60208082526011908201527043616c6c6572206973206e6f7420434f4f60781b604082015260600190565b601f821115610c0e57600081815260208120601f850160051c81016020861015613e9d5750805b601f850160051c820191505b81811015613ebc57828155600101613ea9565b505050505050565b6001600160401b03831115613edb57613edb613c0e565b613eef83613ee98354613d31565b83613e76565b6000601f841160018114613f235760008515613f0b5750838201355b600019600387901b1c1916600186901b17835561142e565b600083815260209020601f19861690835b82811015613f545786850135825560209485019460019092019101613f34565b5086821015613f715760001960f88860031b161c19848701351681555b505060018560011b0183555050505050565b634e487b7160e01b600052603260045260246000fd5b6303c101e960e51b815260008451613fb881600485016020890161386a565b65016103c901e960d51b6004918401918201528451613fde81600a84016020890161386a565b600560f91b600a9290910191820152835161400081600b84016020880161386a565b01600b0195945050505050565b81516001600160401b0381111561402657614026613c0e565b61403a816140348454613d31565b84613e76565b602080601f83116001811461406f57600084156140575750858301515b600019600386901b1c1916600185901b178555613ebc565b600085815260208120601f198616915b8281101561409e5788860151825594840194600190910190840161407f565b50858210156140bc5787850151600019600388901b60f8161c191681555b5050505050600190811b01905550565b6001600160401b03818116838216019080821115613db157613db1613d6b565b6000808335601e1984360301811261410357600080fd5b8301803591506001600160401b0382111561411d57600080fd5b6020019150600581901b36038213156139c657600080fd5b81810381811115610a3a57610a3a613d6b565b634e487b7160e01b600052601260045260246000fd5b60008261416d5761416d614148565b500690565b8082028115828204841417610a3a57610a3a613d6b565b60008261419857614198614148565b500490565b63ffffffff8181168382160280821691908281146141bd576141bd613d6b565b505092915050565b838152826020820152600082516141e381604085016020870161386a565b91909101604001949350505050565b60006020828403121561420457600080fd5b813560ff8116811461209557600080fd5b60ff8181168382160190811115610a3a57610a3a613d6b565b61ffff8181168382160280821691908281146141bd576141bd613d6b565b6000825161425e81846020870161386a565b603160f81b920191825250600101919050565b6000825161428381846020870161386a565b600360fc1b920191825250600101919050565b6000816142a5576142a5613d6b565b506000190190565b600083516142bf81846020880161386a565b8351908301906142d381836020880161386a565b01949350505050565b60208082526025908201527f4552433732313a207472616e736665722066726f6d20696e636f72726563742060408201526437bbb732b960d91b606082015260800190565b6000845161433381846020890161386a565b84519083019061434781836020890161386a565b845191019061435a81836020880161386a565b0195945050505050565b6000845161437681846020890161386a565b84519083019061438a81836020890161386a565b845191019061439d81836020880161386a565b600960fa1b910190815260010195945050505050565b6020808252602b908201527f496e697469616c697a61626c653a20636f6e7472616374206973206e6f74206960408201526a6e697469616c697a696e6760a81b606082015260800190565b60208082526032908201527f4552433732313a207472616e7366657220746f206e6f6e20455243373231526560408201527131b2b4bb32b91034b6b83632b6b2b73a32b960711b606082015260800190565b6001600160a01b03858116825284166020820152604081018390526080606082018190526000906120049083018461388e565b60006020828403121561449557600080fd5b815161209581613837565b634e487b7160e01b600052603160045260246000fdfea2646970667358221220f38b591bfae8a78151e52099462a581b6d9b8a1f5837124988303cf742efae6664736f6c63430008120033",
			"opcodes": "PUSH2 0x180 PUSH1 0x40 MSTORE PUSH1 0x0 PUSH1 0xCC DUP2 SWAP1 SSTORE PUSH1 0xCD DUP2 SWAP1 SSTORE PUSH1 0xA PUSH1 0x80 MSTORE PUSH1 0xCF DUP2 SWAP1 SSTORE PUSH2 0xC79C PUSH1 0xA0 MSTORE PUSH2 0x1FF PUSH1 0xC0 DUP2 SWAP1 MSTORE PUSH1 0xE0 MSTORE PUSH2 0x13F6 PUSH2 0x100 MSTORE PUSH1 0x2 PUSH2 0x120 MSTORE PUSH2 0x384 PUSH2 0x140 MSTORE PUSH2 0x1450 PUSH2 0x160 MSTORE PUSH1 0xD3 SSTORE CALLVALUE DUP1 ISZERO PUSH2 0x56 JUMPI PUSH1 0x0 DUP1 REVERT JUMPDEST POP PUSH1 0x80 MLOAD PUSH1 0xA0 MLOAD PUSH1 0xC0 MLOAD PUSH1 0xE0 MLOAD PUSH2 0x100 MLOAD PUSH2 0x120 MLOAD PUSH2 0x140 MLOAD PUSH2 0x160 MLOAD PUSH2 0x44EC PUSH2 0xFB PUSH1 0x0 CODECOPY PUSH1 0x0 DUP2 DUP2 PUSH2 0x561 ADD MSTORE PUSH2 0xD27 ADD MSTORE PUSH1 0x0 DUP2 DUP2 PUSH2 0x3F8 ADD MSTORE PUSH2 0x2346 ADD MSTORE PUSH1 0x0 DUP2 DUP2 PUSH2 0x966 ADD MSTORE DUP2 DUP2 PUSH2 0x1E88 ADD MSTORE PUSH2 0x2368 ADD MSTORE PUSH1 0x0 DUP2 DUP2 PUSH2 0x89D ADD MSTORE PUSH2 0xC42 ADD MSTORE PUSH1 0x0 PUSH2 0x9F3 ADD MSTORE PUSH1 0x0 DUP2 DUP2 PUSH2 0x25AA ADD MSTORE PUSH2 0x25D4 ADD MSTORE PUSH1 0x0 DUP2 DUP2 PUSH2 0x52D ADD MSTORE DUP2 DUP2 PUSH2 0xC18 ADD MSTORE DUP2 DUP2 PUSH2 0xCAB ADD MSTORE PUSH2 0x16E1 ADD MSTORE PUSH1 0x0 PUSH2 0x2672 ADD MSTORE PUSH2 0x44EC PUSH1 0x0 RETURN INVALID PUSH1 0x80 PUSH1 0x40 MSTORE PUSH1 0x4 CALLDATASIZE LT PUSH2 0x2E8 JUMPI PUSH1 0x0 CALLDATALOAD PUSH1 0xE0 SHR DUP1 PUSH4 0x5F1A360A GT PUSH2 0x190 JUMPI DUP1 PUSH4 0xB047FB50 GT PUSH2 0xDC JUMPI DUP1 PUSH4 0xE985E9C5 GT PUSH2 0x95 JUMPI DUP1 PUSH4 0xF9301910 GT PUSH2 0x6F JUMPI DUP1 PUSH4 0xF9301910 EQ PUSH2 0x954 JUMPI DUP1 PUSH4 0xF99031A7 EQ PUSH2 0x988 JUMPI DUP1 PUSH4 0xFC6F9468 EQ PUSH2 0x9C1 JUMPI DUP1 PUSH4 0xFEA9B572 EQ PUSH2 0x9E1 JUMPI PUSH1 0x0 DUP1 REVERT JUMPDEST DUP1 PUSH4 0xE985E9C5 EQ PUSH2 0x8F4 JUMPI DUP1 PUSH4 0xF364FF5F EQ PUSH2 0x914 JUMPI DUP1 PUSH4 0xF4A0A528 EQ PUSH2 0x934 JUMPI PUSH1 0x0 DUP1 REVERT JUMPDEST DUP1 PUSH4 0xB047FB50 EQ PUSH2 0x82B JUMPI DUP1 PUSH4 0xB88D4FDE EQ PUSH2 0x84B JUMPI DUP1 PUSH4 0xB9AC62F5 EQ PUSH2 0x86B JUMPI DUP1 PUSH4 0xBB8A16BD EQ PUSH2 0x88B JUMPI DUP1 PUSH4 0xC87B56DD EQ PUSH2 0x8BF JUMPI DUP1 PUSH4 0xDBDFF2C1 EQ PUSH2 0x8DF JUMPI PUSH1 0x0 DUP1 REVERT JUMPDEST DUP1 PUSH4 0x7C772596 GT PUSH2 0x149 JUMPI DUP1 PUSH4 0x944B1B21 GT PUSH2 0x123 JUMPI DUP1 PUSH4 0x944B1B21 EQ PUSH2 0x7A1 JUMPI DUP1 PUSH4 0x95D89B41 EQ PUSH2 0x7D6 JUMPI DUP1 PUSH4 0x9E2591DD EQ PUSH2 0x7EB JUMPI DUP1 PUSH4 0xA22CB465 EQ PUSH2 0x80B JUMPI PUSH1 0x0 DUP1 REVERT JUMPDEST DUP1 PUSH4 0x7C772596 EQ PUSH2 0x72F JUMPI DUP1 PUSH4 0x80E15F76 EQ PUSH2 0x761 JUMPI DUP1 PUSH4 0x8F283970 EQ PUSH2 0x781 JUMPI PUSH1 0x0 DUP1 REVERT JUMPDEST DUP1 PUSH4 0x5F1A360A EQ PUSH2 0x673 JUMPI DUP1 PUSH4 0x6352211E EQ PUSH2 0x6A6 JUMPI DUP1 PUSH4 0x67C8FBD4 EQ PUSH2 0x6C6 JUMPI DUP1 PUSH4 0x6817C76C EQ PUSH2 0x6D9 JUMPI DUP1 PUSH4 0x70A08231 EQ PUSH2 0x6EF JUMPI DUP1 PUSH4 0x79340B43 EQ PUSH2 0x70F JUMPI PUSH1 0x0 DUP1 REVERT JUMPDEST DUP1 PUSH4 0x2CAB00DE GT PUSH2 0x24F JUMPI DUP1 PUSH4 0x372C12B1 GT PUSH2 0x208 JUMPI DUP1 PUSH4 0x4CD88B76 GT PUSH2 0x1E2 JUMPI DUP1 PUSH4 0x4CD88B76 EQ PUSH2 0x5F3 JUMPI DUP1 PUSH4 0x4F6CCCE7 EQ PUSH2 0x613 JUMPI DUP1 PUSH4 0x58B86CB3 EQ PUSH2 0x633 JUMPI DUP1 PUSH4 0x5E1045EC EQ PUSH2 0x653 JUMPI PUSH1 0x0 DUP1 REVERT JUMPDEST DUP1 PUSH4 0x372C12B1 EQ PUSH2 0x583 JUMPI DUP1 PUSH4 0x3C3A8746 EQ PUSH2 0x5B3 JUMPI DUP1 PUSH4 0x42842E0E EQ PUSH2 0x5D3 JUMPI PUSH1 0x0 DUP1 REVERT JUMPDEST DUP1 PUSH4 0x2CAB00DE EQ PUSH2 0x4A5 JUMPI DUP1 PUSH4 0x2E1A7D4D EQ PUSH2 0x4BB JUMPI DUP1 PUSH4 0x2F745C59 EQ PUSH2 0x4DB JUMPI DUP1 PUSH4 0x2FE24D36 EQ PUSH2 0x4FB JUMPI DUP1 PUSH4 0x32CB6B0C EQ PUSH2 0x51B JUMPI DUP1 PUSH4 0x35B8D98A EQ PUSH2 0x54F JUMPI PUSH1 0x0 DUP1 REVERT JUMPDEST DUP1 PUSH4 0x18160DDD GT PUSH2 0x2A1 JUMPI DUP1 PUSH4 0x18160DDD EQ PUSH2 0x3D1 JUMPI DUP1 PUSH4 0x1AE52519 EQ PUSH2 0x3E6 JUMPI DUP1 PUSH4 0x1F513660 EQ PUSH2 0x42F JUMPI DUP1 PUSH4 0x226C8EC1 EQ PUSH2 0x44F JUMPI DUP1 PUSH4 0x23B872DD EQ PUSH2 0x46F JUMPI DUP1 PUSH4 0x2690B665 EQ PUSH2 0x48F JUMPI PUSH1 0x0 DUP1 REVERT JUMPDEST DUP1 PUSH4 0x1FFC9A7 EQ PUSH2 0x2F4 JUMPI DUP1 PUSH4 0x6FDDE03 EQ PUSH2 0x329 JUMPI DUP1 PUSH4 0x81812FC EQ PUSH2 0x34B JUMPI DUP1 PUSH4 0x95EA7B3 EQ PUSH2 0x383 JUMPI DUP1 PUSH4 0xD113473 EQ PUSH2 0x3A5 JUMPI DUP1 PUSH4 0x1249C58B EQ PUSH2 0x3C9 JUMPI PUSH1 0x0 DUP1 REVERT JUMPDEST CALLDATASIZE PUSH2 0x2EF JUMPI STOP JUMPDEST PUSH1 0x0 DUP1 REVERT JUMPDEST CALLVALUE DUP1 ISZERO PUSH2 0x300 JUMPI PUSH1 0x0 DUP1 REVERT JUMPDEST POP PUSH2 0x314 PUSH2 0x30F CALLDATASIZE PUSH1 0x4 PUSH2 0x384D JUMP JUMPDEST PUSH2 0xA15 JUMP JUMPDEST PUSH1 0x40 MLOAD SWAP1 ISZERO ISZERO DUP2 MSTORE PUSH1 0x20 ADD JUMPDEST PUSH1 0x40 MLOAD DUP1 SWAP2 SUB SWAP1 RETURN JUMPDEST CALLVALUE DUP1 ISZERO PUSH2 0x335 JUMPI PUSH1 0x0 DUP1 REVERT JUMPDEST POP PUSH2 0x33E PUSH2 0xA40 JUMP JUMPDEST PUSH1 0x40 MLOAD PUSH2 0x320 SWAP2 SWAP1 PUSH2 0x38BA JUMP JUMPDEST CALLVALUE DUP1 ISZERO PUSH2 0x357 JUMPI PUSH1 0x0 DUP1 REVERT JUMPDEST POP PUSH2 0x36B PUSH2 0x366 CALLDATASIZE PUSH1 0x4 PUSH2 0x38CD JUMP JUMPDEST PUSH2 0xAD2 JUMP JUMPDEST PUSH1 0x40 MLOAD PUSH1 0x1 PUSH1 0x1 PUSH1 0xA0 SHL SUB SWAP1 SWAP2 AND DUP2 MSTORE PUSH1 0x20 ADD PUSH2 0x320 JUMP JUMPDEST CALLVALUE DUP1 ISZERO PUSH2 0x38F JUMPI PUSH1 0x0 DUP1 REVERT JUMPDEST POP PUSH2 0x3A3 PUSH2 0x39E CALLDATASIZE PUSH1 0x4 PUSH2 0x38FB JUMP JUMPDEST PUSH2 0xAF9 JUMP JUMPDEST STOP JUMPDEST CALLVALUE DUP1 ISZERO PUSH2 0x3B1 JUMPI PUSH1 0x0 DUP1 REVERT JUMPDEST POP PUSH2 0x3BB PUSH1 0xD3 SLOAD DUP2 JUMP JUMPDEST PUSH1 0x40 MLOAD SWAP1 DUP2 MSTORE PUSH1 0x20 ADD PUSH2 0x320 JUMP JUMPDEST PUSH2 0x3A3 PUSH2 0xC13 JUMP JUMPDEST CALLVALUE DUP1 ISZERO PUSH2 0x3DD JUMPI PUSH1 0x0 DUP1 REVERT JUMPDEST POP PUSH1 0x99 SLOAD PUSH2 0x3BB JUMP JUMPDEST CALLVALUE DUP1 ISZERO PUSH2 0x3F2 JUMPI PUSH1 0x0 DUP1 REVERT JUMPDEST POP PUSH2 0x41A PUSH32 0x0 DUP2 JUMP JUMPDEST PUSH1 0x40 MLOAD PUSH4 0xFFFFFFFF SWAP1 SWAP2 AND DUP2 MSTORE PUSH1 0x20 ADD PUSH2 0x320 JUMP JUMPDEST CALLVALUE DUP1 ISZERO PUSH2 0x43B JUMPI PUSH1 0x0 DUP1 REVERT JUMPDEST POP PUSH1 0xCB SLOAD PUSH2 0x36B SWAP1 PUSH1 0x1 PUSH1 0x1 PUSH1 0xA0 SHL SUB AND DUP2 JUMP JUMPDEST CALLVALUE DUP1 ISZERO PUSH2 0x45B JUMPI PUSH1 0x0 DUP1 REVERT JUMPDEST POP PUSH2 0x3A3 PUSH2 0x46A CALLDATASIZE PUSH1 0x4 PUSH2 0x3927 JUMP JUMPDEST PUSH2 0xFC1 JUMP JUMPDEST CALLVALUE DUP1 ISZERO PUSH2 0x47B JUMPI PUSH1 0x0 DUP1 REVERT JUMPDEST POP PUSH2 0x3A3 PUSH2 0x48A CALLDATASIZE PUSH1 0x4 PUSH2 0x3944 JUMP JUMPDEST PUSH2 0x100D JUMP JUMPDEST CALLVALUE DUP1 ISZERO PUSH2 0x49B JUMPI PUSH1 0x0 DUP1 REVERT JUMPDEST POP PUSH2 0x3BB PUSH1 0xCF SLOAD DUP2 JUMP JUMPDEST CALLVALUE DUP1 ISZERO PUSH2 0x4B1 JUMPI PUSH1 0x0 DUP1 REVERT JUMPDEST POP PUSH2 0x3BB PUSH1 0xCD SLOAD DUP2 JUMP JUMPDEST CALLVALUE DUP1 ISZERO PUSH2 0x4C7 JUMPI PUSH1 0x0 DUP1 REVERT JUMPDEST POP PUSH2 0x3A3 PUSH2 0x4D6 CALLDATASIZE PUSH1 0x4 PUSH2 0x38CD JUMP JUMPDEST PUSH2 0x103E JUMP JUMPDEST CALLVALUE DUP1 ISZERO PUSH2 0x4E7 JUMPI PUSH1 0x0 DUP1 REVERT JUMPDEST POP PUSH2 0x3BB PUSH2 0x4F6 CALLDATASIZE PUSH1 0x4 PUSH2 0x38FB JUMP JUMPDEST PUSH2 0x10ED JUMP JUMPDEST CALLVALUE DUP1 ISZERO PUSH2 0x507 JUMPI PUSH1 0x0 DUP1 REVERT JUMPDEST POP PUSH2 0x3A3 PUSH2 0x516 CALLDATASIZE PUSH1 0x4 PUSH2 0x39CD JUMP JUMPDEST PUSH2 0x1183 JUMP JUMPDEST CALLVALUE DUP1 ISZERO PUSH2 0x527 JUMPI PUSH1 0x0 DUP1 REVERT JUMPDEST POP PUSH2 0x3BB PUSH32 0x0 DUP2 JUMP JUMPDEST CALLVALUE DUP1 ISZERO PUSH2 0x55B JUMPI PUSH1 0x0 DUP1 REVERT JUMPDEST POP PUSH2 0x41A PUSH32 0x0 DUP2 JUMP JUMPDEST CALLVALUE DUP1 ISZERO PUSH2 0x58F JUMPI PUSH1 0x0 DUP1 REVERT JUMPDEST POP PUSH2 0x314 PUSH2 0x59E CALLDATASIZE PUSH1 0x4 PUSH2 0x3927 JUMP JUMPDEST PUSH1 0xCE PUSH1 0x20 MSTORE PUSH1 0x0 SWAP1 DUP2 MSTORE PUSH1 0x40 SWAP1 KECCAK256 SLOAD PUSH1 0xFF AND DUP2 JUMP JUMPDEST CALLVALUE DUP1 ISZERO PUSH2 0x5BF JUMPI PUSH1 0x0 DUP1 REVERT JUMPDEST POP PUSH2 0x33E PUSH2 0x5CE CALLDATASIZE PUSH1 0x4 PUSH2 0x38CD JUMP JUMPDEST PUSH2 0x11BA JUMP JUMPDEST CALLVALUE DUP1 ISZERO PUSH2 0x5DF JUMPI PUSH1 0x0 DUP1 REVERT JUMPDEST POP PUSH2 0x3A3 PUSH2 0x5EE CALLDATASIZE PUSH1 0x4 PUSH2 0x3944 JUMP JUMPDEST PUSH2 0x1246 JUMP JUMPDEST CALLVALUE DUP1 ISZERO PUSH2 0x5FF JUMPI PUSH1 0x0 DUP1 REVERT JUMPDEST POP PUSH2 0x3A3 PUSH2 0x60E CALLDATASIZE PUSH1 0x4 PUSH2 0x3A0E JUMP JUMPDEST PUSH2 0x1261 JUMP JUMPDEST CALLVALUE DUP1 ISZERO PUSH2 0x61F JUMPI PUSH1 0x0 DUP1 REVERT JUMPDEST POP PUSH2 0x3BB PUSH2 0x62E CALLDATASIZE PUSH1 0x4 PUSH2 0x38CD JUMP JUMPDEST PUSH2 0x1435 JUMP JUMPDEST CALLVALUE DUP1 ISZERO PUSH2 0x63F JUMPI PUSH1 0x0 DUP1 REVERT JUMPDEST POP PUSH2 0x314 PUSH2 0x64E CALLDATASIZE PUSH1 0x4 PUSH2 0x38CD JUMP JUMPDEST PUSH2 0x14C8 JUMP JUMPDEST CALLVALUE DUP1 ISZERO PUSH2 0x65F JUMPI PUSH1 0x0 DUP1 REVERT JUMPDEST POP PUSH2 0x3A3 PUSH2 0x66E CALLDATASIZE PUSH1 0x4 PUSH2 0x3ABD JUMP JUMPDEST PUSH2 0x1544 JUMP JUMPDEST CALLVALUE DUP1 ISZERO PUSH2 0x67F JUMPI PUSH1 0x0 DUP1 REVERT JUMPDEST POP PUSH2 0x41A PUSH2 0x68E CALLDATASIZE PUSH1 0x4 PUSH2 0x3927 JUMP JUMPDEST PUSH1 0xD2 PUSH1 0x20 MSTORE PUSH1 0x0 SWAP1 DUP2 MSTORE PUSH1 0x40 SWAP1 KECCAK256 SLOAD PUSH4 0xFFFFFFFF AND DUP2 JUMP JUMPDEST CALLVALUE DUP1 ISZERO PUSH2 0x6B2 JUMPI PUSH1 0x0 DUP1 REVERT JUMPDEST POP PUSH2 0x36B PUSH2 0x6C1 CALLDATASIZE PUSH1 0x4 PUSH2 0x38CD JUMP JUMPDEST PUSH2 0x1635 JUMP JUMPDEST PUSH2 0x3A3 PUSH2 0x6D4 CALLDATASIZE PUSH1 0x4 PUSH2 0x3ABD JUMP JUMPDEST PUSH2 0x1695 JUMP JUMPDEST CALLVALUE DUP1 ISZERO PUSH2 0x6E5 JUMPI PUSH1 0x0 DUP1 REVERT JUMPDEST POP PUSH2 0x3BB PUSH1 0xCC SLOAD DUP2 JUMP JUMPDEST CALLVALUE DUP1 ISZERO PUSH2 0x6FB JUMPI PUSH1 0x0 DUP1 REVERT JUMPDEST POP PUSH2 0x3BB PUSH2 0x70A CALLDATASIZE PUSH1 0x4 PUSH2 0x3927 JUMP JUMPDEST PUSH2 0x1F0F JUMP JUMPDEST CALLVALUE DUP1 ISZERO PUSH2 0x71B JUMPI PUSH1 0x0 DUP1 REVERT JUMPDEST POP PUSH2 0x3BB PUSH2 0x72A CALLDATASIZE PUSH1 0x4 PUSH2 0x3AF2 JUMP JUMPDEST PUSH2 0x1F95 JUMP JUMPDEST CALLVALUE DUP1 ISZERO PUSH2 0x73B JUMPI PUSH1 0x0 DUP1 REVERT JUMPDEST POP PUSH2 0x74F PUSH2 0x74A CALLDATASIZE PUSH1 0x4 PUSH2 0x3B14 JUMP JUMPDEST PUSH2 0x200E JUMP JUMPDEST PUSH1 0x40 MLOAD PUSH1 0xFF SWAP1 SWAP2 AND DUP2 MSTORE PUSH1 0x20 ADD PUSH2 0x320 JUMP JUMPDEST CALLVALUE DUP1 ISZERO PUSH2 0x76D JUMPI PUSH1 0x0 DUP1 REVERT JUMPDEST POP PUSH2 0x3A3 PUSH2 0x77C CALLDATASIZE PUSH1 0x4 PUSH2 0x38CD JUMP JUMPDEST PUSH2 0x20C7 JUMP JUMPDEST CALLVALUE DUP1 ISZERO PUSH2 0x78D JUMPI PUSH1 0x0 DUP1 REVERT JUMPDEST POP PUSH2 0x3A3 PUSH2 0x79C CALLDATASIZE PUSH1 0x4 PUSH2 0x3927 JUMP JUMPDEST PUSH2 0x20F6 JUMP JUMPDEST CALLVALUE DUP1 ISZERO PUSH2 0x7AD JUMPI PUSH1 0x0 DUP1 REVERT JUMPDEST POP PUSH2 0x7C1 PUSH2 0x7BC CALLDATASIZE PUSH1 0x4 PUSH2 0x38CD JUMP JUMPDEST PUSH2 0x2142 JUMP JUMPDEST PUSH1 0x40 MLOAD PUSH2 0x320 SWAP10 SWAP9 SWAP8 SWAP7 SWAP6 SWAP5 SWAP4 SWAP3 SWAP2 SWAP1 PUSH2 0x3B3F JUMP JUMPDEST CALLVALUE DUP1 ISZERO PUSH2 0x7E2 JUMPI PUSH1 0x0 DUP1 REVERT JUMPDEST POP PUSH2 0x33E PUSH2 0x2294 JUMP JUMPDEST CALLVALUE DUP1 ISZERO PUSH2 0x7F7 JUMPI PUSH1 0x0 DUP1 REVERT JUMPDEST POP PUSH2 0x3BB PUSH2 0x806 CALLDATASIZE PUSH1 0x4 PUSH2 0x38CD JUMP JUMPDEST PUSH2 0x22A3 JUMP JUMPDEST CALLVALUE DUP1 ISZERO PUSH2 0x817 JUMPI PUSH1 0x0 DUP1 REVERT JUMPDEST POP PUSH2 0x3A3 PUSH2 0x826 CALLDATASIZE PUSH1 0x4 PUSH2 0x3BD0 JUMP JUMPDEST PUSH2 0x23AD JUMP JUMPDEST CALLVALUE DUP1 ISZERO PUSH2 0x837 JUMPI PUSH1 0x0 DUP1 REVERT JUMPDEST POP PUSH1 0xCA SLOAD PUSH2 0x36B SWAP1 PUSH1 0x1 PUSH1 0x1 PUSH1 0xA0 SHL SUB AND DUP2 JUMP JUMPDEST CALLVALUE DUP1 ISZERO PUSH2 0x857 JUMPI PUSH1 0x0 DUP1 REVERT JUMPDEST POP PUSH2 0x3A3 PUSH2 0x866 CALLDATASIZE PUSH1 0x4 PUSH2 0x3C24 JUMP JUMPDEST PUSH2 0x23B8 JUMP JUMPDEST CALLVALUE DUP1 ISZERO PUSH2 0x877 JUMPI PUSH1 0x0 DUP1 REVERT JUMPDEST POP PUSH2 0x33E PUSH2 0x886 CALLDATASIZE PUSH1 0x4 PUSH2 0x38CD JUMP JUMPDEST PUSH2 0x23EA JUMP JUMPDEST CALLVALUE DUP1 ISZERO PUSH2 0x897 JUMPI PUSH1 0x0 DUP1 REVERT JUMPDEST POP PUSH2 0x3BB PUSH32 0x0 DUP2 JUMP JUMPDEST CALLVALUE DUP1 ISZERO PUSH2 0x8CB JUMPI PUSH1 0x0 DUP1 REVERT JUMPDEST POP PUSH2 0x33E PUSH2 0x8DA CALLDATASIZE PUSH1 0x4 PUSH2 0x38CD JUMP JUMPDEST PUSH2 0x24F3 JUMP JUMPDEST CALLVALUE DUP1 ISZERO PUSH2 0x8EB JUMPI PUSH1 0x0 DUP1 REVERT JUMPDEST POP PUSH2 0x3BB PUSH2 0x2559 JUMP JUMPDEST CALLVALUE DUP1 ISZERO PUSH2 0x900 JUMPI PUSH1 0x0 DUP1 REVERT JUMPDEST POP PUSH2 0x314 PUSH2 0x90F CALLDATASIZE PUSH1 0x4 PUSH2 0x3D03 JUMP JUMPDEST PUSH2 0x2761 JUMP JUMPDEST CALLVALUE DUP1 ISZERO PUSH2 0x920 JUMPI PUSH1 0x0 DUP1 REVERT JUMPDEST POP PUSH2 0x3A3 PUSH2 0x92F CALLDATASIZE PUSH1 0x4 PUSH2 0x3927 JUMP JUMPDEST PUSH2 0x278F JUMP JUMPDEST CALLVALUE DUP1 ISZERO PUSH2 0x940 JUMPI PUSH1 0x0 DUP1 REVERT JUMPDEST POP PUSH2 0x3A3 PUSH2 0x94F CALLDATASIZE PUSH1 0x4 PUSH2 0x38CD JUMP JUMPDEST PUSH2 0x27DB JUMP JUMPDEST CALLVALUE DUP1 ISZERO PUSH2 0x960 JUMPI PUSH1 0x0 DUP1 REVERT JUMPDEST POP PUSH2 0x3BB PUSH32 0x0 DUP2 JUMP JUMPDEST CALLVALUE DUP1 ISZERO PUSH2 0x994 JUMPI PUSH1 0x0 DUP1 REVERT JUMPDEST POP PUSH2 0x314 PUSH2 0x9A3 CALLDATASIZE PUSH1 0x4 PUSH2 0x3927 JUMP JUMPDEST PUSH1 0x1 PUSH1 0x1 PUSH1 0xA0 SHL SUB AND PUSH1 0x0 SWAP1 DUP2 MSTORE PUSH1 0xCE PUSH1 0x20 MSTORE PUSH1 0x40 SWAP1 KECCAK256 SLOAD PUSH1 0xFF AND SWAP1 JUMP JUMPDEST CALLVALUE DUP1 ISZERO PUSH2 0x9CD JUMPI PUSH1 0x0 DUP1 REVERT JUMPDEST POP PUSH1 0xC9 SLOAD PUSH2 0x36B SWAP1 PUSH1 0x1 PUSH1 0x1 PUSH1 0xA0 SHL SUB AND DUP2 JUMP JUMPDEST CALLVALUE DUP1 ISZERO PUSH2 0x9ED JUMPI PUSH1 0x0 DUP1 REVERT JUMPDEST POP PUSH2 0x3BB PUSH32 0x0 DUP2 JUMP JUMPDEST PUSH1 0x0 PUSH1 0x1 PUSH1 0x1 PUSH1 0xE0 SHL SUB NOT DUP3 AND PUSH4 0x780E9D63 PUSH1 0xE0 SHL EQ DUP1 PUSH2 0xA3A JUMPI POP PUSH2 0xA3A DUP3 PUSH2 0x280A JUMP JUMPDEST SWAP3 SWAP2 POP POP JUMP JUMPDEST PUSH1 0x60 PUSH1 0x65 DUP1 SLOAD PUSH2 0xA4F SWAP1 PUSH2 0x3D31 JUMP JUMPDEST DUP1 PUSH1 0x1F ADD PUSH1 0x20 DUP1 SWAP2 DIV MUL PUSH1 0x20 ADD PUSH1 0x40 MLOAD SWAP1 DUP2 ADD PUSH1 0x40 MSTORE DUP1 SWAP3 SWAP2 SWAP1 DUP2 DUP2 MSTORE PUSH1 0x20 ADD DUP3 DUP1 SLOAD PUSH2 0xA7B SWAP1 PUSH2 0x3D31 JUMP JUMPDEST DUP1 ISZERO PUSH2 0xAC8 JUMPI DUP1 PUSH1 0x1F LT PUSH2 0xA9D JUMPI PUSH2 0x100 DUP1 DUP4 SLOAD DIV MUL DUP4 MSTORE SWAP2 PUSH1 0x20 ADD SWAP2 PUSH2 0xAC8 JUMP JUMPDEST DUP3 ADD SWAP2 SWAP1 PUSH1 0x0 MSTORE PUSH1 0x20 PUSH1 0x0 KECCAK256 SWAP1 JUMPDEST DUP2 SLOAD DUP2 MSTORE SWAP1 PUSH1 0x1 ADD SWAP1 PUSH1 0x20 ADD DUP1 DUP4 GT PUSH2 0xAAB JUMPI DUP3 SWAP1 SUB PUSH1 0x1F AND DUP3 ADD SWAP2 JUMPDEST POP POP POP POP POP SWAP1 POP SWAP1 JUMP JUMPDEST PUSH1 0x0 PUSH2 0xADD DUP3 PUSH2 0x285A JUMP JUMPDEST POP PUSH1 0x0 SWAP1 DUP2 MSTORE PUSH1 0x69 PUSH1 0x20 MSTORE PUSH1 0x40 SWAP1 KECCAK256 SLOAD PUSH1 0x1 PUSH1 0x1 PUSH1 0xA0 SHL SUB AND SWAP1 JUMP JUMPDEST PUSH1 0x0 PUSH2 0xB04 DUP3 PUSH2 0x1635 JUMP JUMPDEST SWAP1 POP DUP1 PUSH1 0x1 PUSH1 0x1 PUSH1 0xA0 SHL SUB AND DUP4 PUSH1 0x1 PUSH1 0x1 PUSH1 0xA0 SHL SUB AND SUB PUSH2 0xB76 JUMPI PUSH1 0x40 MLOAD PUSH3 0x461BCD PUSH1 0xE5 SHL DUP2 MSTORE PUSH1 0x20 PUSH1 0x4 DUP3 ADD MSTORE PUSH1 0x21 PUSH1 0x24 DUP3 ADD MSTORE PUSH32 0x4552433732313A20617070726F76616C20746F2063757272656E74206F776E65 PUSH1 0x44 DUP3 ADD MSTORE PUSH1 0x39 PUSH1 0xF9 SHL PUSH1 0x64 DUP3 ADD MSTORE PUSH1 0x84 ADD JUMPDEST PUSH1 0x40 MLOAD DUP1 SWAP2 SUB SWAP1 REVERT JUMPDEST CALLER PUSH1 0x1 PUSH1 0x1 PUSH1 0xA0 SHL SUB DUP3 AND EQ DUP1 PUSH2 0xB92 JUMPI POP PUSH2 0xB92 DUP2 CALLER PUSH2 0x2761 JUMP JUMPDEST PUSH2 0xC04 JUMPI PUSH1 0x40 MLOAD PUSH3 0x461BCD PUSH1 0xE5 SHL DUP2 MSTORE PUSH1 0x20 PUSH1 0x4 DUP3 ADD MSTORE PUSH1 0x3D PUSH1 0x24 DUP3 ADD MSTORE PUSH32 0x4552433732313A20617070726F76652063616C6C6572206973206E6F7420746F PUSH1 0x44 DUP3 ADD MSTORE PUSH32 0x6B656E206F776E6572206F7220617070726F76656420666F7220616C6C000000 PUSH1 0x64 DUP3 ADD MSTORE PUSH1 0x84 ADD PUSH2 0xB6D JUMP JUMPDEST PUSH2 0xC0E DUP4 DUP4 PUSH2 0x28BC JUMP JUMPDEST POP POP POP JUMP JUMPDEST PUSH1 0xD1 SLOAD PUSH32 0x0 DUP2 LT DUP1 ISZERO PUSH2 0xC66 JUMPI POP PUSH32 0x0 PUSH1 0xD3 SLOAD LT JUMPDEST PUSH2 0xCA9 JUMPI PUSH1 0x40 MLOAD PUSH3 0x461BCD PUSH1 0xE5 SHL DUP2 MSTORE PUSH1 0x20 PUSH1 0x4 DUP3 ADD MSTORE PUSH1 0x14 PUSH1 0x24 DUP3 ADD MSTORE PUSH20 0x746F6B656E4964206F7574206F662072616E6765 PUSH1 0x60 SHL PUSH1 0x44 DUP3 ADD MSTORE PUSH1 0x64 ADD PUSH2 0xB6D JUMP JUMPDEST PUSH32 0x0 PUSH2 0xCD3 PUSH1 0x99 SLOAD SWAP1 JUMP JUMPDEST GT ISZERO PUSH2 0xD10 JUMPI PUSH1 0x40 MLOAD PUSH3 0x461BCD PUSH1 0xE5 SHL DUP2 MSTORE PUSH1 0x20 PUSH1 0x4 DUP3 ADD MSTORE PUSH1 0xC PUSH1 0x24 DUP3 ADD MSTORE PUSH12 0x4F7574206F662073746F636B PUSH1 0xA0 SHL PUSH1 0x44 DUP3 ADD MSTORE PUSH1 0x64 ADD PUSH2 0xB6D JUMP JUMPDEST CALLER PUSH1 0x0 SWAP1 DUP2 MSTORE PUSH1 0xD2 PUSH1 0x20 MSTORE PUSH1 0x40 SWAP1 KECCAK256 SLOAD PUSH4 0xFFFFFFFF PUSH32 0x0 DUP2 AND SWAP2 AND LT PUSH2 0xDAE JUMPI PUSH1 0x40 MLOAD PUSH3 0x461BCD PUSH1 0xE5 SHL DUP2 MSTORE PUSH1 0x20 PUSH1 0x4 DUP3 ADD MSTORE PUSH1 0x2E PUSH1 0x24 DUP3 ADD MSTORE PUSH32 0x546865206D6178696D756D206E756D626572206F6620696E646976696475616C PUSH1 0x44 DUP3 ADD MSTORE PUSH14 0x1031B0B9BA34B733B99034B99019 PUSH1 0x91 SHL PUSH1 0x64 DUP3 ADD MSTORE PUSH1 0x84 ADD PUSH2 0xB6D JUMP JUMPDEST CALLER PUSH1 0x0 SWAP1 DUP2 MSTORE PUSH1 0xCE PUSH1 0x20 MSTORE PUSH1 0x40 SWAP1 KECCAK256 SLOAD PUSH1 0xFF AND PUSH2 0xE0E JUMPI PUSH1 0xCC SLOAD CALLVALUE EQ PUSH2 0xE0E JUMPI PUSH1 0x40 MLOAD PUSH3 0x461BCD PUSH1 0xE5 SHL DUP2 MSTORE PUSH1 0x20 PUSH1 0x4 DUP3 ADD MSTORE PUSH1 0x15 PUSH1 0x24 DUP3 ADD MSTORE PUSH21 0xA0C2F2DACADCE840DAEAE6E840C4CA4062408AA89 PUSH1 0x5B SHL PUSH1 0x44 DUP3 ADD MSTORE PUSH1 0x64 ADD PUSH2 0xB6D JUMP JUMPDEST PUSH2 0xE18 CALLER DUP3 PUSH2 0x292A JUMP JUMPDEST PUSH1 0xD3 SLOAD PUSH2 0xE26 SWAP1 PUSH1 0x1 PUSH2 0x3D81 JUMP JUMPDEST PUSH1 0xD3 SSTORE PUSH1 0x0 PUSH2 0xE33 PUSH2 0x2559 JUMP JUMPDEST CALLER PUSH1 0x0 SWAP1 DUP2 MSTORE PUSH1 0xD2 PUSH1 0x20 MSTORE PUSH1 0x40 SWAP1 KECCAK256 SLOAD SWAP1 SWAP2 POP PUSH2 0xE57 SWAP1 PUSH4 0xFFFFFFFF AND PUSH1 0x1 PUSH2 0x3D94 JUMP JUMPDEST CALLER PUSH1 0x0 SWAP1 DUP2 MSTORE PUSH1 0xD2 PUSH1 0x20 MSTORE PUSH1 0x40 DUP2 KECCAK256 DUP1 SLOAD PUSH4 0xFFFFFFFF NOT AND PUSH4 0xFFFFFFFF SWAP4 DUP5 AND OR SWAP1 SSTORE PUSH1 0xD1 DUP1 SLOAD PUSH1 0x1 DUP2 DUP2 ADD DUP4 SSTORE SWAP2 SWAP1 SWAP3 MSTORE PUSH32 0x695FB3134AD82C3B8022BC5464EDD0BCC9424EF672B52245DCB6AB2374327CE3 PUSH1 0x4 SWAP1 SWAP3 MUL SWAP2 SWAP1 SWAP2 ADD DUP1 SLOAD PUSH12 0xFFFFFFFF000000000000FFFF NOT AND PUSH1 0x1 PUSH1 0x40 SHL SWAP4 DUP7 AND SWAP4 SWAP1 SWAP4 MUL PUSH2 0xFFFF NOT AND SWAP3 SWAP1 SWAP3 OR OR PUSH1 0x1 PUSH1 0x1 PUSH1 0xC0 SHL SUB AND PUSH1 0x1 PUSH1 0xC0 SHL NUMBER PUSH1 0x1 PUSH1 0x1 PUSH1 0x40 SHL SUB AND MUL OR DUP2 SSTORE PUSH2 0xEFE PUSH2 0x2AC3 JUMP JUMPDEST PUSH1 0x1 DUP3 ADD SSTORE PUSH1 0x40 DUP1 MLOAD PUSH1 0x0 DUP2 MSTORE PUSH1 0x20 DUP2 ADD SWAP2 DUP3 SWAP1 MSTORE MLOAD PUSH2 0xF22 SWAP2 PUSH1 0x3 DUP5 ADD SWAP2 PUSH2 0x37E0 JUMP JUMPDEST POP DUP1 SLOAD PUSH6 0xFFFFFFFF0000 NOT AND PUSH5 0x300030000 OR DUP2 SSTORE PUSH1 0x0 DUP1 DUP1 MSTORE PUSH1 0x2 DUP3 ADD PUSH1 0x20 MSTORE PUSH1 0x40 SWAP1 KECCAK256 DUP1 SLOAD DUP4 OR SWAP1 SSTORE PUSH1 0x0 DUP1 JUMPDEST PUSH1 0x9 DUP2 LT ISZERO PUSH2 0xF9D JUMPI PUSH1 0x8 DUP2 SWAP1 SHR PUSH1 0x0 SWAP1 DUP2 MSTORE PUSH1 0x2 DUP5 ADD PUSH1 0x20 MSTORE PUSH1 0x40 SWAP1 KECCAK256 SLOAD PUSH1 0x1 PUSH1 0xFF DUP4 AND SHL AND ISZERO PUSH2 0xF8B JUMPI PUSH2 0xF88 PUSH1 0x1 DUP4 PUSH2 0x3D94 JUMP JUMPDEST SWAP2 POP JUMPDEST DUP1 PUSH2 0xF95 DUP2 PUSH2 0x3DB8 JUMP JUMPDEST SWAP2 POP POP PUSH2 0xF51 JUMP JUMPDEST POP DUP2 SLOAD PUSH4 0xFFFFFFFF SWAP1 SWAP2 AND PUSH1 0x1 PUSH1 0x60 SHL MUL PUSH4 0xFFFFFFFF PUSH1 0x60 SHL NOT SWAP1 SWAP2 AND OR SWAP1 SSTORE POP POP JUMP JUMPDEST PUSH1 0xC9 SLOAD PUSH1 0x1 PUSH1 0x1 PUSH1 0xA0 SHL SUB AND CALLER EQ PUSH2 0xFEB JUMPI PUSH1 0x40 MLOAD PUSH3 0x461BCD PUSH1 0xE5 SHL DUP2 MSTORE PUSH1 0x4 ADD PUSH2 0xB6D SWAP1 PUSH2 0x3DD1 JUMP JUMPDEST PUSH1 0xCB DUP1 SLOAD PUSH1 0x1 PUSH1 0x1 PUSH1 0xA0 SHL SUB NOT AND PUSH1 0x1 PUSH1 0x1 PUSH1 0xA0 SHL SUB SWAP3 SWAP1 SWAP3 AND SWAP2 SWAP1 SWAP2 OR SWAP1 SSTORE JUMP JUMPDEST PUSH2 0x1017 CALLER DUP3 PUSH2 0x2B23 JUMP JUMPDEST PUSH2 0x1033 JUMPI PUSH1 0x40 MLOAD PUSH3 0x461BCD PUSH1 0xE5 SHL DUP2 MSTORE PUSH1 0x4 ADD PUSH2 0xB6D SWAP1 PUSH2 0x3DFE JUMP JUMPDEST PUSH2 0xC0E DUP4 DUP4 DUP4 PUSH2 0x2B81 JUMP JUMPDEST PUSH1 0xCA SLOAD PUSH1 0x1 PUSH1 0x1 PUSH1 0xA0 SHL SUB AND CALLER EQ PUSH2 0x1068 JUMPI PUSH1 0x40 MLOAD PUSH3 0x461BCD PUSH1 0xE5 SHL DUP2 MSTORE PUSH1 0x4 ADD PUSH2 0xB6D SWAP1 PUSH2 0x3E4B JUMP JUMPDEST SELFBALANCE DUP2 GT ISZERO PUSH2 0x10AF JUMPI PUSH1 0x40 MLOAD PUSH3 0x461BCD PUSH1 0xE5 SHL DUP2 MSTORE PUSH1 0x20 PUSH1 0x4 DUP3 ADD MSTORE PUSH1 0x14 PUSH1 0x24 DUP3 ADD MSTORE PUSH20 0x496E73756666696369656E742062616C616E6365 PUSH1 0x60 SHL PUSH1 0x44 DUP3 ADD MSTORE PUSH1 0x64 ADD PUSH2 0xB6D JUMP JUMPDEST PUSH1 0xCA SLOAD PUSH1 0x40 MLOAD PUSH1 0x1 PUSH1 0x1 PUSH1 0xA0 SHL SUB SWAP1 SWAP2 AND SWAP1 DUP3 ISZERO PUSH2 0x8FC MUL SWAP1 DUP4 SWAP1 PUSH1 0x0 DUP2 DUP2 DUP2 DUP6 DUP9 DUP9 CALL SWAP4 POP POP POP POP ISZERO DUP1 ISZERO PUSH2 0x10E9 JUMPI RETURNDATASIZE PUSH1 0x0 DUP1 RETURNDATACOPY RETURNDATASIZE PUSH1 0x0 REVERT JUMPDEST POP POP JUMP JUMPDEST PUSH1 0x0 PUSH2 0x10F8 DUP4 PUSH2 0x1F0F JUMP JUMPDEST DUP3 LT PUSH2 0x115A JUMPI PUSH1 0x40 MLOAD PUSH3 0x461BCD PUSH1 0xE5 SHL DUP2 MSTORE PUSH1 0x20 PUSH1 0x4 DUP3 ADD MSTORE PUSH1 0x2B PUSH1 0x24 DUP3 ADD MSTORE PUSH32 0x455243373231456E756D657261626C653A206F776E657220696E646578206F75 PUSH1 0x44 DUP3 ADD MSTORE PUSH11 0x74206F6620626F756E6473 PUSH1 0xA8 SHL PUSH1 0x64 DUP3 ADD MSTORE PUSH1 0x84 ADD PUSH2 0xB6D JUMP JUMPDEST POP PUSH1 0x1 PUSH1 0x1 PUSH1 0xA0 SHL SUB SWAP2 SWAP1 SWAP2 AND PUSH1 0x0 SWAP1 DUP2 MSTORE PUSH1 0x97 PUSH1 0x20 SWAP1 DUP2 MSTORE PUSH1 0x40 DUP1 DUP4 KECCAK256 SWAP4 DUP4 MSTORE SWAP3 SWAP1 MSTORE KECCAK256 SLOAD SWAP1 JUMP JUMPDEST PUSH1 0xC9 SLOAD PUSH1 0x1 PUSH1 0x1 PUSH1 0xA0 SHL SUB AND CALLER EQ PUSH2 0x11AD JUMPI PUSH1 0x40 MLOAD PUSH3 0x461BCD PUSH1 0xE5 SHL DUP2 MSTORE PUSH1 0x4 ADD PUSH2 0xB6D SWAP1 PUSH2 0x3DD1 JUMP JUMPDEST PUSH1 0xD4 PUSH2 0xC0E DUP3 DUP5 DUP4 PUSH2 0x3EC4 JUMP JUMPDEST PUSH1 0x60 PUSH1 0x0 PUSH1 0xD1 DUP4 DUP2 SLOAD DUP2 LT PUSH2 0x11D1 JUMPI PUSH2 0x11D1 PUSH2 0x3F83 JUMP JUMPDEST SWAP1 PUSH1 0x0 MSTORE PUSH1 0x20 PUSH1 0x0 KECCAK256 SWAP1 PUSH1 0x4 MUL ADD SWAP1 POP PUSH1 0x0 PUSH2 0x11EC DUP5 PUSH2 0x2CF2 JUMP JUMPDEST DUP3 SLOAD SWAP1 SWAP2 POP PUSH2 0x1204 SWAP1 PUSH3 0x10000 SWAP1 DIV PUSH2 0xFFFF AND PUSH2 0x308A JUMP JUMPDEST DUP3 SLOAD PUSH2 0x121B SWAP1 PUSH5 0x100000000 SWAP1 DIV PUSH2 0xFFFF AND PUSH2 0x308A JUMP JUMPDEST DUP3 PUSH1 0x40 MLOAD PUSH1 0x20 ADD PUSH2 0x122E SWAP4 SWAP3 SWAP2 SWAP1 PUSH2 0x3F99 JUMP JUMPDEST PUSH1 0x40 MLOAD PUSH1 0x20 DUP2 DUP4 SUB SUB DUP2 MSTORE SWAP1 PUSH1 0x40 MSTORE SWAP3 POP POP POP SWAP2 SWAP1 POP JUMP JUMPDEST PUSH2 0xC0E DUP4 DUP4 DUP4 PUSH1 0x40 MLOAD DUP1 PUSH1 0x20 ADD PUSH1 0x40 MSTORE DUP1 PUSH1 0x0 DUP2 MSTORE POP PUSH2 0x23B8 JUMP JUMPDEST PUSH1 0x0 SLOAD PUSH2 0x100 SWAP1 DIV PUSH1 0xFF AND ISZERO DUP1 DUP1 ISZERO PUSH2 0x1281 JUMPI POP PUSH1 0x0 SLOAD PUSH1 0x1 PUSH1 0xFF SWAP1 SWAP2 AND LT JUMPDEST DUP1 PUSH2 0x129B JUMPI POP ADDRESS EXTCODESIZE ISZERO DUP1 ISZERO PUSH2 0x129B JUMPI POP PUSH1 0x0 SLOAD PUSH1 0xFF AND PUSH1 0x1 EQ JUMPDEST PUSH2 0x12FE JUMPI PUSH1 0x40 MLOAD PUSH3 0x461BCD PUSH1 0xE5 SHL DUP2 MSTORE PUSH1 0x20 PUSH1 0x4 DUP3 ADD MSTORE PUSH1 0x2E PUSH1 0x24 DUP3 ADD MSTORE PUSH32 0x496E697469616C697A61626C653A20636F6E747261637420697320616C726561 PUSH1 0x44 DUP3 ADD MSTORE PUSH14 0x191E481A5B9A5D1A585B1A5E9959 PUSH1 0x92 SHL PUSH1 0x64 DUP3 ADD MSTORE PUSH1 0x84 ADD PUSH2 0xB6D JUMP JUMPDEST PUSH1 0x0 DUP1 SLOAD PUSH1 0xFF NOT AND PUSH1 0x1 OR SWAP1 SSTORE DUP1 ISZERO PUSH2 0x1321 JUMPI PUSH1 0x0 DUP1 SLOAD PUSH2 0xFF00 NOT AND PUSH2 0x100 OR SWAP1 SSTORE JUMPDEST PUSH1 0xC9 DUP1 SLOAD PUSH1 0x1 PUSH1 0x1 PUSH1 0xA0 SHL SUB NOT AND CALLER OR SWAP1 SSTORE PUSH1 0x40 DUP1 MLOAD DUP1 DUP3 ADD SWAP1 SWAP2 MSTORE PUSH1 0x1F DUP2 MSTORE PUSH32 0x68747470733A2F2F6170692E63656C6C756C612E6C6966652F746F6B656E2F00 PUSH1 0x20 DUP3 ADD MSTORE PUSH1 0xD4 SWAP1 PUSH2 0x1374 SWAP1 DUP3 PUSH2 0x400D JUMP JUMPDEST POP PUSH2 0x13E8 DUP6 DUP6 DUP1 DUP1 PUSH1 0x1F ADD PUSH1 0x20 DUP1 SWAP2 DIV MUL PUSH1 0x20 ADD PUSH1 0x40 MLOAD SWAP1 DUP2 ADD PUSH1 0x40 MSTORE DUP1 SWAP4 SWAP3 SWAP2 SWAP1 DUP2 DUP2 MSTORE PUSH1 0x20 ADD DUP4 DUP4 DUP1 DUP3 DUP5 CALLDATACOPY PUSH1 0x0 SWAP3 ADD SWAP2 SWAP1 SWAP2 MSTORE POP POP PUSH1 0x40 DUP1 MLOAD PUSH1 0x20 PUSH1 0x1F DUP10 ADD DUP2 SWAP1 DIV DUP2 MUL DUP3 ADD DUP2 ADD SWAP1 SWAP3 MSTORE DUP8 DUP2 MSTORE SWAP3 POP DUP8 SWAP2 POP DUP7 SWAP1 DUP2 SWAP1 DUP5 ADD DUP4 DUP3 DUP1 DUP3 DUP5 CALLDATACOPY PUSH1 0x0 SWAP3 ADD SWAP2 SWAP1 SWAP2 MSTORE POP PUSH2 0x311A SWAP3 POP POP POP JUMP JUMPDEST DUP1 ISZERO PUSH2 0x142E JUMPI PUSH1 0x0 DUP1 SLOAD PUSH2 0xFF00 NOT AND SWAP1 SSTORE PUSH1 0x40 MLOAD PUSH1 0x1 DUP2 MSTORE PUSH32 0x7F26B83FF96E1F2B6A682F133852F6798A09C465DA95921460CEFB3847402498 SWAP1 PUSH1 0x20 ADD PUSH1 0x40 MLOAD DUP1 SWAP2 SUB SWAP1 LOG1 JUMPDEST POP POP POP POP POP JUMP JUMPDEST PUSH1 0x0 PUSH2 0x1440 PUSH1 0x99 SLOAD SWAP1 JUMP JUMPDEST DUP3 LT PUSH2 0x14A3 JUMPI PUSH1 0x40 MLOAD PUSH3 0x461BCD PUSH1 0xE5 SHL DUP2 MSTORE PUSH1 0x20 PUSH1 0x4 DUP3 ADD MSTORE PUSH1 0x2C PUSH1 0x24 DUP3 ADD MSTORE PUSH32 0x455243373231456E756D657261626C653A20676C6F62616C20696E646578206F PUSH1 0x44 DUP3 ADD MSTORE PUSH12 0x7574206F6620626F756E6473 PUSH1 0xA0 SHL PUSH1 0x64 DUP3 ADD MSTORE PUSH1 0x84 ADD PUSH2 0xB6D JUMP JUMPDEST PUSH1 0x99 DUP3 DUP2 SLOAD DUP2 LT PUSH2 0x14B6 JUMPI PUSH2 0x14B6 PUSH2 0x3F83 JUMP JUMPDEST SWAP1 PUSH1 0x0 MSTORE PUSH1 0x20 PUSH1 0x0 KECCAK256 ADD SLOAD SWAP1 POP SWAP2 SWAP1 POP JUMP JUMPDEST PUSH1 0x0 DUP1 PUSH1 0xD1 DUP4 DUP2 SLOAD DUP2 LT PUSH2 0x14DE JUMPI PUSH2 0x14DE PUSH2 0x3F83 JUMP JUMPDEST PUSH1 0x0 SWAP2 DUP3 MSTORE PUSH1 0x20 SWAP1 SWAP2 KECCAK256 PUSH1 0x4 SWAP1 SWAP2 MUL ADD DUP1 SLOAD SWAP1 SWAP2 POP PUSH2 0xFFFF AND PUSH1 0x1 EQ PUSH2 0x1507 JUMPI POP PUSH1 0x0 SWAP3 SWAP2 POP POP JUMP JUMPDEST DUP1 SLOAD PUSH2 0x1531 SWAP1 PUSH7 0x1000000000000 DUP2 DIV PUSH2 0xFFFF AND SWAP1 PUSH1 0x1 PUSH1 0x80 SHL SWAP1 DIV PUSH1 0x1 PUSH1 0x1 PUSH1 0x40 SHL SUB AND PUSH2 0x40CC JUMP JUMPDEST PUSH1 0x1 PUSH1 0x1 PUSH1 0x40 SHL SUB AND NUMBER LT ISZERO SWAP4 SWAP3 POP POP POP JUMP JUMPDEST PUSH1 0xCB SLOAD PUSH1 0x1 PUSH1 0x1 PUSH1 0xA0 SHL SUB AND CALLER EQ PUSH2 0x1592 JUMPI PUSH1 0x40 MLOAD PUSH3 0x461BCD PUSH1 0xE5 SHL DUP2 MSTORE PUSH1 0x20 PUSH1 0x4 DUP3 ADD MSTORE PUSH1 0x11 PUSH1 0x24 DUP3 ADD MSTORE PUSH17 0x43616C6C6572206973206E6F742043544F PUSH1 0x78 SHL PUSH1 0x44 DUP3 ADD MSTORE PUSH1 0x64 ADD PUSH2 0xB6D JUMP JUMPDEST PUSH1 0x0 DUP3 DUP3 DUP1 DUP1 PUSH1 0x20 MUL PUSH1 0x20 ADD PUSH1 0x40 MLOAD SWAP1 DUP2 ADD PUSH1 0x40 MSTORE DUP1 SWAP4 SWAP3 SWAP2 SWAP1 DUP2 DUP2 MSTORE PUSH1 0x20 ADD DUP4 DUP4 PUSH1 0x20 MUL DUP1 DUP3 DUP5 CALLDATACOPY PUSH1 0x0 SWAP3 ADD DUP3 SWAP1 MSTORE POP SWAP4 SWAP5 POP POP POP POP JUMPDEST DUP2 MLOAD DUP2 LT ISZERO PUSH2 0x162F JUMPI PUSH1 0x1 PUSH1 0xCE PUSH1 0x0 DUP5 DUP5 DUP2 MLOAD DUP2 LT PUSH2 0x15EB JUMPI PUSH2 0x15EB PUSH2 0x3F83 JUMP JUMPDEST PUSH1 0x20 SWAP1 DUP2 MUL SWAP2 SWAP1 SWAP2 ADD DUP2 ADD MLOAD PUSH1 0x1 PUSH1 0x1 PUSH1 0xA0 SHL SUB AND DUP3 MSTORE DUP2 ADD SWAP2 SWAP1 SWAP2 MSTORE PUSH1 0x40 ADD PUSH1 0x0 KECCAK256 DUP1 SLOAD PUSH1 0xFF NOT AND SWAP2 ISZERO ISZERO SWAP2 SWAP1 SWAP2 OR SWAP1 SSTORE DUP1 PUSH2 0x1627 DUP2 PUSH2 0x3DB8 JUMP JUMPDEST SWAP2 POP POP PUSH2 0x15CA JUMP JUMPDEST POP POP POP POP JUMP JUMPDEST PUSH1 0x0 DUP2 DUP2 MSTORE PUSH1 0x67 PUSH1 0x20 MSTORE PUSH1 0x40 DUP2 KECCAK256 SLOAD PUSH1 0x1 PUSH1 0x1 PUSH1 0xA0 SHL SUB AND DUP1 PUSH2 0xA3A JUMPI PUSH1 0x40 MLOAD PUSH3 0x461BCD PUSH1 0xE5 SHL DUP2 MSTORE PUSH1 0x20 PUSH1 0x4 DUP3 ADD MSTORE PUSH1 0x18 PUSH1 0x24 DUP3 ADD MSTORE PUSH24 0x115490CDCC8C4E881A5B9D985B1A59081D1BDAD95B881251 PUSH1 0x42 SHL PUSH1 0x44 DUP3 ADD MSTORE PUSH1 0x64 ADD PUSH2 0xB6D JUMP JUMPDEST PUSH1 0xCD SLOAD CALLVALUE LT ISZERO PUSH2 0x16DF JUMPI PUSH1 0x40 MLOAD PUSH3 0x461BCD PUSH1 0xE5 SHL DUP2 MSTORE PUSH1 0x20 PUSH1 0x4 DUP3 ADD MSTORE PUSH1 0x15 PUSH1 0x24 DUP3 ADD MSTORE PUSH21 0xA0C2F2DACADCE840DAEAE6E840C4CA4062408AA89 PUSH1 0x5B SHL PUSH1 0x44 DUP3 ADD MSTORE PUSH1 0x64 ADD PUSH2 0xB6D JUMP JUMPDEST PUSH32 0x0 PUSH2 0x1709 PUSH1 0x99 SLOAD SWAP1 JUMP JUMPDEST GT ISZERO PUSH2 0x1746 JUMPI PUSH1 0x40 MLOAD PUSH3 0x461BCD PUSH1 0xE5 SHL DUP2 MSTORE PUSH1 0x20 PUSH1 0x4 DUP3 ADD MSTORE PUSH1 0xC PUSH1 0x24 DUP3 ADD MSTORE PUSH12 0x4F7574206F662073746F636B PUSH1 0xA0 SHL PUSH1 0x44 DUP3 ADD MSTORE PUSH1 0x64 ADD PUSH2 0xB6D JUMP JUMPDEST PUSH1 0x2 DUP2 LT DUP1 ISZERO SWAP1 PUSH2 0x1758 JUMPI POP PUSH1 0x9 DUP2 GT ISZERO JUMPDEST PUSH2 0x17AF JUMPI PUSH1 0x40 MLOAD PUSH3 0x461BCD PUSH1 0xE5 SHL DUP2 MSTORE PUSH1 0x20 PUSH1 0x4 DUP3 ADD MSTORE PUSH1 0x22 PUSH1 0x24 DUP3 ADD MSTORE PUSH32 0x596F752063616E206F6E6C792075736520322D3920636F6D62696E6174696F6E PUSH1 0x44 DUP3 ADD MSTORE PUSH2 0x7321 PUSH1 0xF0 SHL PUSH1 0x64 DUP3 ADD MSTORE PUSH1 0x84 ADD PUSH2 0xB6D JUMP JUMPDEST PUSH1 0x0 JUMPDEST DUP2 DUP2 LT ISZERO PUSH2 0x1B1E JUMPI PUSH1 0x0 DUP4 DUP4 DUP4 DUP2 DUP2 LT PUSH2 0x17CE JUMPI PUSH2 0x17CE PUSH2 0x3F83 JUMP JUMPDEST SWAP1 POP PUSH1 0x20 MUL DUP2 ADD SWAP1 PUSH2 0x17E0 SWAP2 SWAP1 PUSH2 0x40EC JUMP JUMPDEST PUSH1 0x0 DUP2 DUP2 LT PUSH2 0x17F1 JUMPI PUSH2 0x17F1 PUSH2 0x3F83 JUMP JUMPDEST SWAP1 POP PUSH1 0x20 MUL ADD CALLDATALOAD SWAP1 POP PUSH1 0x0 PUSH1 0xD1 DUP3 DUP2 SLOAD DUP2 LT PUSH2 0x180F JUMPI PUSH2 0x180F PUSH2 0x3F83 JUMP JUMPDEST SWAP1 PUSH1 0x0 MSTORE PUSH1 0x20 PUSH1 0x0 KECCAK256 SWAP1 PUSH1 0x4 MUL ADD SWAP1 POP PUSH2 0x1828 DUP3 PUSH2 0x314B JUMP JUMPDEST PUSH2 0x1868 JUMPI PUSH1 0x40 MLOAD PUSH3 0x461BCD PUSH1 0xE5 SHL DUP2 MSTORE PUSH1 0x20 PUSH1 0x4 DUP3 ADD MSTORE PUSH1 0x11 PUSH1 0x24 DUP3 ADD MSTORE PUSH17 0x24B73B30B634B21027232A1037BBB732B9 PUSH1 0x79 SHL PUSH1 0x44 DUP3 ADD MSTORE PUSH1 0x64 ADD PUSH2 0xB6D JUMP JUMPDEST DUP1 SLOAD PUSH2 0x1880 SWAP1 PUSH1 0x1 PUSH1 0x40 SHL SWAP1 DIV PUSH4 0xFFFFFFFF AND PUSH2 0x14C8 JUMP JUMPDEST PUSH2 0x18C1 JUMPI PUSH1 0x40 MLOAD PUSH3 0x461BCD PUSH1 0xE5 SHL DUP2 MSTORE PUSH1 0x20 PUSH1 0x4 DUP3 ADD MSTORE PUSH1 0x12 PUSH1 0x24 DUP3 ADD MSTORE PUSH18 0x4E465420697320756E617661696C61626C65 PUSH1 0x70 SHL PUSH1 0x44 DUP3 ADD MSTORE PUSH1 0x64 ADD PUSH2 0xB6D JUMP JUMPDEST PUSH1 0xA DUP6 DUP6 DUP6 DUP2 DUP2 LT PUSH2 0x18D5 JUMPI PUSH2 0x18D5 PUSH2 0x3F83 JUMP JUMPDEST SWAP1 POP PUSH1 0x20 MUL DUP2 ADD SWAP1 PUSH2 0x18E7 SWAP2 SWAP1 PUSH2 0x40EC JUMP JUMPDEST PUSH1 0x1 DUP2 DUP2 LT PUSH2 0x18F8 JUMPI PUSH2 0x18F8 PUSH2 0x3F83 JUMP JUMPDEST SWAP1 POP PUSH1 0x20 MUL ADD CALLDATALOAD LT PUSH2 0x193D JUMPI PUSH1 0x40 MLOAD PUSH3 0x461BCD PUSH1 0xE5 SHL DUP2 MSTORE PUSH1 0x20 PUSH1 0x4 DUP3 ADD MSTORE PUSH1 0xE PUSH1 0x24 DUP3 ADD MSTORE PUSH14 0x3837B9B4BA34B7B71032B93937B9 PUSH1 0x91 SHL PUSH1 0x44 DUP3 ADD MSTORE PUSH1 0x64 ADD PUSH2 0xB6D JUMP JUMPDEST PUSH1 0x0 PUSH2 0x194A DUP5 PUSH1 0x1 PUSH2 0x3D81 JUMP JUMPDEST SWAP1 POP JUMPDEST DUP5 DUP2 LT ISZERO PUSH2 0x1B08 JUMPI DUP6 DUP6 DUP3 DUP2 DUP2 LT PUSH2 0x1967 JUMPI PUSH2 0x1967 PUSH2 0x3F83 JUMP JUMPDEST SWAP1 POP PUSH1 0x20 MUL DUP2 ADD SWAP1 PUSH2 0x1979 SWAP2 SWAP1 PUSH2 0x40EC JUMP JUMPDEST PUSH1 0x0 DUP2 DUP2 LT PUSH2 0x198A JUMPI PUSH2 0x198A PUSH2 0x3F83 JUMP JUMPDEST SWAP1 POP PUSH1 0x20 MUL ADD CALLDATALOAD DUP7 DUP7 DUP7 DUP2 DUP2 LT PUSH2 0x19A3 JUMPI PUSH2 0x19A3 PUSH2 0x3F83 JUMP JUMPDEST SWAP1 POP PUSH1 0x20 MUL DUP2 ADD SWAP1 PUSH2 0x19B5 SWAP2 SWAP1 PUSH2 0x40EC JUMP JUMPDEST PUSH1 0x0 DUP2 DUP2 LT PUSH2 0x19C6 JUMPI PUSH2 0x19C6 PUSH2 0x3F83 JUMP JUMPDEST SWAP1 POP PUSH1 0x20 MUL ADD CALLDATALOAD SUB PUSH2 0x1A1A JUMPI PUSH1 0x40 MLOAD PUSH3 0x461BCD PUSH1 0xE5 SHL DUP2 MSTORE PUSH1 0x20 PUSH1 0x4 DUP3 ADD MSTORE PUSH1 0x17 PUSH1 0x24 DUP3 ADD MSTORE PUSH32 0x4475706C6963617465204E465473206465746563746564000000000000000000 PUSH1 0x44 DUP3 ADD MSTORE PUSH1 0x64 ADD PUSH2 0xB6D JUMP JUMPDEST DUP6 DUP6 DUP3 DUP2 DUP2 LT PUSH2 0x1A2C JUMPI PUSH2 0x1A2C PUSH2 0x3F83 JUMP JUMPDEST SWAP1 POP PUSH1 0x20 MUL DUP2 ADD SWAP1 PUSH2 0x1A3E SWAP2 SWAP1 PUSH2 0x40EC JUMP JUMPDEST PUSH1 0x1 DUP2 DUP2 LT PUSH2 0x1A4F JUMPI PUSH2 0x1A4F PUSH2 0x3F83 JUMP JUMPDEST SWAP1 POP PUSH1 0x20 MUL ADD CALLDATALOAD DUP7 DUP7 DUP7 DUP2 DUP2 LT PUSH2 0x1A68 JUMPI PUSH2 0x1A68 PUSH2 0x3F83 JUMP JUMPDEST SWAP1 POP PUSH1 0x20 MUL DUP2 ADD SWAP1 PUSH2 0x1A7A SWAP2 SWAP1 PUSH2 0x40EC JUMP JUMPDEST PUSH1 0x1 DUP2 DUP2 LT PUSH2 0x1A8B JUMPI PUSH2 0x1A8B PUSH2 0x3F83 JUMP JUMPDEST SWAP1 POP PUSH1 0x20 MUL ADD CALLDATALOAD SUB PUSH2 0x1AF6 JUMPI PUSH1 0x40 MLOAD PUSH3 0x461BCD PUSH1 0xE5 SHL DUP2 MSTORE PUSH1 0x20 PUSH1 0x4 DUP3 ADD MSTORE PUSH1 0x2E PUSH1 0x24 DUP3 ADD MSTORE PUSH32 0x54776F204E4654732063616E6E6F7420626520706C6163656420696E20746865 PUSH1 0x44 DUP3 ADD MSTORE PUSH14 0x1039B0B6B2903837B9B4BA34B7B7 PUSH1 0x91 SHL PUSH1 0x64 DUP3 ADD MSTORE PUSH1 0x84 ADD PUSH2 0xB6D JUMP JUMPDEST DUP1 PUSH2 0x1B00 DUP2 PUSH2 0x3DB8 JUMP JUMPDEST SWAP2 POP POP PUSH2 0x194D JUMP JUMPDEST POP POP POP DUP1 DUP1 PUSH2 0x1B16 SWAP1 PUSH2 0x3DB8 JUMP JUMPDEST SWAP2 POP POP PUSH2 0x17B2 JUMP JUMPDEST POP PUSH1 0xD1 DUP1 SLOAD PUSH1 0x1 DUP2 ADD DUP3 SSTORE PUSH1 0x0 SWAP2 SWAP1 SWAP2 MSTORE PUSH32 0x695FB3134AD82C3B8022BC5464EDD0BCC9424EF672B52245DCB6AB2374327CE3 PUSH1 0x4 DUP3 MUL ADD DUP1 SLOAD PUSH1 0x2 PUSH12 0xFFFFFFFF000000000000FFFF NOT SWAP1 SWAP2 AND PUSH1 0x1 PUSH1 0x40 SHL PUSH4 0xFFFFFFFF DUP6 AND MUL PUSH2 0xFFFF NOT AND OR OR PUSH1 0x1 PUSH1 0x1 PUSH1 0xC0 SHL SUB AND PUSH1 0x1 PUSH1 0xC0 SHL NUMBER PUSH1 0x1 PUSH1 0x1 PUSH1 0x40 SHL SUB AND MUL OR DUP2 SSTORE PUSH2 0x1BA2 PUSH2 0x2AC3 JUMP JUMPDEST PUSH1 0x1 DUP3 ADD SSTORE DUP1 SLOAD PUSH6 0xFFFFFFFF0000 NOT AND PUSH5 0x900090000 OR DUP2 SSTORE PUSH1 0x0 DUP1 JUMPDEST DUP5 DUP2 LT ISZERO PUSH2 0x1DF9 JUMPI PUSH1 0x0 DUP7 DUP7 DUP4 DUP2 DUP2 LT PUSH2 0x1BDB JUMPI PUSH2 0x1BDB PUSH2 0x3F83 JUMP JUMPDEST SWAP1 POP PUSH1 0x20 MUL DUP2 ADD SWAP1 PUSH2 0x1BED SWAP2 SWAP1 PUSH2 0x40EC JUMP JUMPDEST PUSH1 0x0 DUP2 DUP2 LT PUSH2 0x1BFE JUMPI PUSH2 0x1BFE PUSH2 0x3F83 JUMP JUMPDEST SWAP1 POP PUSH1 0x20 MUL ADD CALLDATALOAD SWAP1 POP PUSH1 0x0 PUSH1 0xD1 DUP3 DUP2 SLOAD DUP2 LT PUSH2 0x1C1C JUMPI PUSH2 0x1C1C PUSH2 0x3F83 JUMP JUMPDEST PUSH1 0x0 SWAP2 DUP3 MSTORE PUSH1 0x20 DUP1 DUP4 KECCAK256 PUSH1 0x4 SWAP3 SWAP1 SWAP3 MUL SWAP1 SWAP2 ADD DUP1 SLOAD PUSH8 0xFFFFFFFFFFFFFFFF PUSH1 0x80 SHL NOT AND PUSH1 0x1 PUSH1 0x80 SHL NUMBER PUSH1 0x1 PUSH1 0x1 PUSH1 0x40 SHL SUB AND MUL OR DUP2 SSTORE PUSH1 0x3 DUP9 ADD DUP1 SLOAD PUSH1 0x1 DUP2 ADD DUP3 SSTORE SWAP1 DUP5 MSTORE SWAP2 DUP4 KECCAK256 SWAP1 SWAP2 ADD DUP5 SWAP1 SSTORE SWAP2 POP DUP9 DUP9 DUP6 DUP2 DUP2 LT PUSH2 0x1C7E JUMPI PUSH2 0x1C7E PUSH2 0x3F83 JUMP JUMPDEST SWAP1 POP PUSH1 0x20 MUL DUP2 ADD SWAP1 PUSH2 0x1C90 SWAP2 SWAP1 PUSH2 0x40EC JUMP JUMPDEST PUSH1 0x1 DUP2 DUP2 LT PUSH2 0x1CA1 JUMPI PUSH2 0x1CA1 PUSH2 0x3F83 JUMP JUMPDEST SWAP1 POP PUSH1 0x20 MUL ADD CALLDATALOAD SWAP1 POP PUSH1 0x0 PUSH1 0x3 PUSH1 0x1 DUP4 PUSH2 0x1CBB SWAP2 SWAP1 PUSH2 0x4135 JUMP JUMPDEST PUSH2 0x1CC5 SWAP2 SWAP1 PUSH2 0x415E JUMP JUMPDEST PUSH2 0x1CD0 SWAP1 PUSH1 0x3 PUSH2 0x4172 JUMP JUMPDEST SWAP1 POP PUSH1 0x0 PUSH1 0x3 PUSH2 0x1CE1 PUSH1 0x1 DUP6 PUSH2 0x4135 JUMP JUMPDEST PUSH2 0x1CEB SWAP2 SWAP1 PUSH2 0x4189 JUMP JUMPDEST PUSH2 0x1CF6 SWAP1 PUSH1 0x3 PUSH2 0x4172 JUMP JUMPDEST PUSH1 0x0 DUP1 DUP1 MSTORE PUSH1 0x2 DUP7 ADD PUSH1 0x20 MSTORE PUSH1 0x40 DUP2 KECCAK256 SLOAD SWAP2 SWAP3 POP PUSH1 0x7 DUP1 DUP4 AND SWAP3 PUSH1 0x3 DUP2 DUP2 SHR DUP4 AND SWAP4 PUSH1 0x6 SWAP3 SWAP1 SWAP3 SHR SWAP1 SWAP3 AND SWAP2 PUSH2 0x1D2D DUP7 PUSH1 0x9 PUSH2 0x4172 JUMP JUMPDEST PUSH2 0x1D37 SWAP1 DUP9 PUSH2 0x3D81 JUMP JUMPDEST PUSH2 0x1D42 SWAP1 PUSH1 0x51 PUSH2 0x4135 JUMP JUMPDEST PUSH2 0x1D4C SWAP2 SWAP1 PUSH2 0x4135 JUMP JUMPDEST PUSH1 0x0 DUP1 DUP1 MSTORE PUSH1 0x2 DUP15 ADD PUSH1 0x20 MSTORE PUSH1 0x40 SWAP1 KECCAK256 DUP1 SLOAD DUP5 DUP4 SHL OR SWAP1 SSTORE SWAP1 POP PUSH2 0x1D94 PUSH1 0x0 PUSH2 0x1D76 PUSH1 0x9 DUP5 PUSH2 0x4135 JUMP JUMPDEST PUSH1 0x0 SWAP2 DUP3 MSTORE PUSH1 0x2 DUP16 ADD PUSH1 0x20 MSTORE PUSH1 0x40 SWAP1 SWAP2 KECCAK256 DUP1 SLOAD SWAP2 DUP7 SWAP1 SHL SWAP1 SWAP2 OR SWAP1 SSTORE JUMP JUMPDEST PUSH2 0x1DC2 PUSH1 0x0 PUSH2 0x1DA4 PUSH1 0x12 DUP5 PUSH2 0x4135 JUMP JUMPDEST PUSH1 0x0 SWAP2 DUP3 MSTORE PUSH1 0x2 DUP16 ADD PUSH1 0x20 MSTORE PUSH1 0x40 SWAP1 SWAP2 KECCAK256 DUP1 SLOAD SWAP2 DUP8 SWAP1 SHL SWAP1 SWAP2 OR SWAP1 SSTORE JUMP JUMPDEST DUP8 SLOAD PUSH2 0x1DDB SWAP1 PUSH1 0x1 PUSH1 0x60 SHL SWAP1 DIV PUSH4 0xFFFFFFFF AND DUP13 PUSH2 0x3D94 JUMP JUMPDEST SWAP11 POP POP POP POP POP POP POP POP POP POP DUP1 DUP1 PUSH2 0x1DF1 SWAP1 PUSH2 0x3DB8 JUMP JUMPDEST SWAP2 POP POP PUSH2 0x1BBF JUMP JUMPDEST POP DUP2 SLOAD PUSH4 0xFFFFFFFF PUSH1 0x60 SHL NOT AND PUSH1 0x1 PUSH1 0x60 SHL PUSH4 0xFFFFFFFF DUP4 AND MUL OR DUP3 SSTORE PUSH1 0x0 JUMPDEST DUP5 DUP2 LT ISZERO PUSH2 0x1F04 JUMPI PUSH1 0x0 DUP7 DUP7 DUP4 DUP2 DUP2 LT PUSH2 0x1E35 JUMPI PUSH2 0x1E35 PUSH2 0x3F83 JUMP JUMPDEST SWAP1 POP PUSH1 0x20 MUL DUP2 ADD SWAP1 PUSH2 0x1E47 SWAP2 SWAP1 PUSH2 0x40EC JUMP JUMPDEST PUSH1 0x0 DUP2 DUP2 LT PUSH2 0x1E58 JUMPI PUSH2 0x1E58 PUSH2 0x3F83 JUMP JUMPDEST SWAP1 POP PUSH1 0x20 MUL ADD CALLDATALOAD SWAP1 POP PUSH1 0x0 PUSH1 0xD1 DUP3 DUP2 SLOAD DUP2 LT PUSH2 0x1E76 JUMPI PUSH2 0x1E76 PUSH2 0x3F83 JUMP JUMPDEST SWAP1 PUSH1 0x0 MSTORE PUSH1 0x20 PUSH1 0x0 KECCAK256 SWAP1 PUSH1 0x4 MUL ADD SWAP1 POP PUSH32 0x0 DUP5 PUSH1 0xF PUSH2 0x1EB4 SWAP2 SWAP1 PUSH2 0x419D JUMP JUMPDEST PUSH2 0x1EBF SWAP1 PUSH1 0x3C PUSH2 0x419D JUMP JUMPDEST PUSH4 0xFFFFFFFF AND PUSH2 0x1ECF SWAP2 SWAP1 PUSH2 0x4189 JUMP JUMPDEST DUP2 SLOAD PUSH2 0xFFFF SWAP2 SWAP1 SWAP2 AND PUSH7 0x1000000000000 MUL PUSH8 0xFFFF000000000000 NOT SWAP1 SWAP2 AND OR SWAP1 SSTORE POP DUP1 PUSH2 0x1EFC DUP2 PUSH2 0x3DB8 JUMP JUMPDEST SWAP2 POP POP PUSH2 0x1E19 JUMP JUMPDEST POP PUSH2 0x142E CALLER DUP5 PUSH2 0x292A JUMP JUMPDEST PUSH1 0x0 PUSH1 0x1 PUSH1 0x1 PUSH1 0xA0 SHL SUB DUP3 AND PUSH2 0x1F79 JUMPI PUSH1 0x40 MLOAD PUSH3 0x461BCD PUSH1 0xE5 SHL DUP2 MSTORE PUSH1 0x20 PUSH1 0x4 DUP3 ADD MSTORE PUSH1 0x29 PUSH1 0x24 DUP3 ADD MSTORE PUSH32 0x4552433732313A2061646472657373207A65726F206973206E6F742061207661 PUSH1 0x44 DUP3 ADD MSTORE PUSH9 0x3634B21037BBB732B9 PUSH1 0xB9 SHL PUSH1 0x64 DUP3 ADD MSTORE PUSH1 0x84 ADD PUSH2 0xB6D JUMP JUMPDEST POP PUSH1 0x1 PUSH1 0x1 PUSH1 0xA0 SHL SUB AND PUSH1 0x0 SWAP1 DUP2 MSTORE PUSH1 0x68 PUSH1 0x20 MSTORE PUSH1 0x40 SWAP1 KECCAK256 SLOAD SWAP1 JUMP JUMPDEST PUSH1 0x0 DUP1 PUSH1 0xD1 DUP5 DUP2 SLOAD DUP2 LT PUSH2 0x1FAB JUMPI PUSH2 0x1FAB PUSH2 0x3F83 JUMP JUMPDEST SWAP1 PUSH1 0x0 MSTORE PUSH1 0x20 PUSH1 0x0 KECCAK256 SWAP1 PUSH1 0x4 MUL ADD SWAP1 POP PUSH1 0x0 DUP4 DUP3 PUSH1 0x1 ADD SLOAD PUSH2 0x1FCC DUP8 PUSH2 0x23EA JUMP JUMPDEST PUSH1 0x40 MLOAD PUSH1 0x20 ADD PUSH2 0x1FDE SWAP4 SWAP3 SWAP2 SWAP1 PUSH2 0x41C5 JUMP JUMPDEST PUSH1 0x40 DUP1 MLOAD PUSH1 0x1F NOT DUP2 DUP5 SUB ADD DUP2 MSTORE SWAP2 SWAP1 MSTORE DUP1 MLOAD PUSH1 0x20 SWAP1 SWAP2 ADD KECCAK256 SWAP1 POP DUP1 PUSH2 0x2004 PUSH1 0x2 DUP3 PUSH2 0x415E JUMP JUMPDEST SWAP7 SWAP6 POP POP POP POP POP POP JUMP JUMPDEST PUSH1 0x0 DUP1 DUP1 JUMPDEST PUSH1 0x9 DUP2 LT ISZERO PUSH2 0x2079 JUMPI DUP1 PUSH1 0x4 EQ ISZERO DUP1 ISZERO PUSH2 0x2054 JUMPI POP DUP4 DUP2 PUSH1 0x9 DUP2 LT PUSH2 0x203A JUMPI PUSH2 0x203A PUSH2 0x3F83 JUMP JUMPDEST PUSH1 0x20 MUL ADD PUSH1 0x20 DUP2 ADD SWAP1 PUSH2 0x204D SWAP2 SWAP1 PUSH2 0x41F2 JUMP JUMPDEST PUSH1 0xFF AND PUSH1 0x1 EQ JUMPDEST ISZERO PUSH2 0x2067 JUMPI PUSH2 0x2064 PUSH1 0x1 DUP4 PUSH2 0x4215 JUMP JUMPDEST SWAP2 POP JUMPDEST DUP1 PUSH2 0x2071 DUP2 PUSH2 0x3DB8 JUMP JUMPDEST SWAP2 POP POP PUSH2 0x2013 JUMP JUMPDEST POP DUP1 PUSH1 0xFF AND PUSH1 0x2 SUB PUSH2 0x209C JUMPI PUSH2 0x2095 PUSH1 0xA0 DUP5 ADD PUSH1 0x80 DUP6 ADD PUSH2 0x41F2 JUMP JUMPDEST SWAP4 SWAP3 POP POP POP JUMP JUMPDEST PUSH1 0x1 DUP2 PUSH1 0xFF AND GT ISZERO DUP1 PUSH2 0x20B3 JUMPI POP PUSH1 0x4 DUP2 PUSH1 0xFF AND LT ISZERO JUMPDEST PUSH2 0x20BE JUMPI PUSH1 0x1 PUSH2 0x2095 JUMP JUMPDEST PUSH1 0x0 SWAP4 SWAP3 POP POP POP JUMP JUMPDEST PUSH1 0xCA SLOAD PUSH1 0x1 PUSH1 0x1 PUSH1 0xA0 SHL SUB AND CALLER EQ PUSH2 0x20F1 JUMPI PUSH1 0x40 MLOAD PUSH3 0x461BCD PUSH1 0xE5 SHL DUP2 MSTORE PUSH1 0x4 ADD PUSH2 0xB6D SWAP1 PUSH2 0x3E4B JUMP JUMPDEST PUSH1 0xCD SSTORE JUMP JUMPDEST PUSH1 0xC9 SLOAD PUSH1 0x1 PUSH1 0x1 PUSH1 0xA0 SHL SUB AND CALLER EQ PUSH2 0x2120 JUMPI PUSH1 0x40 MLOAD PUSH3 0x461BCD PUSH1 0xE5 SHL DUP2 MSTORE PUSH1 0x4 ADD PUSH2 0xB6D SWAP1 PUSH2 0x3DD1 JUMP JUMPDEST PUSH1 0xC9 DUP1 SLOAD PUSH1 0x1 PUSH1 0x1 PUSH1 0xA0 SHL SUB NOT AND PUSH1 0x1 PUSH1 0x1 PUSH1 0xA0 SHL SUB SWAP3 SWAP1 SWAP3 AND SWAP2 SWAP1 SWAP2 OR SWAP1 SSTORE JUMP JUMPDEST PUSH1 0x0 DUP1 PUSH1 0x60 PUSH1 0x0 DUP1 PUSH1 0x0 DUP1 PUSH1 0x0 PUSH1 0x60 PUSH1 0x0 PUSH1 0xD1 DUP12 DUP2 SLOAD DUP2 LT PUSH2 0x2166 JUMPI PUSH2 0x2166 PUSH2 0x3F83 JUMP JUMPDEST SWAP1 PUSH1 0x0 MSTORE PUSH1 0x20 PUSH1 0x0 KECCAK256 SWAP1 PUSH1 0x4 MUL ADD SWAP1 POP DUP1 PUSH1 0x0 ADD PUSH1 0x2 SWAP1 SLOAD SWAP1 PUSH2 0x100 EXP SWAP1 DIV PUSH2 0xFFFF AND PUSH2 0xFFFF AND SWAP10 POP DUP1 PUSH1 0x0 ADD PUSH1 0x4 SWAP1 SLOAD SWAP1 PUSH2 0x100 EXP SWAP1 DIV PUSH2 0xFFFF AND PUSH2 0xFFFF AND SWAP9 POP DUP1 PUSH1 0x0 ADD PUSH1 0x0 SWAP1 SLOAD SWAP1 PUSH2 0x100 EXP SWAP1 DIV PUSH2 0xFFFF AND SWAP7 POP DUP1 PUSH1 0x0 ADD PUSH1 0x6 SWAP1 SLOAD SWAP1 PUSH2 0x100 EXP SWAP1 DIV PUSH2 0xFFFF AND PUSH2 0xFFFF AND SWAP6 POP DUP1 PUSH1 0x0 ADD PUSH1 0x18 SWAP1 SLOAD SWAP1 PUSH2 0x100 EXP SWAP1 DIV PUSH1 0x1 PUSH1 0x1 PUSH1 0x40 SHL SUB AND PUSH1 0x1 PUSH1 0x1 PUSH1 0x40 SHL SUB AND SWAP5 POP DUP1 PUSH1 0x3 ADD DUP1 SLOAD DUP1 PUSH1 0x20 MUL PUSH1 0x20 ADD PUSH1 0x40 MLOAD SWAP1 DUP2 ADD PUSH1 0x40 MSTORE DUP1 SWAP3 SWAP2 SWAP1 DUP2 DUP2 MSTORE PUSH1 0x20 ADD DUP3 DUP1 SLOAD DUP1 ISZERO PUSH2 0x2247 JUMPI PUSH1 0x20 MUL DUP3 ADD SWAP2 SWAP1 PUSH1 0x0 MSTORE PUSH1 0x20 PUSH1 0x0 KECCAK256 SWAP1 JUMPDEST DUP2 SLOAD DUP2 MSTORE PUSH1 0x20 ADD SWAP1 PUSH1 0x1 ADD SWAP1 DUP1 DUP4 GT PUSH2 0x2233 JUMPI JUMPDEST POP POP DUP5 SLOAD PUSH1 0x1 PUSH1 0x60 SHL SWAP1 DIV PUSH4 0xFFFFFFFF AND SWAP8 POP SWAP3 SWAP5 POP PUSH2 0x226C SWAP3 POP DUP14 SWAP2 POP PUSH2 0x2CF2 SWAP1 POP JUMP JUMPDEST SWAP1 SLOAD SWAP10 SWAP12 SWAP9 SWAP11 POP SWAP9 SWAP6 SWAP8 SWAP5 SWAP7 POP SWAP3 SWAP5 SWAP2 SWAP4 PUSH1 0x1 PUSH1 0x80 SHL SWAP1 SWAP3 DIV PUSH1 0x1 PUSH1 0x1 PUSH1 0x40 SHL SUB AND SWAP3 SWAP2 SWAP1 POP JUMP JUMPDEST PUSH1 0x60 PUSH1 0x66 DUP1 SLOAD PUSH2 0xA4F SWAP1 PUSH2 0x3D31 JUMP JUMPDEST PUSH1 0x0 DUP2 DUP2 MSTORE PUSH1 0x67 PUSH1 0x20 MSTORE PUSH1 0x40 DUP2 KECCAK256 SLOAD PUSH1 0x1 PUSH1 0x1 PUSH1 0xA0 SHL SUB AND PUSH2 0x2307 JUMPI PUSH1 0x40 MLOAD PUSH3 0x461BCD PUSH1 0xE5 SHL DUP2 MSTORE PUSH1 0x20 PUSH1 0x4 DUP3 ADD MSTORE PUSH1 0x1A PUSH1 0x24 DUP3 ADD MSTORE PUSH32 0x54686520746F6B656E494420646F6573206E6F74206578697374000000000000 PUSH1 0x44 DUP3 ADD MSTORE PUSH1 0x64 ADD PUSH2 0xB6D JUMP JUMPDEST PUSH1 0x0 PUSH1 0xD1 DUP4 DUP2 SLOAD DUP2 LT PUSH2 0x231C JUMPI PUSH2 0x231C PUSH2 0x3F83 JUMP JUMPDEST PUSH1 0x0 SWAP2 DUP3 MSTORE PUSH1 0x20 DUP3 KECCAK256 PUSH1 0x4 SWAP1 SWAP2 MUL ADD SLOAD PUSH1 0x1 PUSH1 0x1 PUSH1 0x40 SHL SUB PUSH1 0x1 PUSH1 0xC0 SHL SWAP1 SWAP2 DIV AND SWAP2 POP PUSH4 0xFFFFFFFF PUSH32 0x0 AND PUSH32 0x0 PUSH2 0x2391 DUP5 NUMBER PUSH2 0x4135 JUMP JUMPDEST PUSH2 0x239B SWAP2 SWAP1 PUSH2 0x4172 JUMP JUMPDEST PUSH2 0x23A5 SWAP2 SWAP1 PUSH2 0x4189 JUMP JUMPDEST SWAP5 SWAP4 POP POP POP POP JUMP JUMPDEST PUSH2 0x10E9 CALLER DUP4 DUP4 PUSH2 0x3196 JUMP JUMPDEST PUSH2 0x23C2 CALLER DUP4 PUSH2 0x2B23 JUMP JUMPDEST PUSH2 0x23DE JUMPI PUSH1 0x40 MLOAD PUSH3 0x461BCD PUSH1 0xE5 SHL DUP2 MSTORE PUSH1 0x4 ADD PUSH2 0xB6D SWAP1 PUSH2 0x3DFE JUMP JUMPDEST PUSH2 0x162F DUP5 DUP5 DUP5 DUP5 PUSH2 0x3264 JUMP JUMPDEST PUSH1 0x60 PUSH1 0x0 PUSH1 0xD1 DUP4 DUP2 SLOAD DUP2 LT PUSH2 0x2401 JUMPI PUSH2 0x2401 PUSH2 0x3F83 JUMP JUMPDEST PUSH1 0x0 SWAP2 DUP3 MSTORE PUSH1 0x20 DUP3 KECCAK256 PUSH1 0x4 SWAP1 SWAP2 MUL ADD DUP1 SLOAD SWAP1 SWAP3 POP PUSH1 0x60 SWAP2 SWAP1 PUSH2 0x2437 SWAP1 PUSH2 0xFFFF PUSH5 0x100000000 DUP3 DIV DUP2 AND SWAP2 PUSH3 0x10000 SWAP1 DIV AND PUSH2 0x422E JUMP JUMPDEST PUSH2 0xFFFF AND SWAP1 POP DUP1 JUMPDEST DUP1 ISZERO PUSH2 0x24E1 JUMPI PUSH1 0x0 PUSH2 0x247C PUSH2 0x2455 PUSH1 0x1 DUP5 PUSH2 0x4135 JUMP JUMPDEST PUSH1 0x8 DUP2 SWAP1 SHR PUSH1 0x0 SWAP1 DUP2 MSTORE PUSH1 0x2 DUP9 ADD PUSH1 0x20 MSTORE PUSH1 0x40 SWAP1 KECCAK256 SLOAD PUSH1 0x1 PUSH1 0xFF SWAP1 SWAP3 AND SWAP2 SWAP1 SWAP2 SHL AND ISZERO ISZERO SWAP1 JUMP JUMPDEST SWAP1 POP DUP1 ISZERO PUSH2 0x24AB JUMPI DUP4 PUSH1 0x40 MLOAD PUSH1 0x20 ADD PUSH2 0x2495 SWAP2 SWAP1 PUSH2 0x424C JUMP JUMPDEST PUSH1 0x40 MLOAD PUSH1 0x20 DUP2 DUP4 SUB SUB DUP2 MSTORE SWAP1 PUSH1 0x40 MSTORE SWAP4 POP PUSH2 0x24CE JUMP JUMPDEST DUP4 PUSH1 0x40 MLOAD PUSH1 0x20 ADD PUSH2 0x24BC SWAP2 SWAP1 PUSH2 0x4271 JUMP JUMPDEST PUSH1 0x40 MLOAD PUSH1 0x20 DUP2 DUP4 SUB SUB DUP2 MSTORE SWAP1 PUSH1 0x40 MSTORE SWAP4 POP JUMPDEST POP DUP1 PUSH2 0x24D9 DUP2 PUSH2 0x4296 JUMP JUMPDEST SWAP2 POP POP PUSH2 0x243F JUMP JUMPDEST POP PUSH2 0x24EB DUP3 PUSH2 0x3297 JUMP JUMPDEST POP SWAP4 SWAP3 POP POP POP JUMP JUMPDEST PUSH1 0x60 PUSH2 0x24FE DUP3 PUSH2 0x285A JUMP JUMPDEST PUSH1 0x0 PUSH2 0x2508 PUSH2 0x32DA JUMP JUMPDEST SWAP1 POP PUSH1 0x0 DUP2 MLOAD GT PUSH2 0x2528 JUMPI PUSH1 0x40 MLOAD DUP1 PUSH1 0x20 ADD PUSH1 0x40 MSTORE DUP1 PUSH1 0x0 DUP2 MSTORE POP PUSH2 0x2095 JUMP JUMPDEST DUP1 PUSH2 0x2532 DUP5 PUSH2 0x308A JUMP JUMPDEST PUSH1 0x40 MLOAD PUSH1 0x20 ADD PUSH2 0x2543 SWAP3 SWAP2 SWAP1 PUSH2 0x42AD JUMP JUMPDEST PUSH1 0x40 MLOAD PUSH1 0x20 DUP2 DUP4 SUB SUB DUP2 MSTORE SWAP1 PUSH1 0x40 MSTORE SWAP4 SWAP3 POP POP POP JUMP JUMPDEST PUSH1 0x0 DUP1 TIMESTAMP CALLER PUSH1 0x40 MLOAD PUSH1 0x20 ADD PUSH2 0x258A SWAP3 SWAP2 SWAP1 SWAP2 DUP3 MSTORE PUSH1 0x60 SHL PUSH12 0xFFFFFFFFFFFFFFFFFFFFFFFF NOT AND PUSH1 0x20 DUP3 ADD MSTORE PUSH1 0x34 ADD SWAP1 JUMP JUMPDEST PUSH1 0x40 MLOAD PUSH1 0x20 DUP2 DUP4 SUB SUB DUP2 MSTORE SWAP1 PUSH1 0x40 MSTORE DUP1 MLOAD SWAP1 PUSH1 0x20 ADD KECCAK256 PUSH1 0x0 SHR SWAP1 POP PUSH1 0x0 JUMPDEST PUSH32 0x0 DUP2 LT ISZERO PUSH2 0x266F JUMPI PUSH1 0x0 PUSH32 0x0 PUSH2 0x25FD DUP4 DUP6 PUSH2 0x3D81 JUMP JUMPDEST PUSH2 0x2607 SWAP2 SWAP1 PUSH2 0x415E JUMP JUMPDEST PUSH1 0x8 DUP2 SWAP1 SHR PUSH1 0x0 SWAP1 DUP2 MSTORE PUSH1 0xD0 PUSH1 0x20 MSTORE PUSH1 0x40 SWAP1 KECCAK256 SLOAD SWAP1 SWAP2 POP PUSH1 0x1 PUSH1 0xFF DUP4 AND SHL AND PUSH2 0x265C JUMPI PUSH1 0x8 DUP2 SWAP1 SHR PUSH1 0x0 SWAP1 DUP2 MSTORE PUSH1 0xD0 PUSH1 0x20 MSTORE PUSH1 0x40 SWAP1 KECCAK256 DUP1 SLOAD PUSH1 0x1 PUSH1 0xFF DUP5 AND SHL OR SWAP1 SSTORE PUSH2 0x2654 DUP2 PUSH1 0x1 PUSH2 0x3D81 JUMP JUMPDEST SWAP4 POP POP POP POP SWAP1 JUMP JUMPDEST POP DUP1 PUSH2 0x2667 DUP2 PUSH2 0x3DB8 JUMP JUMPDEST SWAP2 POP POP PUSH2 0x25A8 JUMP JUMPDEST POP PUSH32 0x0 PUSH1 0xCF SLOAD LT ISZERO PUSH2 0x2715 JUMPI PUSH1 0xD0 PUSH1 0x20 MSTORE PUSH1 0x0 PUSH32 0x790DCA8AA28F25F1915553DD78BB1FAE41686AABBB62EA6516AB2CAFB7D25899 DUP2 SWAP1 SSTORE PUSH1 0x1 DUP1 DUP3 MSTORE PUSH32 0x77F2C0CEB108931AE1752982C6028A6C43603B39C3741036378CA346C9592529 DUP3 SWAP1 SSTORE PUSH1 0xCF DUP1 SLOAD SWAP2 SWAP3 SWAP1 SWAP2 PUSH2 0x2701 SWAP1 DUP5 SWAP1 PUSH2 0x3D81 JUMP JUMPDEST SWAP1 SWAP2 SSTORE POP PUSH2 0x270F SWAP1 POP PUSH2 0x2559 JUMP JUMPDEST SWAP2 POP POP SWAP1 JUMP JUMPDEST PUSH1 0x40 MLOAD PUSH3 0x461BCD PUSH1 0xE5 SHL DUP2 MSTORE PUSH1 0x20 PUSH1 0x4 DUP3 ADD MSTORE PUSH1 0x1A PUSH1 0x24 DUP3 ADD MSTORE PUSH32 0x416C6C206E756D626572732068617665206265656E2075736564000000000000 PUSH1 0x44 DUP3 ADD MSTORE PUSH1 0x64 ADD PUSH2 0xB6D JUMP JUMPDEST POP SWAP1 JUMP JUMPDEST PUSH1 0x1 PUSH1 0x1 PUSH1 0xA0 SHL SUB SWAP2 DUP3 AND PUSH1 0x0 SWAP1 DUP2 MSTORE PUSH1 0x6A PUSH1 0x20 SWAP1 DUP2 MSTORE PUSH1 0x40 DUP1 DUP4 KECCAK256 SWAP4 SWAP1 SWAP5 AND DUP3 MSTORE SWAP2 SWAP1 SWAP2 MSTORE KECCAK256 SLOAD PUSH1 0xFF AND SWAP1 JUMP JUMPDEST PUSH1 0xC9 SLOAD PUSH1 0x1 PUSH1 0x1 PUSH1 0xA0 SHL SUB AND CALLER EQ PUSH2 0x27B9 JUMPI PUSH1 0x40 MLOAD PUSH3 0x461BCD PUSH1 0xE5 SHL DUP2 MSTORE PUSH1 0x4 ADD PUSH2 0xB6D SWAP1 PUSH2 0x3DD1 JUMP JUMPDEST PUSH1 0xCA DUP1 SLOAD PUSH1 0x1 PUSH1 0x1 PUSH1 0xA0 SHL SUB NOT AND PUSH1 0x1 PUSH1 0x1 PUSH1 0xA0 SHL SUB SWAP3 SWAP1 SWAP3 AND SWAP2 SWAP1 SWAP2 OR SWAP1 SSTORE JUMP JUMPDEST PUSH1 0xCA SLOAD PUSH1 0x1 PUSH1 0x1 PUSH1 0xA0 SHL SUB AND CALLER EQ PUSH2 0x2805 JUMPI PUSH1 0x40 MLOAD PUSH3 0x461BCD PUSH1 0xE5 SHL DUP2 MSTORE PUSH1 0x4 ADD PUSH2 0xB6D SWAP1 PUSH2 0x3E4B JUMP JUMPDEST PUSH1 0xCC SSTORE JUMP JUMPDEST PUSH1 0x0 PUSH1 0x1 PUSH1 0x1 PUSH1 0xE0 SHL SUB NOT DUP3 AND PUSH4 0x80AC58CD PUSH1 0xE0 SHL EQ DUP1 PUSH2 0x283B JUMPI POP PUSH1 0x1 PUSH1 0x1 PUSH1 0xE0 SHL SUB NOT DUP3 AND PUSH4 0x5B5E139F PUSH1 0xE0 SHL EQ JUMPDEST DUP1 PUSH2 0xA3A JUMPI POP PUSH4 0x1FFC9A7 PUSH1 0xE0 SHL PUSH1 0x1 PUSH1 0x1 PUSH1 0xE0 SHL SUB NOT DUP4 AND EQ PUSH2 0xA3A JUMP JUMPDEST PUSH1 0x0 DUP2 DUP2 MSTORE PUSH1 0x67 PUSH1 0x20 MSTORE PUSH1 0x40 SWAP1 KECCAK256 SLOAD PUSH1 0x1 PUSH1 0x1 PUSH1 0xA0 SHL SUB AND PUSH2 0x28B9 JUMPI PUSH1 0x40 MLOAD PUSH3 0x461BCD PUSH1 0xE5 SHL DUP2 MSTORE PUSH1 0x20 PUSH1 0x4 DUP3 ADD MSTORE PUSH1 0x18 PUSH1 0x24 DUP3 ADD MSTORE PUSH24 0x115490CDCC8C4E881A5B9D985B1A59081D1BDAD95B881251 PUSH1 0x42 SHL PUSH1 0x44 DUP3 ADD MSTORE PUSH1 0x64 ADD PUSH2 0xB6D JUMP JUMPDEST POP JUMP JUMPDEST PUSH1 0x0 DUP2 DUP2 MSTORE PUSH1 0x69 PUSH1 0x20 MSTORE PUSH1 0x40 SWAP1 KECCAK256 DUP1 SLOAD PUSH1 0x1 PUSH1 0x1 PUSH1 0xA0 SHL SUB NOT AND PUSH1 0x1 PUSH1 0x1 PUSH1 0xA0 SHL SUB DUP5 AND SWAP1 DUP2 OR SWAP1 SWAP2 SSTORE DUP2 SWAP1 PUSH2 0x28F1 DUP3 PUSH2 0x1635 JUMP JUMPDEST PUSH1 0x1 PUSH1 0x1 PUSH1 0xA0 SHL SUB AND PUSH32 0x8C5BE1E5EBEC7D5BD14F71427D1E84F3DD0314C0F7B2291E5B200AC8C7C3B925 PUSH1 0x40 MLOAD PUSH1 0x40 MLOAD DUP1 SWAP2 SUB SWAP1 LOG4 POP POP JUMP JUMPDEST PUSH1 0x1 PUSH1 0x1 PUSH1 0xA0 SHL SUB DUP3 AND PUSH2 0x2980 JUMPI PUSH1 0x40 MLOAD PUSH3 0x461BCD PUSH1 0xE5 SHL DUP2 MSTORE PUSH1 0x20 PUSH1 0x4 DUP3 ADD DUP2 SWAP1 MSTORE PUSH1 0x24 DUP3 ADD MSTORE PUSH32 0x4552433732313A206D696E7420746F20746865207A65726F2061646472657373 PUSH1 0x44 DUP3 ADD MSTORE PUSH1 0x64 ADD PUSH2 0xB6D JUMP JUMPDEST PUSH1 0x0 DUP2 DUP2 MSTORE PUSH1 0x67 PUSH1 0x20 MSTORE PUSH1 0x40 SWAP1 KECCAK256 SLOAD PUSH1 0x1 PUSH1 0x1 PUSH1 0xA0 SHL SUB AND ISZERO PUSH2 0x29E5 JUMPI PUSH1 0x40 MLOAD PUSH3 0x461BCD PUSH1 0xE5 SHL DUP2 MSTORE PUSH1 0x20 PUSH1 0x4 DUP3 ADD MSTORE PUSH1 0x1C PUSH1 0x24 DUP3 ADD MSTORE PUSH32 0x4552433732313A20746F6B656E20616C7265616479206D696E74656400000000 PUSH1 0x44 DUP3 ADD MSTORE PUSH1 0x64 ADD PUSH2 0xB6D JUMP JUMPDEST PUSH2 0x29F3 PUSH1 0x0 DUP4 DUP4 PUSH1 0x1 PUSH2 0x32E9 JUMP JUMPDEST PUSH1 0x0 DUP2 DUP2 MSTORE PUSH1 0x67 PUSH1 0x20 MSTORE PUSH1 0x40 SWAP1 KECCAK256 SLOAD PUSH1 0x1 PUSH1 0x1 PUSH1 0xA0 SHL SUB AND ISZERO PUSH2 0x2A58 JUMPI PUSH1 0x40 MLOAD PUSH3 0x461BCD PUSH1 0xE5 SHL DUP2 MSTORE PUSH1 0x20 PUSH1 0x4 DUP3 ADD MSTORE PUSH1 0x1C PUSH1 0x24 DUP3 ADD MSTORE PUSH32 0x4552433732313A20746F6B656E20616C7265616479206D696E74656400000000 PUSH1 0x44 DUP3 ADD MSTORE PUSH1 0x64 ADD PUSH2 0xB6D JUMP JUMPDEST PUSH1 0x1 PUSH1 0x1 PUSH1 0xA0 SHL SUB DUP3 AND PUSH1 0x0 DUP2 DUP2 MSTORE PUSH1 0x68 PUSH1 0x20 SWAP1 DUP2 MSTORE PUSH1 0x40 DUP1 DUP4 KECCAK256 DUP1 SLOAD PUSH1 0x1 ADD SWAP1 SSTORE DUP5 DUP4 MSTORE PUSH1 0x67 SWAP1 SWAP2 MSTORE DUP1 DUP3 KECCAK256 DUP1 SLOAD PUSH1 0x1 PUSH1 0x1 PUSH1 0xA0 SHL SUB NOT AND DUP5 OR SWAP1 SSTORE MLOAD DUP4 SWAP3 SWAP2 SWAP1 PUSH32 0xDDF252AD1BE2C89B69C2B068FC378DAA952BA7F163C4A11628F55A4DF523B3EF SWAP1 DUP3 SWAP1 LOG4 POP POP JUMP JUMPDEST PUSH1 0x0 NUMBER CALLER PUSH2 0x2AD2 PUSH1 0x1 TIMESTAMP PUSH2 0x4135 JUMP JUMPDEST BLOCKHASH PUSH1 0x40 MLOAD PUSH1 0x20 ADD PUSH2 0x2B08 SWAP4 SWAP3 SWAP2 SWAP1 SWAP3 DUP4 MSTORE PUSH1 0x60 SWAP2 SWAP1 SWAP2 SHL PUSH12 0xFFFFFFFFFFFFFFFFFFFFFFFF NOT AND PUSH1 0x20 DUP4 ADD MSTORE PUSH1 0x34 DUP3 ADD MSTORE PUSH1 0x54 ADD SWAP1 JUMP JUMPDEST PUSH1 0x40 MLOAD PUSH1 0x20 DUP2 DUP4 SUB SUB DUP2 MSTORE SWAP1 PUSH1 0x40 MSTORE DUP1 MLOAD SWAP1 PUSH1 0x20 ADD KECCAK256 SWAP1 POP SWAP1 JUMP JUMPDEST PUSH1 0x0 DUP1 PUSH2 0x2B2F DUP4 PUSH2 0x1635 JUMP JUMPDEST SWAP1 POP DUP1 PUSH1 0x1 PUSH1 0x1 PUSH1 0xA0 SHL SUB AND DUP5 PUSH1 0x1 PUSH1 0x1 PUSH1 0xA0 SHL SUB AND EQ DUP1 PUSH2 0x2B56 JUMPI POP PUSH2 0x2B56 DUP2 DUP6 PUSH2 0x2761 JUMP JUMPDEST DUP1 PUSH2 0x23A5 JUMPI POP DUP4 PUSH1 0x1 PUSH1 0x1 PUSH1 0xA0 SHL SUB AND PUSH2 0x2B6F DUP5 PUSH2 0xAD2 JUMP JUMPDEST PUSH1 0x1 PUSH1 0x1 PUSH1 0xA0 SHL SUB AND EQ SWAP5 SWAP4 POP POP POP POP JUMP JUMPDEST DUP3 PUSH1 0x1 PUSH1 0x1 PUSH1 0xA0 SHL SUB AND PUSH2 0x2B94 DUP3 PUSH2 0x1635 JUMP JUMPDEST PUSH1 0x1 PUSH1 0x1 PUSH1 0xA0 SHL SUB AND EQ PUSH2 0x2BBA JUMPI PUSH1 0x40 MLOAD PUSH3 0x461BCD PUSH1 0xE5 SHL DUP2 MSTORE PUSH1 0x4 ADD PUSH2 0xB6D SWAP1 PUSH2 0x42DC JUMP JUMPDEST PUSH1 0x1 PUSH1 0x1 PUSH1 0xA0 SHL SUB DUP3 AND PUSH2 0x2C1C JUMPI PUSH1 0x40 MLOAD PUSH3 0x461BCD PUSH1 0xE5 SHL DUP2 MSTORE PUSH1 0x20 PUSH1 0x4 DUP3 ADD MSTORE PUSH1 0x24 DUP1 DUP3 ADD MSTORE PUSH32 0x4552433732313A207472616E7366657220746F20746865207A65726F20616464 PUSH1 0x44 DUP3 ADD MSTORE PUSH4 0x72657373 PUSH1 0xE0 SHL PUSH1 0x64 DUP3 ADD MSTORE PUSH1 0x84 ADD PUSH2 0xB6D JUMP JUMPDEST PUSH2 0x2C29 DUP4 DUP4 DUP4 PUSH1 0x1 PUSH2 0x32E9 JUMP JUMPDEST DUP3 PUSH1 0x1 PUSH1 0x1 PUSH1 0xA0 SHL SUB AND PUSH2 0x2C3C DUP3 PUSH2 0x1635 JUMP JUMPDEST PUSH1 0x1 PUSH1 0x1 PUSH1 0xA0 SHL SUB AND EQ PUSH2 0x2C62 JUMPI PUSH1 0x40 MLOAD PUSH3 0x461BCD PUSH1 0xE5 SHL DUP2 MSTORE PUSH1 0x4 ADD PUSH2 0xB6D SWAP1 PUSH2 0x42DC JUMP JUMPDEST PUSH1 0x0 DUP2 DUP2 MSTORE PUSH1 0x69 PUSH1 0x20 SWAP1 DUP2 MSTORE PUSH1 0x40 DUP1 DUP4 KECCAK256 DUP1 SLOAD PUSH1 0x1 PUSH1 0x1 PUSH1 0xA0 SHL SUB NOT SWAP1 DUP2 AND SWAP1 SWAP2 SSTORE PUSH1 0x1 PUSH1 0x1 PUSH1 0xA0 SHL SUB DUP8 DUP2 AND DUP1 DUP7 MSTORE PUSH1 0x68 DUP6 MSTORE DUP4 DUP7 KECCAK256 DUP1 SLOAD PUSH1 0x0 NOT ADD SWAP1 SSTORE SWAP1 DUP8 AND DUP1 DUP7 MSTORE DUP4 DUP7 KECCAK256 DUP1 SLOAD PUSH1 0x1 ADD SWAP1 SSTORE DUP7 DUP7 MSTORE PUSH1 0x67 SWAP1 SWAP5 MSTORE DUP3 DUP6 KECCAK256 DUP1 SLOAD SWAP1 SWAP3 AND DUP5 OR SWAP1 SWAP2 SSTORE SWAP1 MLOAD DUP5 SWAP4 PUSH32 0xDDF252AD1BE2C89B69C2B068FC378DAA952BA7F163C4A11628F55A4DF523B3EF SWAP2 LOG4 POP POP POP JUMP JUMPDEST PUSH1 0x60 PUSH1 0x0 PUSH1 0xD1 DUP4 DUP2 SLOAD DUP2 LT PUSH2 0x2D09 JUMPI PUSH2 0x2D09 PUSH2 0x3F83 JUMP JUMPDEST PUSH1 0x0 SWAP2 DUP3 MSTORE PUSH1 0x20 DUP3 KECCAK256 PUSH1 0x4 SWAP1 SWAP2 MUL ADD DUP1 SLOAD SWAP1 SWAP3 POP PUSH2 0xFFFF PUSH3 0x10000 DUP3 DIV DUP2 AND SWAP3 PUSH5 0x100000000 SWAP1 SWAP3 DIV AND SWAP1 DUP2 PUSH1 0x1 PUSH1 0x1 PUSH1 0x40 SHL SUB DUP2 GT ISZERO PUSH2 0x2D4C JUMPI PUSH2 0x2D4C PUSH2 0x3C0E JUMP JUMPDEST PUSH1 0x40 MLOAD SWAP1 DUP1 DUP3 MSTORE DUP1 PUSH1 0x20 MUL PUSH1 0x20 ADD DUP3 ADD PUSH1 0x40 MSTORE DUP1 ISZERO PUSH2 0x2D7F JUMPI DUP2 PUSH1 0x20 ADD JUMPDEST PUSH1 0x60 DUP2 MSTORE PUSH1 0x20 ADD SWAP1 PUSH1 0x1 SWAP1 SUB SWAP1 DUP2 PUSH2 0x2D6A JUMPI SWAP1 POP JUMPDEST POP SWAP1 POP PUSH1 0x0 JUMPDEST DUP3 DUP2 LT ISZERO PUSH2 0x2EC2 JUMPI DUP4 PUSH1 0x1 PUSH1 0x1 PUSH1 0x40 SHL SUB DUP2 GT ISZERO PUSH2 0x2DA5 JUMPI PUSH2 0x2DA5 PUSH2 0x3C0E JUMP JUMPDEST PUSH1 0x40 MLOAD SWAP1 DUP1 DUP3 MSTORE DUP1 PUSH1 0x20 MUL PUSH1 0x20 ADD DUP3 ADD PUSH1 0x40 MSTORE DUP1 ISZERO PUSH2 0x2DCE JUMPI DUP2 PUSH1 0x20 ADD PUSH1 0x20 DUP3 MUL DUP1 CALLDATASIZE DUP4 CALLDATACOPY ADD SWAP1 POP JUMPDEST POP DUP3 DUP3 DUP2 MLOAD DUP2 LT PUSH2 0x2DE1 JUMPI PUSH2 0x2DE1 PUSH2 0x3F83 JUMP JUMPDEST PUSH1 0x20 MUL PUSH1 0x20 ADD ADD DUP2 SWAP1 MSTORE POP PUSH1 0x0 JUMPDEST DUP5 DUP2 LT ISZERO PUSH2 0x2EAF JUMPI PUSH2 0x2E56 PUSH1 0x1 DUP3 PUSH2 0x2E07 DUP9 DUP7 PUSH2 0x4172 JUMP JUMPDEST PUSH2 0x2E11 SWAP2 SWAP1 PUSH2 0x3D81 JUMP JUMPDEST PUSH2 0x2E1B DUP8 DUP10 PUSH2 0x4172 JUMP JUMPDEST PUSH2 0x2E25 SWAP2 SWAP1 PUSH2 0x4135 JUMP JUMPDEST PUSH2 0x2E2F SWAP2 SWAP1 PUSH2 0x4135 JUMP JUMPDEST PUSH1 0x8 DUP2 SWAP1 SHR PUSH1 0x0 SWAP1 DUP2 MSTORE PUSH1 0x2 DUP10 ADD PUSH1 0x20 MSTORE PUSH1 0x40 SWAP1 KECCAK256 SLOAD PUSH1 0x1 PUSH1 0xFF SWAP1 SWAP3 AND SWAP2 SWAP1 SWAP2 SHL AND ISZERO ISZERO SWAP1 JUMP JUMPDEST PUSH2 0x2E61 JUMPI PUSH1 0x0 PUSH2 0x2E64 JUMP JUMPDEST PUSH1 0x1 JUMPDEST PUSH1 0xFF AND DUP4 DUP4 DUP2 MLOAD DUP2 LT PUSH2 0x2E79 JUMPI PUSH2 0x2E79 PUSH2 0x3F83 JUMP JUMPDEST PUSH1 0x20 MUL PUSH1 0x20 ADD ADD MLOAD DUP3 DUP2 MLOAD DUP2 LT PUSH2 0x2E92 JUMPI PUSH2 0x2E92 PUSH2 0x3F83 JUMP JUMPDEST PUSH1 0x20 SWAP1 DUP2 MUL SWAP2 SWAP1 SWAP2 ADD ADD MSTORE DUP1 PUSH2 0x2EA7 DUP2 PUSH2 0x3DB8 JUMP JUMPDEST SWAP2 POP POP PUSH2 0x2DEF JUMP JUMPDEST POP DUP1 PUSH2 0x2EBA DUP2 PUSH2 0x3DB8 JUMP JUMPDEST SWAP2 POP POP PUSH2 0x2D85 JUMP JUMPDEST POP PUSH1 0x40 DUP1 MLOAD PUSH1 0x20 DUP2 ADD SWAP1 SWAP2 MSTORE PUSH1 0x0 DUP1 DUP3 MSTORE JUMPDEST DUP4 DUP2 LT ISZERO PUSH2 0x307F JUMPI PUSH1 0x0 DUP4 DUP3 DUP2 MLOAD DUP2 LT PUSH2 0x2EF0 JUMPI PUSH2 0x2EF0 PUSH2 0x3F83 JUMP JUMPDEST PUSH1 0x20 MUL PUSH1 0x20 ADD ADD MLOAD PUSH1 0x0 DUP2 MLOAD DUP2 LT PUSH2 0x2F0A JUMPI PUSH2 0x2F0A PUSH2 0x3F83 JUMP JUMPDEST PUSH1 0x20 MUL PUSH1 0x20 ADD ADD MLOAD SWAP1 POP PUSH1 0x0 DUP1 JUMPDEST DUP8 DUP2 LT ISZERO PUSH2 0x2FFA JUMPI PUSH1 0x0 DUP7 DUP6 DUP2 MLOAD DUP2 LT PUSH2 0x2F34 JUMPI PUSH2 0x2F34 PUSH2 0x3F83 JUMP JUMPDEST PUSH1 0x20 MUL PUSH1 0x20 ADD ADD MLOAD DUP3 DUP2 MLOAD DUP2 LT PUSH2 0x2F4D JUMPI PUSH2 0x2F4D PUSH2 0x3F83 JUMP JUMPDEST PUSH1 0x20 MUL PUSH1 0x20 ADD ADD MLOAD SWAP1 POP DUP4 DUP2 SUB PUSH2 0x2F70 JUMPI DUP3 PUSH2 0x2F68 DUP2 PUSH2 0x3DB8 JUMP JUMPDEST SWAP4 POP POP PUSH2 0x2FE7 JUMP JUMPDEST DUP6 PUSH2 0x2F7A DUP5 PUSH2 0x308A JUMP JUMPDEST DUP6 PUSH1 0x1 EQ PUSH2 0x2FA1 JUMPI PUSH1 0x40 MLOAD DUP1 PUSH1 0x40 ADD PUSH1 0x40 MSTORE DUP1 PUSH1 0x1 DUP2 MSTORE PUSH1 0x20 ADD PUSH1 0x31 PUSH1 0xF9 SHL DUP2 MSTORE POP PUSH2 0x2FBC JUMP JUMPDEST PUSH1 0x40 MLOAD DUP1 PUSH1 0x40 ADD PUSH1 0x40 MSTORE DUP1 PUSH1 0x1 DUP2 MSTORE PUSH1 0x20 ADD PUSH1 0x6F PUSH1 0xF8 SHL DUP2 MSTORE POP JUMPDEST PUSH1 0x40 MLOAD PUSH1 0x20 ADD PUSH2 0x2FCE SWAP4 SWAP3 SWAP2 SWAP1 PUSH2 0x4321 JUMP JUMPDEST PUSH1 0x40 MLOAD PUSH1 0x20 DUP2 DUP4 SUB SUB DUP2 MSTORE SWAP1 PUSH1 0x40 MSTORE SWAP6 POP DUP1 SWAP4 POP PUSH1 0x1 SWAP3 POP JUMPDEST POP DUP1 PUSH2 0x2FF2 DUP2 PUSH2 0x3DB8 JUMP JUMPDEST SWAP2 POP POP PUSH2 0x2F18 JUMP JUMPDEST POP DUP4 PUSH2 0x3005 DUP3 PUSH2 0x308A JUMP JUMPDEST DUP4 PUSH1 0x1 EQ PUSH2 0x302C JUMPI PUSH1 0x40 MLOAD DUP1 PUSH1 0x40 ADD PUSH1 0x40 MSTORE DUP1 PUSH1 0x1 DUP2 MSTORE PUSH1 0x20 ADD PUSH1 0x31 PUSH1 0xF9 SHL DUP2 MSTORE POP PUSH2 0x3047 JUMP JUMPDEST PUSH1 0x40 MLOAD DUP1 PUSH1 0x40 ADD PUSH1 0x40 MSTORE DUP1 PUSH1 0x1 DUP2 MSTORE PUSH1 0x20 ADD PUSH1 0x6F PUSH1 0xF8 SHL DUP2 MSTORE POP JUMPDEST PUSH1 0x40 MLOAD PUSH1 0x20 ADD PUSH2 0x3059 SWAP4 SWAP3 SWAP2 SWAP1 PUSH2 0x4364 JUMP JUMPDEST PUSH1 0x40 MLOAD PUSH1 0x20 DUP2 DUP4 SUB SUB DUP2 MSTORE SWAP1 PUSH1 0x40 MSTORE SWAP4 POP POP POP DUP1 DUP1 PUSH2 0x3077 SWAP1 PUSH2 0x3DB8 JUMP JUMPDEST SWAP2 POP POP PUSH2 0x2ED4 JUMP JUMPDEST POP SWAP7 SWAP6 POP POP POP POP POP POP JUMP JUMPDEST PUSH1 0x60 PUSH1 0x0 PUSH2 0x3097 DUP4 PUSH2 0x3416 JUMP JUMPDEST PUSH1 0x1 ADD SWAP1 POP PUSH1 0x0 DUP2 PUSH1 0x1 PUSH1 0x1 PUSH1 0x40 SHL SUB DUP2 GT ISZERO PUSH2 0x30B6 JUMPI PUSH2 0x30B6 PUSH2 0x3C0E JUMP JUMPDEST PUSH1 0x40 MLOAD SWAP1 DUP1 DUP3 MSTORE DUP1 PUSH1 0x1F ADD PUSH1 0x1F NOT AND PUSH1 0x20 ADD DUP3 ADD PUSH1 0x40 MSTORE DUP1 ISZERO PUSH2 0x30E0 JUMPI PUSH1 0x20 DUP3 ADD DUP2 DUP1 CALLDATASIZE DUP4 CALLDATACOPY ADD SWAP1 POP JUMPDEST POP SWAP1 POP DUP2 DUP2 ADD PUSH1 0x20 ADD JUMPDEST PUSH1 0x0 NOT ADD PUSH16 0x181899199A1A9B1B9C1CB0B131B232B3 PUSH1 0x81 SHL PUSH1 0xA DUP7 MOD BYTE DUP2 MSTORE8 PUSH1 0xA DUP6 DIV SWAP5 POP DUP5 ISZERO PUSH2 0x24EB JUMPI PUSH2 0x30EA JUMP JUMPDEST PUSH1 0x0 SLOAD PUSH2 0x100 SWAP1 DIV PUSH1 0xFF AND PUSH2 0x3141 JUMPI PUSH1 0x40 MLOAD PUSH3 0x461BCD PUSH1 0xE5 SHL DUP2 MSTORE PUSH1 0x4 ADD PUSH2 0xB6D SWAP1 PUSH2 0x43B3 JUMP JUMPDEST PUSH2 0x10E9 DUP3 DUP3 PUSH2 0x34EE JUMP JUMPDEST PUSH1 0x0 DUP1 PUSH2 0x3157 DUP4 PUSH2 0x1635 JUMP JUMPDEST SWAP1 POP CALLER PUSH1 0x1 PUSH1 0x1 PUSH1 0xA0 SHL SUB DUP3 AND SUB PUSH2 0x3172 JUMPI POP PUSH1 0x1 SWAP3 SWAP2 POP POP JUMP JUMPDEST CALLER PUSH2 0x317C DUP5 PUSH2 0xAD2 JUMP JUMPDEST PUSH1 0x1 PUSH1 0x1 PUSH1 0xA0 SHL SUB AND EQ DUP1 PUSH2 0x2095 JUMPI POP PUSH2 0x2095 DUP2 CALLER PUSH2 0x2761 JUMP JUMPDEST DUP2 PUSH1 0x1 PUSH1 0x1 PUSH1 0xA0 SHL SUB AND DUP4 PUSH1 0x1 PUSH1 0x1 PUSH1 0xA0 SHL SUB AND SUB PUSH2 0x31F7 JUMPI PUSH1 0x40 MLOAD PUSH3 0x461BCD PUSH1 0xE5 SHL DUP2 MSTORE PUSH1 0x20 PUSH1 0x4 DUP3 ADD MSTORE PUSH1 0x19 PUSH1 0x24 DUP3 ADD MSTORE PUSH32 0x4552433732313A20617070726F766520746F2063616C6C657200000000000000 PUSH1 0x44 DUP3 ADD MSTORE PUSH1 0x64 ADD PUSH2 0xB6D JUMP JUMPDEST PUSH1 0x1 PUSH1 0x1 PUSH1 0xA0 SHL SUB DUP4 DUP2 AND PUSH1 0x0 DUP2 DUP2 MSTORE PUSH1 0x6A PUSH1 0x20 SWAP1 DUP2 MSTORE PUSH1 0x40 DUP1 DUP4 KECCAK256 SWAP5 DUP8 AND DUP1 DUP5 MSTORE SWAP5 DUP3 MSTORE SWAP2 DUP3 SWAP1 KECCAK256 DUP1 SLOAD PUSH1 0xFF NOT AND DUP7 ISZERO ISZERO SWAP1 DUP2 OR SWAP1 SWAP2 SSTORE SWAP2 MLOAD SWAP2 DUP3 MSTORE PUSH32 0x17307EAB39AB6107E8899845AD3D59BD9653F200F220920489CA2B5937696C31 SWAP2 ADD PUSH1 0x40 MLOAD DUP1 SWAP2 SUB SWAP1 LOG3 POP POP POP JUMP JUMPDEST PUSH2 0x326F DUP5 DUP5 DUP5 PUSH2 0x2B81 JUMP JUMPDEST PUSH2 0x327B DUP5 DUP5 DUP5 DUP5 PUSH2 0x352E JUMP JUMPDEST PUSH2 0x162F JUMPI PUSH1 0x40 MLOAD PUSH3 0x461BCD PUSH1 0xE5 SHL DUP2 MSTORE PUSH1 0x4 ADD PUSH2 0xB6D SWAP1 PUSH2 0x43FE JUMP JUMPDEST PUSH2 0x28B9 DUP2 PUSH1 0x40 MLOAD PUSH1 0x24 ADD PUSH2 0x32AB SWAP2 SWAP1 PUSH2 0x38BA JUMP JUMPDEST PUSH1 0x40 DUP1 MLOAD PUSH1 0x1F NOT DUP2 DUP5 SUB ADD DUP2 MSTORE SWAP2 SWAP1 MSTORE PUSH1 0x20 DUP2 ADD DUP1 MLOAD PUSH1 0x1 PUSH1 0x1 PUSH1 0xE0 SHL SUB AND PUSH4 0x104C13EB PUSH1 0xE2 SHL OR SWAP1 MSTORE PUSH2 0x362F JUMP JUMPDEST PUSH1 0x60 PUSH1 0xD4 DUP1 SLOAD PUSH2 0xA4F SWAP1 PUSH2 0x3D31 JUMP JUMPDEST PUSH1 0x1 DUP2 GT ISZERO PUSH2 0x3358 JUMPI PUSH1 0x40 MLOAD PUSH3 0x461BCD PUSH1 0xE5 SHL DUP2 MSTORE PUSH1 0x20 PUSH1 0x4 DUP3 ADD MSTORE PUSH1 0x35 PUSH1 0x24 DUP3 ADD MSTORE PUSH32 0x455243373231456E756D657261626C653A20636F6E7365637574697665207472 PUSH1 0x44 DUP3 ADD MSTORE PUSH21 0x185B9CD9995C9CC81B9BDD081CDD5C1C1BDC9D1959 PUSH1 0x5A SHL PUSH1 0x64 DUP3 ADD MSTORE PUSH1 0x84 ADD PUSH2 0xB6D JUMP JUMPDEST DUP2 PUSH1 0x1 PUSH1 0x1 PUSH1 0xA0 SHL SUB DUP6 AND PUSH2 0x33B4 JUMPI PUSH2 0x33AF DUP2 PUSH1 0x99 DUP1 SLOAD PUSH1 0x0 DUP4 DUP2 MSTORE PUSH1 0x9A PUSH1 0x20 MSTORE PUSH1 0x40 DUP2 KECCAK256 DUP3 SWAP1 SSTORE PUSH1 0x1 DUP3 ADD DUP4 SSTORE SWAP2 SWAP1 SWAP2 MSTORE PUSH32 0x72A152DDFB8E864297C917AF52EA6C1C68AEAD0FEE1A62673FCC7E0C94979D00 ADD SSTORE JUMP JUMPDEST PUSH2 0x33D7 JUMP JUMPDEST DUP4 PUSH1 0x1 PUSH1 0x1 PUSH1 0xA0 SHL SUB AND DUP6 PUSH1 0x1 PUSH1 0x1 PUSH1 0xA0 SHL SUB AND EQ PUSH2 0x33D7 JUMPI PUSH2 0x33D7 DUP6 DUP3 PUSH2 0x3650 JUMP JUMPDEST PUSH1 0x1 PUSH1 0x1 PUSH1 0xA0 SHL SUB DUP5 AND PUSH2 0x33F3 JUMPI PUSH2 0x33EE DUP2 PUSH2 0x36ED JUMP JUMPDEST PUSH2 0x142E JUMP JUMPDEST DUP5 PUSH1 0x1 PUSH1 0x1 PUSH1 0xA0 SHL SUB AND DUP5 PUSH1 0x1 PUSH1 0x1 PUSH1 0xA0 SHL SUB AND EQ PUSH2 0x142E JUMPI PUSH2 0x142E DUP5 DUP3 PUSH2 0x379C JUMP JUMPDEST PUSH1 0x0 DUP1 PUSH19 0x184F03E93FF9F4DAA797ED6E38ED64BF6A1F01 PUSH1 0x40 SHL DUP4 LT PUSH2 0x3455 JUMPI PUSH19 0x184F03E93FF9F4DAA797ED6E38ED64BF6A1F01 PUSH1 0x40 SHL DUP4 DIV SWAP3 POP PUSH1 0x40 ADD JUMPDEST PUSH14 0x4EE2D6D415B85ACEF8100000000 DUP4 LT PUSH2 0x3481 JUMPI PUSH14 0x4EE2D6D415B85ACEF8100000000 DUP4 DIV SWAP3 POP PUSH1 0x20 ADD JUMPDEST PUSH7 0x2386F26FC10000 DUP4 LT PUSH2 0x349F JUMPI PUSH7 0x2386F26FC10000 DUP4 DIV SWAP3 POP PUSH1 0x10 ADD JUMPDEST PUSH4 0x5F5E100 DUP4 LT PUSH2 0x34B7 JUMPI PUSH4 0x5F5E100 DUP4 DIV SWAP3 POP PUSH1 0x8 ADD JUMPDEST PUSH2 0x2710 DUP4 LT PUSH2 0x34CB JUMPI PUSH2 0x2710 DUP4 DIV SWAP3 POP PUSH1 0x4 ADD JUMPDEST PUSH1 0x64 DUP4 LT PUSH2 0x34DD JUMPI PUSH1 0x64 DUP4 DIV SWAP3 POP PUSH1 0x2 ADD JUMPDEST PUSH1 0xA DUP4 LT PUSH2 0xA3A JUMPI PUSH1 0x1 ADD SWAP3 SWAP2 POP POP JUMP JUMPDEST PUSH1 0x0 SLOAD PUSH2 0x100 SWAP1 DIV PUSH1 0xFF AND PUSH2 0x3515 JUMPI PUSH1 0x40 MLOAD PUSH3 0x461BCD PUSH1 0xE5 SHL DUP2 MSTORE PUSH1 0x4 ADD PUSH2 0xB6D SWAP1 PUSH2 0x43B3 JUMP JUMPDEST PUSH1 0x65 PUSH2 0x3521 DUP4 DUP3 PUSH2 0x400D JUMP JUMPDEST POP PUSH1 0x66 PUSH2 0xC0E DUP3 DUP3 PUSH2 0x400D JUMP JUMPDEST PUSH1 0x0 PUSH1 0x1 PUSH1 0x1 PUSH1 0xA0 SHL SUB DUP5 AND EXTCODESIZE ISZERO PUSH2 0x3624 JUMPI PUSH1 0x40 MLOAD PUSH4 0xA85BD01 PUSH1 0xE1 SHL DUP2 MSTORE PUSH1 0x1 PUSH1 0x1 PUSH1 0xA0 SHL SUB DUP6 AND SWAP1 PUSH4 0x150B7A02 SWAP1 PUSH2 0x3572 SWAP1 CALLER SWAP1 DUP10 SWAP1 DUP9 SWAP1 DUP9 SWAP1 PUSH1 0x4 ADD PUSH2 0x4450 JUMP JUMPDEST PUSH1 0x20 PUSH1 0x40 MLOAD DUP1 DUP4 SUB DUP2 PUSH1 0x0 DUP8 GAS CALL SWAP3 POP POP POP DUP1 ISZERO PUSH2 0x35AD JUMPI POP PUSH1 0x40 DUP1 MLOAD PUSH1 0x1F RETURNDATASIZE SWAP1 DUP2 ADD PUSH1 0x1F NOT AND DUP3 ADD SWAP1 SWAP3 MSTORE PUSH2 0x35AA SWAP2 DUP2 ADD SWAP1 PUSH2 0x4483 JUMP JUMPDEST PUSH1 0x1 JUMPDEST PUSH2 0x360A JUMPI RETURNDATASIZE DUP1 DUP1 ISZERO PUSH2 0x35DB JUMPI PUSH1 0x40 MLOAD SWAP2 POP PUSH1 0x1F NOT PUSH1 0x3F RETURNDATASIZE ADD AND DUP3 ADD PUSH1 0x40 MSTORE RETURNDATASIZE DUP3 MSTORE RETURNDATASIZE PUSH1 0x0 PUSH1 0x20 DUP5 ADD RETURNDATACOPY PUSH2 0x35E0 JUMP JUMPDEST PUSH1 0x60 SWAP2 POP JUMPDEST POP DUP1 MLOAD PUSH1 0x0 SUB PUSH2 0x3602 JUMPI PUSH1 0x40 MLOAD PUSH3 0x461BCD PUSH1 0xE5 SHL DUP2 MSTORE PUSH1 0x4 ADD PUSH2 0xB6D SWAP1 PUSH2 0x43FE JUMP JUMPDEST DUP1 MLOAD DUP2 PUSH1 0x20 ADD REVERT JUMPDEST PUSH1 0x1 PUSH1 0x1 PUSH1 0xE0 SHL SUB NOT AND PUSH4 0xA85BD01 PUSH1 0xE1 SHL EQ SWAP1 POP PUSH2 0x23A5 JUMP JUMPDEST POP PUSH1 0x1 SWAP5 SWAP4 POP POP POP POP JUMP JUMPDEST DUP1 MLOAD PUSH11 0x636F6E736F6C652E6C6F67 PUSH1 0x20 DUP4 ADD PUSH1 0x0 DUP1 DUP5 DUP4 DUP6 GAS STATICCALL POP POP POP POP POP JUMP JUMPDEST PUSH1 0x0 PUSH1 0x1 PUSH2 0x365D DUP5 PUSH2 0x1F0F JUMP JUMPDEST PUSH2 0x3667 SWAP2 SWAP1 PUSH2 0x4135 JUMP JUMPDEST PUSH1 0x0 DUP4 DUP2 MSTORE PUSH1 0x98 PUSH1 0x20 MSTORE PUSH1 0x40 SWAP1 KECCAK256 SLOAD SWAP1 SWAP2 POP DUP1 DUP3 EQ PUSH2 0x36BA JUMPI PUSH1 0x1 PUSH1 0x1 PUSH1 0xA0 SHL SUB DUP5 AND PUSH1 0x0 SWAP1 DUP2 MSTORE PUSH1 0x97 PUSH1 0x20 SWAP1 DUP2 MSTORE PUSH1 0x40 DUP1 DUP4 KECCAK256 DUP6 DUP5 MSTORE DUP3 MSTORE DUP1 DUP4 KECCAK256 SLOAD DUP5 DUP5 MSTORE DUP2 DUP5 KECCAK256 DUP2 SWAP1 SSTORE DUP4 MSTORE PUSH1 0x98 SWAP1 SWAP2 MSTORE SWAP1 KECCAK256 DUP2 SWAP1 SSTORE JUMPDEST POP PUSH1 0x0 SWAP2 DUP3 MSTORE PUSH1 0x98 PUSH1 0x20 SWAP1 DUP2 MSTORE PUSH1 0x40 DUP1 DUP5 KECCAK256 DUP5 SWAP1 SSTORE PUSH1 0x1 PUSH1 0x1 PUSH1 0xA0 SHL SUB SWAP1 SWAP5 AND DUP4 MSTORE PUSH1 0x97 DUP2 MSTORE DUP4 DUP4 KECCAK256 SWAP2 DUP4 MSTORE MSTORE SWAP1 DUP2 KECCAK256 SSTORE JUMP JUMPDEST PUSH1 0x99 SLOAD PUSH1 0x0 SWAP1 PUSH2 0x36FF SWAP1 PUSH1 0x1 SWAP1 PUSH2 0x4135 JUMP JUMPDEST PUSH1 0x0 DUP4 DUP2 MSTORE PUSH1 0x9A PUSH1 0x20 MSTORE PUSH1 0x40 DUP2 KECCAK256 SLOAD PUSH1 0x99 DUP1 SLOAD SWAP4 SWAP5 POP SWAP1 SWAP3 DUP5 SWAP1 DUP2 LT PUSH2 0x3727 JUMPI PUSH2 0x3727 PUSH2 0x3F83 JUMP JUMPDEST SWAP1 PUSH1 0x0 MSTORE PUSH1 0x20 PUSH1 0x0 KECCAK256 ADD SLOAD SWAP1 POP DUP1 PUSH1 0x99 DUP4 DUP2 SLOAD DUP2 LT PUSH2 0x3748 JUMPI PUSH2 0x3748 PUSH2 0x3F83 JUMP JUMPDEST PUSH1 0x0 SWAP2 DUP3 MSTORE PUSH1 0x20 DUP1 DUP4 KECCAK256 SWAP1 SWAP2 ADD SWAP3 SWAP1 SWAP3 SSTORE DUP3 DUP2 MSTORE PUSH1 0x9A SWAP1 SWAP2 MSTORE PUSH1 0x40 DUP1 DUP3 KECCAK256 DUP5 SWAP1 SSTORE DUP6 DUP3 MSTORE DUP2 KECCAK256 SSTORE PUSH1 0x99 DUP1 SLOAD DUP1 PUSH2 0x3780 JUMPI PUSH2 0x3780 PUSH2 0x44A0 JUMP JUMPDEST PUSH1 0x1 SWAP1 SUB DUP2 DUP2 SWAP1 PUSH1 0x0 MSTORE PUSH1 0x20 PUSH1 0x0 KECCAK256 ADD PUSH1 0x0 SWAP1 SSTORE SWAP1 SSTORE POP POP POP POP JUMP JUMPDEST PUSH1 0x0 PUSH2 0x37A7 DUP4 PUSH2 0x1F0F JUMP JUMPDEST PUSH1 0x1 PUSH1 0x1 PUSH1 0xA0 SHL SUB SWAP1 SWAP4 AND PUSH1 0x0 SWAP1 DUP2 MSTORE PUSH1 0x97 PUSH1 0x20 SWAP1 DUP2 MSTORE PUSH1 0x40 DUP1 DUP4 KECCAK256 DUP7 DUP5 MSTORE DUP3 MSTORE DUP1 DUP4 KECCAK256 DUP6 SWAP1 SSTORE SWAP4 DUP3 MSTORE PUSH1 0x98 SWAP1 MSTORE SWAP2 SWAP1 SWAP2 KECCAK256 SWAP2 SWAP1 SWAP2 SSTORE POP JUMP JUMPDEST DUP3 DUP1 SLOAD DUP3 DUP3 SSTORE SWAP1 PUSH1 0x0 MSTORE PUSH1 0x20 PUSH1 0x0 KECCAK256 SWAP1 DUP2 ADD SWAP3 DUP3 ISZERO PUSH2 0x381B JUMPI SWAP2 PUSH1 0x20 MUL DUP3 ADD JUMPDEST DUP3 DUP2 GT ISZERO PUSH2 0x381B JUMPI DUP3 MLOAD DUP3 SSTORE SWAP2 PUSH1 0x20 ADD SWAP2 SWAP1 PUSH1 0x1 ADD SWAP1 PUSH2 0x3800 JUMP JUMPDEST POP PUSH2 0x275D SWAP3 SWAP2 POP JUMPDEST DUP1 DUP3 GT ISZERO PUSH2 0x275D JUMPI PUSH1 0x0 DUP2 SSTORE PUSH1 0x1 ADD PUSH2 0x3823 JUMP JUMPDEST PUSH1 0x1 PUSH1 0x1 PUSH1 0xE0 SHL SUB NOT DUP2 AND DUP2 EQ PUSH2 0x28B9 JUMPI PUSH1 0x0 DUP1 REVERT JUMPDEST PUSH1 0x0 PUSH1 0x20 DUP3 DUP5 SUB SLT ISZERO PUSH2 0x385F JUMPI PUSH1 0x0 DUP1 REVERT JUMPDEST DUP2 CALLDATALOAD PUSH2 0x2095 DUP2 PUSH2 0x3837 JUMP JUMPDEST PUSH1 0x0 JUMPDEST DUP4 DUP2 LT ISZERO PUSH2 0x3885 JUMPI DUP2 DUP2 ADD MLOAD DUP4 DUP3 ADD MSTORE PUSH1 0x20 ADD PUSH2 0x386D JUMP JUMPDEST POP POP PUSH1 0x0 SWAP2 ADD MSTORE JUMP JUMPDEST PUSH1 0x0 DUP2 MLOAD DUP1 DUP5 MSTORE PUSH2 0x38A6 DUP2 PUSH1 0x20 DUP7 ADD PUSH1 0x20 DUP7 ADD PUSH2 0x386A JUMP JUMPDEST PUSH1 0x1F ADD PUSH1 0x1F NOT AND SWAP3 SWAP1 SWAP3 ADD PUSH1 0x20 ADD SWAP3 SWAP2 POP POP JUMP JUMPDEST PUSH1 0x20 DUP2 MSTORE PUSH1 0x0 PUSH2 0x2095 PUSH1 0x20 DUP4 ADD DUP5 PUSH2 0x388E JUMP JUMPDEST PUSH1 0x0 PUSH1 0x20 DUP3 DUP5 SUB SLT ISZERO PUSH2 0x38DF JUMPI PUSH1 0x0 DUP1 REVERT JUMPDEST POP CALLDATALOAD SWAP2 SWAP1 POP JUMP JUMPDEST PUSH1 0x1 PUSH1 0x1 PUSH1 0xA0 SHL SUB DUP2 AND DUP2 EQ PUSH2 0x28B9 JUMPI PUSH1 0x0 DUP1 REVERT JUMPDEST PUSH1 0x0 DUP1 PUSH1 0x40 DUP4 DUP6 SUB SLT ISZERO PUSH2 0x390E JUMPI PUSH1 0x0 DUP1 REVERT JUMPDEST DUP3 CALLDATALOAD PUSH2 0x3919 DUP2 PUSH2 0x38E6 JUMP JUMPDEST SWAP5 PUSH1 0x20 SWAP4 SWAP1 SWAP4 ADD CALLDATALOAD SWAP4 POP POP POP JUMP JUMPDEST PUSH1 0x0 PUSH1 0x20 DUP3 DUP5 SUB SLT ISZERO PUSH2 0x3939 JUMPI PUSH1 0x0 DUP1 REVERT JUMPDEST DUP2 CALLDATALOAD PUSH2 0x2095 DUP2 PUSH2 0x38E6 JUMP JUMPDEST PUSH1 0x0 DUP1 PUSH1 0x0 PUSH1 0x60 DUP5 DUP7 SUB SLT ISZERO PUSH2 0x3959 JUMPI PUSH1 0x0 DUP1 REVERT JUMPDEST DUP4 CALLDATALOAD PUSH2 0x3964 DUP2 PUSH2 0x38E6 JUMP JUMPDEST SWAP3 POP PUSH1 0x20 DUP5 ADD CALLDATALOAD PUSH2 0x3974 DUP2 PUSH2 0x38E6 JUMP JUMPDEST SWAP3 SWAP6 SWAP3 SWAP5 POP POP POP PUSH1 0x40 SWAP2 SWAP1 SWAP2 ADD CALLDATALOAD SWAP1 JUMP JUMPDEST PUSH1 0x0 DUP1 DUP4 PUSH1 0x1F DUP5 ADD SLT PUSH2 0x3997 JUMPI PUSH1 0x0 DUP1 REVERT JUMPDEST POP DUP2 CALLDATALOAD PUSH1 0x1 PUSH1 0x1 PUSH1 0x40 SHL SUB DUP2 GT ISZERO PUSH2 0x39AE JUMPI PUSH1 0x0 DUP1 REVERT JUMPDEST PUSH1 0x20 DUP4 ADD SWAP2 POP DUP4 PUSH1 0x20 DUP3 DUP6 ADD ADD GT ISZERO PUSH2 0x39C6 JUMPI PUSH1 0x0 DUP1 REVERT JUMPDEST SWAP3 POP SWAP3 SWAP1 POP JUMP JUMPDEST PUSH1 0x0 DUP1 PUSH1 0x20 DUP4 DUP6 SUB SLT ISZERO PUSH2 0x39E0 JUMPI PUSH1 0x0 DUP1 REVERT JUMPDEST DUP3 CALLDATALOAD PUSH1 0x1 PUSH1 0x1 PUSH1 0x40 SHL SUB DUP2 GT ISZERO PUSH2 0x39F6 JUMPI PUSH1 0x0 DUP1 REVERT JUMPDEST PUSH2 0x3A02 DUP6 DUP3 DUP7 ADD PUSH2 0x3985 JUMP JUMPDEST SWAP1 SWAP7 SWAP1 SWAP6 POP SWAP4 POP POP POP POP JUMP JUMPDEST PUSH1 0x0 DUP1 PUSH1 0x0 DUP1 PUSH1 0x40 DUP6 DUP8 SUB SLT ISZERO PUSH2 0x3A24 JUMPI PUSH1 0x0 DUP1 REVERT JUMPDEST DUP5 CALLDATALOAD PUSH1 0x1 PUSH1 0x1 PUSH1 0x40 SHL SUB DUP1 DUP3 GT ISZERO PUSH2 0x3A3B JUMPI PUSH1 0x0 DUP1 REVERT JUMPDEST PUSH2 0x3A47 DUP9 DUP4 DUP10 ADD PUSH2 0x3985 JUMP JUMPDEST SWAP1 SWAP7 POP SWAP5 POP PUSH1 0x20 DUP8 ADD CALLDATALOAD SWAP2 POP DUP1 DUP3 GT ISZERO PUSH2 0x3A60 JUMPI PUSH1 0x0 DUP1 REVERT JUMPDEST POP PUSH2 0x3A6D DUP8 DUP3 DUP9 ADD PUSH2 0x3985 JUMP JUMPDEST SWAP6 SWAP9 SWAP5 SWAP8 POP SWAP6 POP POP POP POP JUMP JUMPDEST PUSH1 0x0 DUP1 DUP4 PUSH1 0x1F DUP5 ADD SLT PUSH2 0x3A8B JUMPI PUSH1 0x0 DUP1 REVERT JUMPDEST POP DUP2 CALLDATALOAD PUSH1 0x1 PUSH1 0x1 PUSH1 0x40 SHL SUB DUP2 GT ISZERO PUSH2 0x3AA2 JUMPI PUSH1 0x0 DUP1 REVERT JUMPDEST PUSH1 0x20 DUP4 ADD SWAP2 POP DUP4 PUSH1 0x20 DUP3 PUSH1 0x5 SHL DUP6 ADD ADD GT ISZERO PUSH2 0x39C6 JUMPI PUSH1 0x0 DUP1 REVERT JUMPDEST PUSH1 0x0 DUP1 PUSH1 0x20 DUP4 DUP6 SUB SLT ISZERO PUSH2 0x3AD0 JUMPI PUSH1 0x0 DUP1 REVERT JUMPDEST DUP3 CALLDATALOAD PUSH1 0x1 PUSH1 0x1 PUSH1 0x40 SHL SUB DUP2 GT ISZERO PUSH2 0x3AE6 JUMPI PUSH1 0x0 DUP1 REVERT JUMPDEST PUSH2 0x3A02 DUP6 DUP3 DUP7 ADD PUSH2 0x3A79 JUMP JUMPDEST PUSH1 0x0 DUP1 PUSH1 0x40 DUP4 DUP6 SUB SLT ISZERO PUSH2 0x3B05 JUMPI PUSH1 0x0 DUP1 REVERT JUMPDEST POP POP DUP1 CALLDATALOAD SWAP3 PUSH1 0x20 SWAP1 SWAP2 ADD CALLDATALOAD SWAP2 POP JUMP JUMPDEST PUSH1 0x0 PUSH2 0x120 DUP1 DUP4 DUP6 SUB SLT ISZERO PUSH2 0x3B28 JUMPI PUSH1 0x0 DUP1 REVERT JUMPDEST DUP4 DUP2 DUP5 ADD GT ISZERO PUSH2 0x3B37 JUMPI PUSH1 0x0 DUP1 REVERT JUMPDEST POP SWAP1 SWAP3 SWAP2 POP POP JUMP JUMPDEST PUSH1 0x0 PUSH2 0x120 DUP12 DUP4 MSTORE PUSH1 0x20 DUP12 DUP2 DUP6 ADD MSTORE DUP2 PUSH1 0x40 DUP6 ADD MSTORE PUSH2 0x3B60 DUP3 DUP6 ADD DUP13 PUSH2 0x388E JUMP JUMPDEST SWAP2 POP PUSH2 0xFFFF DUP11 AND PUSH1 0x60 DUP6 ADD MSTORE DUP9 PUSH1 0x80 DUP6 ADD MSTORE DUP8 PUSH1 0xA0 DUP6 ADD MSTORE DUP7 PUSH1 0xC0 DUP6 ADD MSTORE DUP6 PUSH1 0xE0 DUP6 ADD MSTORE DUP4 DUP3 SUB PUSH2 0x100 DUP6 ADD MSTORE DUP2 DUP6 MLOAD DUP1 DUP5 MSTORE DUP3 DUP5 ADD SWAP2 POP DUP3 DUP8 ADD SWAP4 POP PUSH1 0x0 JUMPDEST DUP2 DUP2 LT ISZERO PUSH2 0x3BBC JUMPI DUP5 MLOAD DUP4 MSTORE SWAP4 DUP4 ADD SWAP4 SWAP2 DUP4 ADD SWAP2 PUSH1 0x1 ADD PUSH2 0x3BA0 JUMP JUMPDEST POP SWAP1 SWAP15 SWAP14 POP POP POP POP POP POP POP POP POP POP POP POP POP POP JUMP JUMPDEST PUSH1 0x0 DUP1 PUSH1 0x40 DUP4 DUP6 SUB SLT ISZERO PUSH2 0x3BE3 JUMPI PUSH1 0x0 DUP1 REVERT JUMPDEST DUP3 CALLDATALOAD PUSH2 0x3BEE DUP2 PUSH2 0x38E6 JUMP JUMPDEST SWAP2 POP PUSH1 0x20 DUP4 ADD CALLDATALOAD DUP1 ISZERO ISZERO DUP2 EQ PUSH2 0x3C03 JUMPI PUSH1 0x0 DUP1 REVERT JUMPDEST DUP1 SWAP2 POP POP SWAP3 POP SWAP3 SWAP1 POP JUMP JUMPDEST PUSH4 0x4E487B71 PUSH1 0xE0 SHL PUSH1 0x0 MSTORE PUSH1 0x41 PUSH1 0x4 MSTORE PUSH1 0x24 PUSH1 0x0 REVERT JUMPDEST PUSH1 0x0 DUP1 PUSH1 0x0 DUP1 PUSH1 0x80 DUP6 DUP8 SUB SLT ISZERO PUSH2 0x3C3A JUMPI PUSH1 0x0 DUP1 REVERT JUMPDEST DUP5 CALLDATALOAD PUSH2 0x3C45 DUP2 PUSH2 0x38E6 JUMP JUMPDEST SWAP4 POP PUSH1 0x20 DUP6 ADD CALLDATALOAD PUSH2 0x3C55 DUP2 PUSH2 0x38E6 JUMP JUMPDEST SWAP3 POP PUSH1 0x40 DUP6 ADD CALLDATALOAD SWAP2 POP PUSH1 0x60 DUP6 ADD CALLDATALOAD PUSH1 0x1 PUSH1 0x1 PUSH1 0x40 SHL SUB DUP1 DUP3 GT ISZERO PUSH2 0x3C78 JUMPI PUSH1 0x0 DUP1 REVERT JUMPDEST DUP2 DUP8 ADD SWAP2 POP DUP8 PUSH1 0x1F DUP4 ADD SLT PUSH2 0x3C8C JUMPI PUSH1 0x0 DUP1 REVERT JUMPDEST DUP2 CALLDATALOAD DUP2 DUP2 GT ISZERO PUSH2 0x3C9E JUMPI PUSH2 0x3C9E PUSH2 0x3C0E JUMP JUMPDEST PUSH1 0x40 MLOAD PUSH1 0x1F DUP3 ADD PUSH1 0x1F NOT SWAP1 DUP2 AND PUSH1 0x3F ADD AND DUP2 ADD SWAP1 DUP4 DUP3 GT DUP2 DUP4 LT OR ISZERO PUSH2 0x3CC6 JUMPI PUSH2 0x3CC6 PUSH2 0x3C0E JUMP JUMPDEST DUP2 PUSH1 0x40 MSTORE DUP3 DUP2 MSTORE DUP11 PUSH1 0x20 DUP5 DUP8 ADD ADD GT ISZERO PUSH2 0x3CDF JUMPI PUSH1 0x0 DUP1 REVERT JUMPDEST DUP3 PUSH1 0x20 DUP7 ADD PUSH1 0x20 DUP4 ADD CALLDATACOPY PUSH1 0x0 PUSH1 0x20 DUP5 DUP4 ADD ADD MSTORE DUP1 SWAP6 POP POP POP POP POP POP SWAP3 SWAP6 SWAP2 SWAP5 POP SWAP3 POP JUMP JUMPDEST PUSH1 0x0 DUP1 PUSH1 0x40 DUP4 DUP6 SUB SLT ISZERO PUSH2 0x3D16 JUMPI PUSH1 0x0 DUP1 REVERT JUMPDEST DUP3 CALLDATALOAD PUSH2 0x3D21 DUP2 PUSH2 0x38E6 JUMP JUMPDEST SWAP2 POP PUSH1 0x20 DUP4 ADD CALLDATALOAD PUSH2 0x3C03 DUP2 PUSH2 0x38E6 JUMP JUMPDEST PUSH1 0x1 DUP2 DUP2 SHR SWAP1 DUP3 AND DUP1 PUSH2 0x3D45 JUMPI PUSH1 0x7F DUP3 AND SWAP2 POP JUMPDEST PUSH1 0x20 DUP3 LT DUP2 SUB PUSH2 0x3D65 JUMPI PUSH4 0x4E487B71 PUSH1 0xE0 SHL PUSH1 0x0 MSTORE PUSH1 0x22 PUSH1 0x4 MSTORE PUSH1 0x24 PUSH1 0x0 REVERT JUMPDEST POP SWAP2 SWAP1 POP JUMP JUMPDEST PUSH4 0x4E487B71 PUSH1 0xE0 SHL PUSH1 0x0 MSTORE PUSH1 0x11 PUSH1 0x4 MSTORE PUSH1 0x24 PUSH1 0x0 REVERT JUMPDEST DUP1 DUP3 ADD DUP1 DUP3 GT ISZERO PUSH2 0xA3A JUMPI PUSH2 0xA3A PUSH2 0x3D6B JUMP JUMPDEST PUSH4 0xFFFFFFFF DUP2 DUP2 AND DUP4 DUP3 AND ADD SWAP1 DUP1 DUP3 GT ISZERO PUSH2 0x3DB1 JUMPI PUSH2 0x3DB1 PUSH2 0x3D6B JUMP JUMPDEST POP SWAP3 SWAP2 POP POP JUMP JUMPDEST PUSH1 0x0 PUSH1 0x1 DUP3 ADD PUSH2 0x3DCA JUMPI PUSH2 0x3DCA PUSH2 0x3D6B JUMP JUMPDEST POP PUSH1 0x1 ADD SWAP1 JUMP JUMPDEST PUSH1 0x20 DUP1 DUP3 MSTORE PUSH1 0x13 SWAP1 DUP3 ADD MSTORE PUSH19 0x21B0B63632B91034B9903737BA1020B236B4B7 PUSH1 0x69 SHL PUSH1 0x40 DUP3 ADD MSTORE PUSH1 0x60 ADD SWAP1 JUMP JUMPDEST PUSH1 0x20 DUP1 DUP3 MSTORE PUSH1 0x2D SWAP1 DUP3 ADD MSTORE PUSH32 0x4552433732313A2063616C6C6572206973206E6F7420746F6B656E206F776E65 PUSH1 0x40 DUP3 ADD MSTORE PUSH13 0x1C881BDC88185C1C1C9BDD9959 PUSH1 0x9A SHL PUSH1 0x60 DUP3 ADD MSTORE PUSH1 0x80 ADD SWAP1 JUMP JUMPDEST PUSH1 0x20 DUP1 DUP3 MSTORE PUSH1 0x11 SWAP1 DUP3 ADD MSTORE PUSH17 0x43616C6C6572206973206E6F7420434F4F PUSH1 0x78 SHL PUSH1 0x40 DUP3 ADD MSTORE PUSH1 0x60 ADD SWAP1 JUMP JUMPDEST PUSH1 0x1F DUP3 GT ISZERO PUSH2 0xC0E JUMPI PUSH1 0x0 DUP2 DUP2 MSTORE PUSH1 0x20 DUP2 KECCAK256 PUSH1 0x1F DUP6 ADD PUSH1 0x5 SHR DUP2 ADD PUSH1 0x20 DUP7 LT ISZERO PUSH2 0x3E9D JUMPI POP DUP1 JUMPDEST PUSH1 0x1F DUP6 ADD PUSH1 0x5 SHR DUP3 ADD SWAP2 POP JUMPDEST DUP2 DUP2 LT ISZERO PUSH2 0x3EBC JUMPI DUP3 DUP2 SSTORE PUSH1 0x1 ADD PUSH2 0x3EA9 JUMP JUMPDEST POP POP POP POP POP POP JUMP JUMPDEST PUSH1 0x1 PUSH1 0x1 PUSH1 0x40 SHL SUB DUP4 GT ISZERO PUSH2 0x3EDB JUMPI PUSH2 0x3EDB PUSH2 0x3C0E JUMP JUMPDEST PUSH2 0x3EEF DUP4 PUSH2 0x3EE9 DUP4 SLOAD PUSH2 0x3D31 JUMP JUMPDEST DUP4 PUSH2 0x3E76 JUMP JUMPDEST PUSH1 0x0 PUSH1 0x1F DUP5 GT PUSH1 0x1 DUP2 EQ PUSH2 0x3F23 JUMPI PUSH1 0x0 DUP6 ISZERO PUSH2 0x3F0B JUMPI POP DUP4 DUP3 ADD CALLDATALOAD JUMPDEST PUSH1 0x0 NOT PUSH1 0x3 DUP8 SWAP1 SHL SHR NOT AND PUSH1 0x1 DUP7 SWAP1 SHL OR DUP4 SSTORE PUSH2 0x142E JUMP JUMPDEST PUSH1 0x0 DUP4 DUP2 MSTORE PUSH1 0x20 SWAP1 KECCAK256 PUSH1 0x1F NOT DUP7 AND SWAP1 DUP4 JUMPDEST DUP3 DUP2 LT ISZERO PUSH2 0x3F54 JUMPI DUP7 DUP6 ADD CALLDATALOAD DUP3 SSTORE PUSH1 0x20 SWAP5 DUP6 ADD SWAP5 PUSH1 0x1 SWAP1 SWAP3 ADD SWAP2 ADD PUSH2 0x3F34 JUMP JUMPDEST POP DUP7 DUP3 LT ISZERO PUSH2 0x3F71 JUMPI PUSH1 0x0 NOT PUSH1 0xF8 DUP9 PUSH1 0x3 SHL AND SHR NOT DUP5 DUP8 ADD CALLDATALOAD AND DUP2 SSTORE JUMPDEST POP POP PUSH1 0x1 DUP6 PUSH1 0x1 SHL ADD DUP4 SSTORE POP POP POP POP POP JUMP JUMPDEST PUSH4 0x4E487B71 PUSH1 0xE0 SHL PUSH1 0x0 MSTORE PUSH1 0x32 PUSH1 0x4 MSTORE PUSH1 0x24 PUSH1 0x0 REVERT JUMPDEST PUSH4 0x3C101E9 PUSH1 0xE5 SHL DUP2 MSTORE PUSH1 0x0 DUP5 MLOAD PUSH2 0x3FB8 DUP2 PUSH1 0x4 DUP6 ADD PUSH1 0x20 DUP10 ADD PUSH2 0x386A JUMP JUMPDEST PUSH6 0x16103C901E9 PUSH1 0xD5 SHL PUSH1 0x4 SWAP2 DUP5 ADD SWAP2 DUP3 ADD MSTORE DUP5 MLOAD PUSH2 0x3FDE DUP2 PUSH1 0xA DUP5 ADD PUSH1 0x20 DUP10 ADD PUSH2 0x386A JUMP JUMPDEST PUSH1 0x5 PUSH1 0xF9 SHL PUSH1 0xA SWAP3 SWAP1 SWAP2 ADD SWAP2 DUP3 ADD MSTORE DUP4 MLOAD PUSH2 0x4000 DUP2 PUSH1 0xB DUP5 ADD PUSH1 0x20 DUP9 ADD PUSH2 0x386A JUMP JUMPDEST ADD PUSH1 0xB ADD SWAP6 SWAP5 POP POP POP POP POP JUMP JUMPDEST DUP2 MLOAD PUSH1 0x1 PUSH1 0x1 PUSH1 0x40 SHL SUB DUP2 GT ISZERO PUSH2 0x4026 JUMPI PUSH2 0x4026 PUSH2 0x3C0E JUMP JUMPDEST PUSH2 0x403A DUP2 PUSH2 0x4034 DUP5 SLOAD PUSH2 0x3D31 JUMP JUMPDEST DUP5 PUSH2 0x3E76 JUMP JUMPDEST PUSH1 0x20 DUP1 PUSH1 0x1F DUP4 GT PUSH1 0x1 DUP2 EQ PUSH2 0x406F JUMPI PUSH1 0x0 DUP5 ISZERO PUSH2 0x4057 JUMPI POP DUP6 DUP4 ADD MLOAD JUMPDEST PUSH1 0x0 NOT PUSH1 0x3 DUP7 SWAP1 SHL SHR NOT AND PUSH1 0x1 DUP6 SWAP1 SHL OR DUP6 SSTORE PUSH2 0x3EBC JUMP JUMPDEST PUSH1 0x0 DUP6 DUP2 MSTORE PUSH1 0x20 DUP2 KECCAK256 PUSH1 0x1F NOT DUP7 AND SWAP2 JUMPDEST DUP3 DUP2 LT ISZERO PUSH2 0x409E JUMPI DUP9 DUP7 ADD MLOAD DUP3 SSTORE SWAP5 DUP5 ADD SWAP5 PUSH1 0x1 SWAP1 SWAP2 ADD SWAP1 DUP5 ADD PUSH2 0x407F JUMP JUMPDEST POP DUP6 DUP3 LT ISZERO PUSH2 0x40BC JUMPI DUP8 DUP6 ADD MLOAD PUSH1 0x0 NOT PUSH1 0x3 DUP9 SWAP1 SHL PUSH1 0xF8 AND SHR NOT AND DUP2 SSTORE JUMPDEST POP POP POP POP POP PUSH1 0x1 SWAP1 DUP2 SHL ADD SWAP1 SSTORE POP JUMP JUMPDEST PUSH1 0x1 PUSH1 0x1 PUSH1 0x40 SHL SUB DUP2 DUP2 AND DUP4 DUP3 AND ADD SWAP1 DUP1 DUP3 GT ISZERO PUSH2 0x3DB1 JUMPI PUSH2 0x3DB1 PUSH2 0x3D6B JUMP JUMPDEST PUSH1 0x0 DUP1 DUP4 CALLDATALOAD PUSH1 0x1E NOT DUP5 CALLDATASIZE SUB ADD DUP2 SLT PUSH2 0x4103 JUMPI PUSH1 0x0 DUP1 REVERT JUMPDEST DUP4 ADD DUP1 CALLDATALOAD SWAP2 POP PUSH1 0x1 PUSH1 0x1 PUSH1 0x40 SHL SUB DUP3 GT ISZERO PUSH2 0x411D JUMPI PUSH1 0x0 DUP1 REVERT JUMPDEST PUSH1 0x20 ADD SWAP2 POP PUSH1 0x5 DUP2 SWAP1 SHL CALLDATASIZE SUB DUP3 SGT ISZERO PUSH2 0x39C6 JUMPI PUSH1 0x0 DUP1 REVERT JUMPDEST DUP2 DUP2 SUB DUP2 DUP2 GT ISZERO PUSH2 0xA3A JUMPI PUSH2 0xA3A PUSH2 0x3D6B JUMP JUMPDEST PUSH4 0x4E487B71 PUSH1 0xE0 SHL PUSH1 0x0 MSTORE PUSH1 0x12 PUSH1 0x4 MSTORE PUSH1 0x24 PUSH1 0x0 REVERT JUMPDEST PUSH1 0x0 DUP3 PUSH2 0x416D JUMPI PUSH2 0x416D PUSH2 0x4148 JUMP JUMPDEST POP MOD SWAP1 JUMP JUMPDEST DUP1 DUP3 MUL DUP2 ISZERO DUP3 DUP3 DIV DUP5 EQ OR PUSH2 0xA3A JUMPI PUSH2 0xA3A PUSH2 0x3D6B JUMP JUMPDEST PUSH1 0x0 DUP3 PUSH2 0x4198 JUMPI PUSH2 0x4198 PUSH2 0x4148 JUMP JUMPDEST POP DIV SWAP1 JUMP JUMPDEST PUSH4 0xFFFFFFFF DUP2 DUP2 AND DUP4 DUP3 AND MUL DUP1 DUP3 AND SWAP2 SWAP1 DUP3 DUP2 EQ PUSH2 0x41BD JUMPI PUSH2 0x41BD PUSH2 0x3D6B JUMP JUMPDEST POP POP SWAP3 SWAP2 POP POP JUMP JUMPDEST DUP4 DUP2 MSTORE DUP3 PUSH1 0x20 DUP3 ADD MSTORE PUSH1 0x0 DUP3 MLOAD PUSH2 0x41E3 DUP2 PUSH1 0x40 DUP6 ADD PUSH1 0x20 DUP8 ADD PUSH2 0x386A JUMP JUMPDEST SWAP2 SWAP1 SWAP2 ADD PUSH1 0x40 ADD SWAP5 SWAP4 POP POP POP POP JUMP JUMPDEST PUSH1 0x0 PUSH1 0x20 DUP3 DUP5 SUB SLT ISZERO PUSH2 0x4204 JUMPI PUSH1 0x0 DUP1 REVERT JUMPDEST DUP2 CALLDATALOAD PUSH1 0xFF DUP2 AND DUP2 EQ PUSH2 0x2095 JUMPI PUSH1 0x0 DUP1 REVERT JUMPDEST PUSH1 0xFF DUP2 DUP2 AND DUP4 DUP3 AND ADD SWAP1 DUP2 GT ISZERO PUSH2 0xA3A JUMPI PUSH2 0xA3A PUSH2 0x3D6B JUMP JUMPDEST PUSH2 0xFFFF DUP2 DUP2 AND DUP4 DUP3 AND MUL DUP1 DUP3 AND SWAP2 SWAP1 DUP3 DUP2 EQ PUSH2 0x41BD JUMPI PUSH2 0x41BD PUSH2 0x3D6B JUMP JUMPDEST PUSH1 0x0 DUP3 MLOAD PUSH2 0x425E DUP2 DUP5 PUSH1 0x20 DUP8 ADD PUSH2 0x386A JUMP JUMPDEST PUSH1 0x31 PUSH1 0xF8 SHL SWAP3 ADD SWAP2 DUP3 MSTORE POP PUSH1 0x1 ADD SWAP2 SWAP1 POP JUMP JUMPDEST PUSH1 0x0 DUP3 MLOAD PUSH2 0x4283 DUP2 DUP5 PUSH1 0x20 DUP8 ADD PUSH2 0x386A JUMP JUMPDEST PUSH1 0x3 PUSH1 0xFC SHL SWAP3 ADD SWAP2 DUP3 MSTORE POP PUSH1 0x1 ADD SWAP2 SWAP1 POP JUMP JUMPDEST PUSH1 0x0 DUP2 PUSH2 0x42A5 JUMPI PUSH2 0x42A5 PUSH2 0x3D6B JUMP JUMPDEST POP PUSH1 0x0 NOT ADD SWAP1 JUMP JUMPDEST PUSH1 0x0 DUP4 MLOAD PUSH2 0x42BF DUP2 DUP5 PUSH1 0x20 DUP9 ADD PUSH2 0x386A JUMP JUMPDEST DUP4 MLOAD SWAP1 DUP4 ADD SWAP1 PUSH2 0x42D3 DUP2 DUP4 PUSH1 0x20 DUP9 ADD PUSH2 0x386A JUMP JUMPDEST ADD SWAP5 SWAP4 POP POP POP POP JUMP JUMPDEST PUSH1 0x20 DUP1 DUP3 MSTORE PUSH1 0x25 SWAP1 DUP3 ADD MSTORE PUSH32 0x4552433732313A207472616E736665722066726F6D20696E636F727265637420 PUSH1 0x40 DUP3 ADD MSTORE PUSH5 0x37BBB732B9 PUSH1 0xD9 SHL PUSH1 0x60 DUP3 ADD MSTORE PUSH1 0x80 ADD SWAP1 JUMP JUMPDEST PUSH1 0x0 DUP5 MLOAD PUSH2 0x4333 DUP2 DUP5 PUSH1 0x20 DUP10 ADD PUSH2 0x386A JUMP JUMPDEST DUP5 MLOAD SWAP1 DUP4 ADD SWAP1 PUSH2 0x4347 DUP2 DUP4 PUSH1 0x20 DUP10 ADD PUSH2 0x386A JUMP JUMPDEST DUP5 MLOAD SWAP2 ADD SWAP1 PUSH2 0x435A DUP2 DUP4 PUSH1 0x20 DUP9 ADD PUSH2 0x386A JUMP JUMPDEST ADD SWAP6 SWAP5 POP POP POP POP POP JUMP JUMPDEST PUSH1 0x0 DUP5 MLOAD PUSH2 0x4376 DUP2 DUP5 PUSH1 0x20 DUP10 ADD PUSH2 0x386A JUMP JUMPDEST DUP5 MLOAD SWAP1 DUP4 ADD SWAP1 PUSH2 0x438A DUP2 DUP4 PUSH1 0x20 DUP10 ADD PUSH2 0x386A JUMP JUMPDEST DUP5 MLOAD SWAP2 ADD SWAP1 PUSH2 0x439D DUP2 DUP4 PUSH1 0x20 DUP9 ADD PUSH2 0x386A JUMP JUMPDEST PUSH1 0x9 PUSH1 0xFA SHL SWAP2 ADD SWAP1 DUP2 MSTORE PUSH1 0x1 ADD SWAP6 SWAP5 POP POP POP POP POP JUMP JUMPDEST PUSH1 0x20 DUP1 DUP3 MSTORE PUSH1 0x2B SWAP1 DUP3 ADD MSTORE PUSH32 0x496E697469616C697A61626C653A20636F6E7472616374206973206E6F742069 PUSH1 0x40 DUP3 ADD MSTORE PUSH11 0x6E697469616C697A696E67 PUSH1 0xA8 SHL PUSH1 0x60 DUP3 ADD MSTORE PUSH1 0x80 ADD SWAP1 JUMP JUMPDEST PUSH1 0x20 DUP1 DUP3 MSTORE PUSH1 0x32 SWAP1 DUP3 ADD MSTORE PUSH32 0x4552433732313A207472616E7366657220746F206E6F6E204552433732315265 PUSH1 0x40 DUP3 ADD MSTORE PUSH18 0x31B2B4BB32B91034B6B83632B6B2B73A32B9 PUSH1 0x71 SHL PUSH1 0x60 DUP3 ADD MSTORE PUSH1 0x80 ADD SWAP1 JUMP JUMPDEST PUSH1 0x1 PUSH1 0x1 PUSH1 0xA0 SHL SUB DUP6 DUP2 AND DUP3 MSTORE DUP5 AND PUSH1 0x20 DUP3 ADD MSTORE PUSH1 0x40 DUP2 ADD DUP4 SWAP1 MSTORE PUSH1 0x80 PUSH1 0x60 DUP3 ADD DUP2 SWAP1 MSTORE PUSH1 0x0 SWAP1 PUSH2 0x2004 SWAP1 DUP4 ADD DUP5 PUSH2 0x388E JUMP JUMPDEST PUSH1 0x0 PUSH1 0x20 DUP3 DUP5 SUB SLT ISZERO PUSH2 0x4495 JUMPI PUSH1 0x0 DUP1 REVERT JUMPDEST DUP2 MLOAD PUSH2 0x2095 DUP2 PUSH2 0x3837 JUMP JUMPDEST PUSH4 0x4E487B71 PUSH1 0xE0 SHL PUSH1 0x0 MSTORE PUSH1 0x31 PUSH1 0x4 MSTORE PUSH1 0x24 PUSH1 0x0 REVERT INVALID LOG2 PUSH5 0x6970667358 0x22 SLT KECCAK256 RETURN DUP12 MSIZE SHL STATICCALL 0xE8 0xA7 DUP2 MLOAD 0xE5 KECCAK256 SWAP10 CHAINID 0x2A PC SHL PUSH14 0x9B8A1F5837124988303CF742EFAE PUSH7 0x64736F6C634300 ADDMOD SLT STOP CALLER "
		},
		"gasEstimates": {
			"creation": {
				"codeDepositCost": "3528800",
				"executionCost": "infinite",
				"totalCost": "infinite"
			},
			"external": {
				"BLOCK_TIME()": "infinite",
				"EVOLUTION_TIME()": "infinite",
				"LIMIT_MINT_NUM()": "infinite",
				"MAX_APES()": "infinite",
				"MAX_NUMBER()": "infinite",
				"MAX_SUPPLY()": "infinite",
				"addWhiteList(address[])": "infinite",
				"adminAddress()": "2447",
				"approve(address,uint256)": "infinite",
				"balanceOf(address)": "2717",
				"buildPrice()": "2341",
				"changeAdmin(address)": "26817",
				"changeBaseURL(string)": "infinite",
				"changeCooAddress(address)": "26794",
				"changeCtoAddress(address)": "26817",
				"combinable(uint256)": "7030",
				"combineCells(uint256[][])": "infinite",
				"cooAddress()": "2382",
				"ctoAddress()": "2427",
				"current_round_number()": "2451",
				"getApproved(uint256)": "4815",
				"getCellula(uint256)": "infinite",
				"getEvolutionaryAlgebra(uint256)": "infinite",
				"getEvolve(uint256,uint256)": "infinite",
				"getGenesSequence(uint256)": "infinite",
				"getRLESting(uint256)": "infinite",
				"getRandomNumber()": "infinite",
				"initialize(string,string)": "infinite",
				"isApprovedForAll(address,address)": "infinite",
				"isWhiteList(address)": "2620",
				"lifeBaseRules(uint8[9])": "infinite",
				"mint()": "infinite",
				"mintPrice()": "2407",
				"mintedNum()": "2430",
				"name()": "infinite",
				"ownerOf(uint256)": "2606",
				"safeTransferFrom(address,address,uint256)": "infinite",
				"safeTransferFrom(address,address,uint256,bytes)": "infinite",
				"setApprovalForAll(address,bool)": "26810",
				"setBuildPrice(uint256)": "24554",
				"setMintPrice(uint256)": "24575",
				"supportsInterface(bytes4)": "infinite",
				"symbol()": "infinite",
				"tokenByIndex(uint256)": "6804",
				"tokenOfOwnerByIndex(address,uint256)": "5014",
				"tokenURI(uint256)": "infinite",
				"totalSupply()": "2338",
				"transferFrom(address,address,uint256)": "infinite",
				"userMintNum(address)": "2574",
				"whiteList(address)": "2582",
				"withdraw(uint256)": "infinite"
			},
			"internal": {
				"_baseURI()": "infinite",
				"decodeGenes(uint256)": "infinite",
				"getDigits(uint256)": "infinite",
				"getEvolveSeed()": "infinite",
				"isNFTOwnedOrApproved(uint256)": "infinite"
			}
		},
		"methodIdentifiers": {
			"BLOCK_TIME()": "f9301910",
			"EVOLUTION_TIME()": "1ae52519",
			"LIMIT_MINT_NUM()": "35b8d98a",
			"MAX_APES()": "bb8a16bd",
			"MAX_NUMBER()": "fea9b572",
			"MAX_SUPPLY()": "32cb6b0c",
			"addWhiteList(address[])": "5e1045ec",
			"adminAddress()": "fc6f9468",
			"approve(address,uint256)": "095ea7b3",
			"balanceOf(address)": "70a08231",
			"buildPrice()": "2cab00de",
			"changeAdmin(address)": "8f283970",
			"changeBaseURL(string)": "2fe24d36",
			"changeCooAddress(address)": "f364ff5f",
			"changeCtoAddress(address)": "226c8ec1",
			"combinable(uint256)": "58b86cb3",
			"combineCells(uint256[][])": "67c8fbd4",
			"cooAddress()": "b047fb50",
			"ctoAddress()": "1f513660",
			"current_round_number()": "2690b665",
			"getApproved(uint256)": "081812fc",
			"getCellula(uint256)": "944b1b21",
			"getEvolutionaryAlgebra(uint256)": "9e2591dd",
			"getEvolve(uint256,uint256)": "79340b43",
			"getGenesSequence(uint256)": "b9ac62f5",
			"getRLESting(uint256)": "3c3a8746",
			"getRandomNumber()": "dbdff2c1",
			"initialize(string,string)": "4cd88b76",
			"isApprovedForAll(address,address)": "e985e9c5",
			"isWhiteList(address)": "f99031a7",
			"lifeBaseRules(uint8[9])": "7c772596",
			"mint()": "1249c58b",
			"mintPrice()": "6817c76c",
			"mintedNum()": "0d113473",
			"name()": "06fdde03",
			"ownerOf(uint256)": "6352211e",
			"safeTransferFrom(address,address,uint256)": "42842e0e",
			"safeTransferFrom(address,address,uint256,bytes)": "b88d4fde",
			"setApprovalForAll(address,bool)": "a22cb465",
			"setBuildPrice(uint256)": "80e15f76",
			"setMintPrice(uint256)": "f4a0a528",
			"supportsInterface(bytes4)": "01ffc9a7",
			"symbol()": "95d89b41",
			"tokenByIndex(uint256)": "4f6ccce7",
			"tokenOfOwnerByIndex(address,uint256)": "2f745c59",
			"tokenURI(uint256)": "c87b56dd",
			"totalSupply()": "18160ddd",
			"transferFrom(address,address,uint256)": "23b872dd",
			"userMintNum(address)": "5f1a360a",
			"whiteList(address)": "372c12b1",
			"withdraw(uint256)": "2e1a7d4d"
		}
	},
	"abi": [
		{
			"anonymous": false,
			"inputs": [
				{
					"indexed": true,
					"internalType": "address",
					"name": "owner",
					"type": "address"
				},
				{
					"indexed": true,
					"internalType": "address",
					"name": "approved",
					"type": "address"
				},
				{
					"indexed": true,
					"internalType": "uint256",
					"name": "tokenId",
					"type": "uint256"
				}
			],
			"name": "Approval",
			"type": "event"
		},
		{
			"anonymous": false,
			"inputs": [
				{
					"indexed": true,
					"internalType": "address",
					"name": "owner",
					"type": "address"
				},
				{
					"indexed": true,
					"internalType": "address",
					"name": "operator",
					"type": "address"
				},
				{
					"indexed": false,
					"internalType": "bool",
					"name": "approved",
					"type": "bool"
				}
			],
			"name": "ApprovalForAll",
			"type": "event"
		},
		{
			"anonymous": false,
			"inputs": [
				{
					"indexed": false,
					"internalType": "uint8",
					"name": "version",
					"type": "uint8"
				}
			],
			"name": "Initialized",
			"type": "event"
		},
		{
			"anonymous": false,
			"inputs": [
				{
					"indexed": true,
					"internalType": "address",
					"name": "from",
					"type": "address"
				},
				{
					"indexed": true,
					"internalType": "address",
					"name": "to",
					"type": "address"
				},
				{
					"indexed": true,
					"internalType": "uint256",
					"name": "tokenId",
					"type": "uint256"
				}
			],
			"name": "Transfer",
			"type": "event"
		},
		{
			"inputs": [],
			"name": "BLOCK_TIME",
			"outputs": [
				{
					"internalType": "uint256",
					"name": "",
					"type": "uint256"
				}
			],
			"stateMutability": "view",
			"type": "function"
		},
		{
			"inputs": [],
			"name": "EVOLUTION_TIME",
			"outputs": [
				{
					"internalType": "uint32",
					"name": "",
					"type": "uint32"
				}
			],
			"stateMutability": "view",
			"type": "function"
		},
		{
			"inputs": [],
			"name": "LIMIT_MINT_NUM",
			"outputs": [
				{
					"internalType": "uint32",
					"name": "",
					"type": "uint32"
				}
			],
			"stateMutability": "view",
			"type": "function"
		},
		{
			"inputs": [],
			"name": "MAX_APES",
			"outputs": [
				{
					"internalType": "uint256",
					"name": "",
					"type": "uint256"
				}
			],
			"stateMutability": "view",
			"type": "function"
		},
		{
			"inputs": [],
			"name": "MAX_NUMBER",
			"outputs": [
				{
					"internalType": "uint256",
					"name": "",
					"type": "uint256"
				}
			],
			"stateMutability": "view",
			"type": "function"
		},
		{
			"inputs": [],
			"name": "MAX_SUPPLY",
			"outputs": [
				{
					"internalType": "uint256",
					"name": "",
					"type": "uint256"
				}
			],
			"stateMutability": "view",
			"type": "function"
		},
		{
			"inputs": [
				{
					"internalType": "address[]",
					"name": "whiteLists",
					"type": "address[]"
				}
			],
			"name": "addWhiteList",
			"outputs": [],
			"stateMutability": "nonpayable",
			"type": "function"
		},
		{
			"inputs": [],
			"name": "adminAddress",
			"outputs": [
				{
					"internalType": "address",
					"name": "",
					"type": "address"
				}
			],
			"stateMutability": "view",
			"type": "function"
		},
		{
			"inputs": [
				{
					"internalType": "address",
					"name": "to",
					"type": "address"
				},
				{
					"internalType": "uint256",
					"name": "tokenId",
					"type": "uint256"
				}
			],
			"name": "approve",
			"outputs": [],
			"stateMutability": "nonpayable",
			"type": "function"
		},
		{
			"inputs": [
				{
					"internalType": "address",
					"name": "owner",
					"type": "address"
				}
			],
			"name": "balanceOf",
			"outputs": [
				{
					"internalType": "uint256",
					"name": "",
					"type": "uint256"
				}
			],
			"stateMutability": "view",
			"type": "function"
		},
		{
			"inputs": [],
			"name": "buildPrice",
			"outputs": [
				{
					"internalType": "uint256",
					"name": "",
					"type": "uint256"
				}
			],
			"stateMutability": "view",
			"type": "function"
		},
		{
			"inputs": [
				{
					"internalType": "address",
					"name": "newAddress",
					"type": "address"
				}
			],
			"name": "changeAdmin",
			"outputs": [],
			"stateMutability": "nonpayable",
			"type": "function"
		},
		{
			"inputs": [
				{
					"internalType": "string",
					"name": "newBaseURL",
					"type": "string"
				}
			],
			"name": "changeBaseURL",
			"outputs": [],
			"stateMutability": "nonpayable",
			"type": "function"
		},
		{
			"inputs": [
				{
					"internalType": "address payable",
					"name": "newAddress",
					"type": "address"
				}
			],
			"name": "changeCooAddress",
			"outputs": [],
			"stateMutability": "nonpayable",
			"type": "function"
		},
		{
			"inputs": [
				{
					"internalType": "address",
					"name": "newAddress",
					"type": "address"
				}
			],
			"name": "changeCtoAddress",
			"outputs": [],
			"stateMutability": "nonpayable",
			"type": "function"
		},
		{
			"inputs": [
				{
					"internalType": "uint256",
					"name": "tokenId",
					"type": "uint256"
				}
			],
			"name": "combinable",
			"outputs": [
				{
					"internalType": "bool",
					"name": "",
					"type": "bool"
				}
			],
			"stateMutability": "view",
			"type": "function"
		},
		{
			"inputs": [
				{
					"internalType": "uint256[][]",
					"name": "tokensPositions",
					"type": "uint256[][]"
				}
			],
			"name": "combineCells",
			"outputs": [],
			"stateMutability": "payable",
			"type": "function"
		},
		{
			"inputs": [],
			"name": "cooAddress",
			"outputs": [
				{
					"internalType": "address payable",
					"name": "",
					"type": "address"
				}
			],
			"stateMutability": "view",
			"type": "function"
		},
		{
			"inputs": [],
			"name": "ctoAddress",
			"outputs": [
				{
					"internalType": "address",
					"name": "",
					"type": "address"
				}
			],
			"stateMutability": "view",
			"type": "function"
		},
		{
			"inputs": [],
			"name": "current_round_number",
			"outputs": [
				{
					"internalType": "uint256",
					"name": "",
					"type": "uint256"
				}
			],
			"stateMutability": "view",
			"type": "function"
		},
		{
			"inputs": [
				{
					"internalType": "uint256",
					"name": "tokenId",
					"type": "uint256"
				}
			],
			"name": "getApproved",
			"outputs": [
				{
					"internalType": "address",
					"name": "",
					"type": "address"
				}
			],
			"stateMutability": "view",
			"type": "function"
		},
		{
			"inputs": [
				{
					"internalType": "uint256",
					"name": "tokenID",
					"type": "uint256"
				}
			],
			"name": "getCellula",
			"outputs": [
				{
					"internalType": "uint256",
					"name": "x",
					"type": "uint256"
				},
				{
					"internalType": "uint256",
					"name": "y",
					"type": "uint256"
				},
				{
					"internalType": "string",
					"name": "genes",
					"type": "string"
				},
				{
					"internalType": "uint16",
					"name": "geneType",
					"type": "uint16"
				},
				{
					"internalType": "uint256",
					"name": "cooldownNum",
					"type": "uint256"
				},
				{
					"internalType": "uint256",
					"name": "bornBlock",
					"type": "uint256"
				},
				{
					"internalType": "uint256",
					"name": "livingCellTotal",
					"type": "uint256"
				},
				{
					"internalType": "uint256",
					"name": "combineBlock",
					"type": "uint256"
				},
				{
					"internalType": "uint256[]",
					"name": "parentTokenIds",
					"type": "uint256[]"
				}
			],
			"stateMutability": "view",
			"type": "function"
		},
		{
			"inputs": [
				{
					"internalType": "uint256",
					"name": "tokenId",
					"type": "uint256"
				}
			],
			"name": "getEvolutionaryAlgebra",
			"outputs": [
				{
					"internalType": "uint256",
					"name": "",
					"type": "uint256"
				}
			],
			"stateMutability": "view",
			"type": "function"
		},
		{
			"inputs": [
				{
					"internalType": "uint256",
					"name": "tokenID",
					"type": "uint256"
				},
				{
					"internalType": "uint256",
					"name": "generation",
					"type": "uint256"
				}
			],
			"name": "getEvolve",
			"outputs": [
				{
					"internalType": "uint256",
					"name": "",
					"type": "uint256"
				}
			],
			"stateMutability": "view",
			"type": "function"
		},
		{
			"inputs": [
				{
					"internalType": "uint256",
					"name": "tokenID",
					"type": "uint256"
				}
			],
			"name": "getGenesSequence",
			"outputs": [
				{
					"internalType": "string",
					"name": "genes",
					"type": "string"
				}
			],
			"stateMutability": "view",
			"type": "function"
		},
		{
			"inputs": [
				{
					"internalType": "uint256",
					"name": "tokenId",
					"type": "uint256"
				}
			],
			"name": "getRLESting",
			"outputs": [
				{
					"internalType": "string",
					"name": "rleSting",
					"type": "string"
				}
			],
			"stateMutability": "view",
			"type": "function"
		},
		{
			"inputs": [],
			"name": "getRandomNumber",
			"outputs": [
				{
					"internalType": "uint256",
					"name": "",
					"type": "uint256"
				}
			],
			"stateMutability": "nonpayable",
			"type": "function"
		},
		{
			"inputs": [
				{
					"internalType": "string",
					"name": "name",
					"type": "string"
				},
				{
					"internalType": "string",
					"name": "symbol",
					"type": "string"
				}
			],
			"name": "initialize",
			"outputs": [],
			"stateMutability": "nonpayable",
			"type": "function"
		},
		{
			"inputs": [
				{
					"internalType": "address",
					"name": "owner",
					"type": "address"
				},
				{
					"internalType": "address",
					"name": "operator",
					"type": "address"
				}
			],
			"name": "isApprovedForAll",
			"outputs": [
				{
					"internalType": "bool",
					"name": "",
					"type": "bool"
				}
			],
			"stateMutability": "view",
			"type": "function"
		},
		{
			"inputs": [
				{
					"internalType": "address",
					"name": "user",
					"type": "address"
				}
			],
			"name": "isWhiteList",
			"outputs": [
				{
					"internalType": "bool",
					"name": "",
					"type": "bool"
				}
			],
			"stateMutability": "view",
			"type": "function"
		},
		{
			"inputs": [
				{
					"internalType": "uint8[9]",
					"name": "cellGenes",
					"type": "uint8[9]"
				}
			],
			"name": "lifeBaseRules",
			"outputs": [
				{
					"internalType": "uint8",
					"name": "",
					"type": "uint8"
				}
			],
			"stateMutability": "pure",
			"type": "function"
		},
		{
			"inputs": [],
			"name": "mint",
			"outputs": [],
			"stateMutability": "payable",
			"type": "function"
		},
		{
			"inputs": [],
			"name": "mintPrice",
			"outputs": [
				{
					"internalType": "uint256",
					"name": "",
					"type": "uint256"
				}
			],
			"stateMutability": "view",
			"type": "function"
		},
		{
			"inputs": [],
			"name": "mintedNum",
			"outputs": [
				{
					"internalType": "uint256",
					"name": "",
					"type": "uint256"
				}
			],
			"stateMutability": "view",
			"type": "function"
		},
		{
			"inputs": [],
			"name": "name",
			"outputs": [
				{
					"internalType": "string",
					"name": "",
					"type": "string"
				}
			],
			"stateMutability": "view",
			"type": "function"
		},
		{
			"inputs": [
				{
					"internalType": "uint256",
					"name": "tokenId",
					"type": "uint256"
				}
			],
			"name": "ownerOf",
			"outputs": [
				{
					"internalType": "address",
					"name": "",
					"type": "address"
				}
			],
			"stateMutability": "view",
			"type": "function"
		},
		{
			"inputs": [
				{
					"internalType": "address",
					"name": "from",
					"type": "address"
				},
				{
					"internalType": "address",
					"name": "to",
					"type": "address"
				},
				{
					"internalType": "uint256",
					"name": "tokenId",
					"type": "uint256"
				}
			],
			"name": "safeTransferFrom",
			"outputs": [],
			"stateMutability": "nonpayable",
			"type": "function"
		},
		{
			"inputs": [
				{
					"internalType": "address",
					"name": "from",
					"type": "address"
				},
				{
					"internalType": "address",
					"name": "to",
					"type": "address"
				},
				{
					"internalType": "uint256",
					"name": "tokenId",
					"type": "uint256"
				},
				{
					"internalType": "bytes",
					"name": "data",
					"type": "bytes"
				}
			],
			"name": "safeTransferFrom",
			"outputs": [],
			"stateMutability": "nonpayable",
			"type": "function"
		},
		{
			"inputs": [
				{
					"internalType": "address",
					"name": "operator",
					"type": "address"
				},
				{
					"internalType": "bool",
					"name": "approved",
					"type": "bool"
				}
			],
			"name": "setApprovalForAll",
			"outputs": [],
			"stateMutability": "nonpayable",
			"type": "function"
		},
		{
			"inputs": [
				{
					"internalType": "uint256",
					"name": "amount",
					"type": "uint256"
				}
			],
			"name": "setBuildPrice",
			"outputs": [],
			"stateMutability": "nonpayable",
			"type": "function"
		},
		{
			"inputs": [
				{
					"internalType": "uint256",
					"name": "amount",
					"type": "uint256"
				}
			],
			"name": "setMintPrice",
			"outputs": [],
			"stateMutability": "nonpayable",
			"type": "function"
		},
		{
			"inputs": [
				{
					"internalType": "bytes4",
					"name": "interfaceId",
					"type": "bytes4"
				}
			],
			"name": "supportsInterface",
			"outputs": [
				{
					"internalType": "bool",
					"name": "",
					"type": "bool"
				}
			],
			"stateMutability": "view",
			"type": "function"
		},
		{
			"inputs": [],
			"name": "symbol",
			"outputs": [
				{
					"internalType": "string",
					"name": "",
					"type": "string"
				}
			],
			"stateMutability": "view",
			"type": "function"
		},
		{
			"inputs": [
				{
					"internalType": "uint256",
					"name": "index",
					"type": "uint256"
				}
			],
			"name": "tokenByIndex",
			"outputs": [
				{
					"internalType": "uint256",
					"name": "",
					"type": "uint256"
				}
			],
			"stateMutability": "view",
			"type": "function"
		},
		{
			"inputs": [
				{
					"internalType": "address",
					"name": "owner",
					"type": "address"
				},
				{
					"internalType": "uint256",
					"name": "index",
					"type": "uint256"
				}
			],
			"name": "tokenOfOwnerByIndex",
			"outputs": [
				{
					"internalType": "uint256",
					"name": "",
					"type": "uint256"
				}
			],
			"stateMutability": "view",
			"type": "function"
		},
		{
			"inputs": [
				{
					"internalType": "uint256",
					"name": "tokenId",
					"type": "uint256"
				}
			],
			"name": "tokenURI",
			"outputs": [
				{
					"internalType": "string",
					"name": "",
					"type": "string"
				}
			],
			"stateMutability": "view",
			"type": "function"
		},
		{
			"inputs": [],
			"name": "totalSupply",
			"outputs": [
				{
					"internalType": "uint256",
					"name": "",
					"type": "uint256"
				}
			],
			"stateMutability": "view",
			"type": "function"
		},
		{
			"inputs": [
				{
					"internalType": "address",
					"name": "from",
					"type": "address"
				},
				{
					"internalType": "address",
					"name": "to",
					"type": "address"
				},
				{
					"internalType": "uint256",
					"name": "tokenId",
					"type": "uint256"
				}
			],
			"name": "transferFrom",
			"outputs": [],
			"stateMutability": "nonpayable",
			"type": "function"
		},
		{
			"inputs": [
				{
					"internalType": "address",
					"name": "",
					"type": "address"
				}
			],
			"name": "userMintNum",
			"outputs": [
				{
					"internalType": "uint32",
					"name": "",
					"type": "uint32"
				}
			],
			"stateMutability": "view",
			"type": "function"
		},
		{
			"inputs": [
				{
					"internalType": "address",
					"name": "",
					"type": "address"
				}
			],
			"name": "whiteList",
			"outputs": [
				{
					"internalType": "bool",
					"name": "",
					"type": "bool"
				}
			],
			"stateMutability": "view",
			"type": "function"
		},
		{
			"inputs": [
				{
					"internalType": "uint256",
					"name": "amount",
					"type": "uint256"
				}
			],
			"name": "withdraw",
			"outputs": [],
			"stateMutability": "nonpayable",
			"type": "function"
		},
		{
			"stateMutability": "payable",
			"type": "receive"
		}
	]
}