{
	"data": {
		"bytecode": {
			"linkReferences": {},
			"object": "60806040526000600355600060045534801561001a57600080fd5b506106c38061002a6000396000f3fe608060405234801561001057600080fd5b50600436106100cf5760003560e01c806380e15f761161008c578063f364ff5f11610066578063f364ff5f14610178578063f4a0a5281461018b578063f99031a71461019e578063fc6f9468146101be576100cf565b806380e15f761461014a5780638f2839701461015d578063b047fb5014610170576100cf565b80631f513660146100d4578063226c8ec1146100f25780632cab00de146101075780632e1a7d4d1461011c5780635e1045ec1461012f5780636817c76c14610142575b600080fd5b6100dc6101c6565b6040516100e99190610575565b60405180910390f35b6101056101003660046104cb565b6101d5565b005b61010f61022a565b6040516100e99190610645565b61010561012a36600461055d565b610230565b61010561013d3660046104ee565b6102b8565b61010f610393565b61010561015836600461055d565b610399565b61010561016b3660046104cb565b6103c8565b6100dc610414565b6101056101863660046104cb565b610423565b61010561019936600461055d565b61046f565b6101b16101ac3660046104cb565b61049e565b6040516100e99190610589565b6100dc6104bc565b6002546001600160a01b031681565b6000546001600160a01b031633146102085760405162461bcd60e51b81526004016101ff906105ed565b60405180910390fd5b600280546001600160a01b0319166001600160a01b0392909216919091179055565b60045481565b6001546001600160a01b0316331461025a5760405162461bcd60e51b81526004016101ff906105c2565b4781111561027a5760405162461bcd60e51b81526004016101ff90610594565b6001546040516001600160a01b039091169082156108fc029083906000818181858888f193505050501580156102b4573d6000803e3d6000fd5b5050565b6002546001600160a01b031633146102e25760405162461bcd60e51b81526004016101ff9061061a565b600082828080602002602001604051908101604052809392919081815260200183836020028082843760009201829052509394505050505b815181101561038d5760016005600084848151811061034957634e487b7160e01b600052603260045260246000fd5b6020908102919091018101516001600160a01b03168252810191909152604001600020805460ff1916911515919091179055806103858161064e565b91505061031a565b50505050565b60035481565b6001546001600160a01b031633146103c35760405162461bcd60e51b81526004016101ff906105c2565b600455565b6000546001600160a01b031633146103f25760405162461bcd60e51b81526004016101ff906105ed565b600080546001600160a01b0319166001600160a01b0392909216919091179055565b6001546001600160a01b031681565b6000546001600160a01b0316331461044d5760405162461bcd60e51b81526004016101ff906105ed565b600180546001600160a01b0319166001600160a01b0392909216919091179055565b6001546001600160a01b031633146104995760405162461bcd60e51b81526004016101ff906105c2565b600355565b6001600160a01b031660009081526005602052604090205460ff1690565b6000546001600160a01b031681565b6000602082840312156104dc578081fd5b81356104e781610675565b9392505050565b60008060208385031215610500578081fd5b823567ffffffffffffffff80821115610517578283fd5b818501915085601f83011261052a578283fd5b813581811115610538578384fd5b866020808302850101111561054b578384fd5b60209290920196919550909350505050565b60006020828403121561056e578081fd5b5035919050565b6001600160a01b0391909116815260200190565b901515815260200190565b602080825260149082015273496e73756666696369656e742062616c616e636560601b604082015260600190565b60208082526011908201527043616c6c6572206973206e6f7420434f4f60781b604082015260600190565b60208082526013908201527221b0b63632b91034b9903737ba1020b236b4b760691b604082015260600190565b60208082526011908201527043616c6c6572206973206e6f742043544f60781b604082015260600190565b90815260200190565b600060001982141561066e57634e487b7160e01b81526011600452602481fd5b5060010190565b6001600160a01b038116811461068a57600080fd5b5056fea26469706673582212204e6b1c8fcc3e3a39f05f9adc52cd664b02abd46b9e7829faac00747c9340922764736f6c63430008010033",
			"opcodes": "PUSH1 0x80 PUSH1 0x40 MSTORE PUSH1 0x0 PUSH1 0x3 SSTORE PUSH1 0x0 PUSH1 0x4 SSTORE CALLVALUE DUP1 ISZERO PUSH2 0x1A JUMPI PUSH1 0x0 DUP1 REVERT JUMPDEST POP PUSH2 0x6C3 DUP1 PUSH2 0x2A PUSH1 0x0 CODECOPY PUSH1 0x0 RETURN INVALID PUSH1 0x80 PUSH1 0x40 MSTORE CALLVALUE DUP1 ISZERO PUSH2 0x10 JUMPI PUSH1 0x0 DUP1 REVERT JUMPDEST POP PUSH1 0x4 CALLDATASIZE LT PUSH2 0xCF JUMPI PUSH1 0x0 CALLDATALOAD PUSH1 0xE0 SHR DUP1 PUSH4 0x80E15F76 GT PUSH2 0x8C JUMPI DUP1 PUSH4 0xF364FF5F GT PUSH2 0x66 JUMPI DUP1 PUSH4 0xF364FF5F EQ PUSH2 0x178 JUMPI DUP1 PUSH4 0xF4A0A528 EQ PUSH2 0x18B JUMPI DUP1 PUSH4 0xF99031A7 EQ PUSH2 0x19E JUMPI DUP1 PUSH4 0xFC6F9468 EQ PUSH2 0x1BE JUMPI PUSH2 0xCF JUMP JUMPDEST DUP1 PUSH4 0x80E15F76 EQ PUSH2 0x14A JUMPI DUP1 PUSH4 0x8F283970 EQ PUSH2 0x15D JUMPI DUP1 PUSH4 0xB047FB50 EQ PUSH2 0x170 JUMPI PUSH2 0xCF JUMP JUMPDEST DUP1 PUSH4 0x1F513660 EQ PUSH2 0xD4 JUMPI DUP1 PUSH4 0x226C8EC1 EQ PUSH2 0xF2 JUMPI DUP1 PUSH4 0x2CAB00DE EQ PUSH2 0x107 JUMPI DUP1 PUSH4 0x2E1A7D4D EQ PUSH2 0x11C JUMPI DUP1 PUSH4 0x5E1045EC EQ PUSH2 0x12F JUMPI DUP1 PUSH4 0x6817C76C EQ PUSH2 0x142 JUMPI JUMPDEST PUSH1 0x0 DUP1 REVERT JUMPDEST PUSH2 0xDC PUSH2 0x1C6 JUMP JUMPDEST PUSH1 0x40 MLOAD PUSH2 0xE9 SWAP2 SWAP1 PUSH2 0x575 JUMP JUMPDEST PUSH1 0x40 MLOAD DUP1 SWAP2 SUB SWAP1 RETURN JUMPDEST PUSH2 0x105 PUSH2 0x100 CALLDATASIZE PUSH1 0x4 PUSH2 0x4CB JUMP JUMPDEST PUSH2 0x1D5 JUMP JUMPDEST STOP JUMPDEST PUSH2 0x10F PUSH2 0x22A JUMP JUMPDEST PUSH1 0x40 MLOAD PUSH2 0xE9 SWAP2 SWAP1 PUSH2 0x645 JUMP JUMPDEST PUSH2 0x105 PUSH2 0x12A CALLDATASIZE PUSH1 0x4 PUSH2 0x55D JUMP JUMPDEST PUSH2 0x230 JUMP JUMPDEST PUSH2 0x105 PUSH2 0x13D CALLDATASIZE PUSH1 0x4 PUSH2 0x4EE JUMP JUMPDEST PUSH2 0x2B8 JUMP JUMPDEST PUSH2 0x10F PUSH2 0x393 JUMP JUMPDEST PUSH2 0x105 PUSH2 0x158 CALLDATASIZE PUSH1 0x4 PUSH2 0x55D JUMP JUMPDEST PUSH2 0x399 JUMP JUMPDEST PUSH2 0x105 PUSH2 0x16B CALLDATASIZE PUSH1 0x4 PUSH2 0x4CB JUMP JUMPDEST PUSH2 0x3C8 JUMP JUMPDEST PUSH2 0xDC PUSH2 0x414 JUMP JUMPDEST PUSH2 0x105 PUSH2 0x186 CALLDATASIZE PUSH1 0x4 PUSH2 0x4CB JUMP JUMPDEST PUSH2 0x423 JUMP JUMPDEST PUSH2 0x105 PUSH2 0x199 CALLDATASIZE PUSH1 0x4 PUSH2 0x55D JUMP JUMPDEST PUSH2 0x46F JUMP JUMPDEST PUSH2 0x1B1 PUSH2 0x1AC CALLDATASIZE PUSH1 0x4 PUSH2 0x4CB JUMP JUMPDEST PUSH2 0x49E JUMP JUMPDEST PUSH1 0x40 MLOAD PUSH2 0xE9 SWAP2 SWAP1 PUSH2 0x589 JUMP JUMPDEST PUSH2 0xDC PUSH2 0x4BC JUMP JUMPDEST PUSH1 0x2 SLOAD PUSH1 0x1 PUSH1 0x1 PUSH1 0xA0 SHL SUB AND DUP2 JUMP JUMPDEST PUSH1 0x0 SLOAD PUSH1 0x1 PUSH1 0x1 PUSH1 0xA0 SHL SUB AND CALLER EQ PUSH2 0x208 JUMPI PUSH1 0x40 MLOAD PUSH3 0x461BCD PUSH1 0xE5 SHL DUP2 MSTORE PUSH1 0x4 ADD PUSH2 0x1FF SWAP1 PUSH2 0x5ED JUMP JUMPDEST PUSH1 0x40 MLOAD DUP1 SWAP2 SUB SWAP1 REVERT JUMPDEST PUSH1 0x2 DUP1 SLOAD PUSH1 0x1 PUSH1 0x1 PUSH1 0xA0 SHL SUB NOT AND PUSH1 0x1 PUSH1 0x1 PUSH1 0xA0 SHL SUB SWAP3 SWAP1 SWAP3 AND SWAP2 SWAP1 SWAP2 OR SWAP1 SSTORE JUMP JUMPDEST PUSH1 0x4 SLOAD DUP2 JUMP JUMPDEST PUSH1 0x1 SLOAD PUSH1 0x1 PUSH1 0x1 PUSH1 0xA0 SHL SUB AND CALLER EQ PUSH2 0x25A JUMPI PUSH1 0x40 MLOAD PUSH3 0x461BCD PUSH1 0xE5 SHL DUP2 MSTORE PUSH1 0x4 ADD PUSH2 0x1FF SWAP1 PUSH2 0x5C2 JUMP JUMPDEST SELFBALANCE DUP2 GT ISZERO PUSH2 0x27A JUMPI PUSH1 0x40 MLOAD PUSH3 0x461BCD PUSH1 0xE5 SHL DUP2 MSTORE PUSH1 0x4 ADD PUSH2 0x1FF SWAP1 PUSH2 0x594 JUMP JUMPDEST PUSH1 0x1 SLOAD PUSH1 0x40 MLOAD PUSH1 0x1 PUSH1 0x1 PUSH1 0xA0 SHL SUB SWAP1 SWAP2 AND SWAP1 DUP3 ISZERO PUSH2 0x8FC MUL SWAP1 DUP4 SWAP1 PUSH1 0x0 DUP2 DUP2 DUP2 DUP6 DUP9 DUP9 CALL SWAP4 POP POP POP POP ISZERO DUP1 ISZERO PUSH2 0x2B4 JUMPI RETURNDATASIZE PUSH1 0x0 DUP1 RETURNDATACOPY RETURNDATASIZE PUSH1 0x0 REVERT JUMPDEST POP POP JUMP JUMPDEST PUSH1 0x2 SLOAD PUSH1 0x1 PUSH1 0x1 PUSH1 0xA0 SHL SUB AND CALLER EQ PUSH2 0x2E2 JUMPI PUSH1 0x40 MLOAD PUSH3 0x461BCD PUSH1 0xE5 SHL DUP2 MSTORE PUSH1 0x4 ADD PUSH2 0x1FF SWAP1 PUSH2 0x61A JUMP JUMPDEST PUSH1 0x0 DUP3 DUP3 DUP1 DUP1 PUSH1 0x20 MUL PUSH1 0x20 ADD PUSH1 0x40 MLOAD SWAP1 DUP2 ADD PUSH1 0x40 MSTORE DUP1 SWAP4 SWAP3 SWAP2 SWAP1 DUP2 DUP2 MSTORE PUSH1 0x20 ADD DUP4 DUP4 PUSH1 0x20 MUL DUP1 DUP3 DUP5 CALLDATACOPY PUSH1 0x0 SWAP3 ADD DUP3 SWAP1 MSTORE POP SWAP4 SWAP5 POP POP POP POP JUMPDEST DUP2 MLOAD DUP2 LT ISZERO PUSH2 0x38D JUMPI PUSH1 0x1 PUSH1 0x5 PUSH1 0x0 DUP5 DUP5 DUP2 MLOAD DUP2 LT PUSH2 0x349 JUMPI PUSH4 0x4E487B71 PUSH1 0xE0 SHL PUSH1 0x0 MSTORE PUSH1 0x32 PUSH1 0x4 MSTORE PUSH1 0x24 PUSH1 0x0 REVERT JUMPDEST PUSH1 0x20 SWAP1 DUP2 MUL SWAP2 SWAP1 SWAP2 ADD DUP2 ADD MLOAD PUSH1 0x1 PUSH1 0x1 PUSH1 0xA0 SHL SUB AND DUP3 MSTORE DUP2 ADD SWAP2 SWAP1 SWAP2 MSTORE PUSH1 0x40 ADD PUSH1 0x0 KECCAK256 DUP1 SLOAD PUSH1 0xFF NOT AND SWAP2 ISZERO ISZERO SWAP2 SWAP1 SWAP2 OR SWAP1 SSTORE DUP1 PUSH2 0x385 DUP2 PUSH2 0x64E JUMP JUMPDEST SWAP2 POP POP PUSH2 0x31A JUMP JUMPDEST POP POP POP POP JUMP JUMPDEST PUSH1 0x3 SLOAD DUP2 JUMP JUMPDEST PUSH1 0x1 SLOAD PUSH1 0x1 PUSH1 0x1 PUSH1 0xA0 SHL SUB AND CALLER EQ PUSH2 0x3C3 JUMPI PUSH1 0x40 MLOAD PUSH3 0x461BCD PUSH1 0xE5 SHL DUP2 MSTORE PUSH1 0x4 ADD PUSH2 0x1FF SWAP1 PUSH2 0x5C2 JUMP JUMPDEST PUSH1 0x4 SSTORE JUMP JUMPDEST PUSH1 0x0 SLOAD PUSH1 0x1 PUSH1 0x1 PUSH1 0xA0 SHL SUB AND CALLER EQ PUSH2 0x3F2 JUMPI PUSH1 0x40 MLOAD PUSH3 0x461BCD PUSH1 0xE5 SHL DUP2 MSTORE PUSH1 0x4 ADD PUSH2 0x1FF SWAP1 PUSH2 0x5ED JUMP JUMPDEST PUSH1 0x0 DUP1 SLOAD PUSH1 0x1 PUSH1 0x1 PUSH1 0xA0 SHL SUB NOT AND PUSH1 0x1 PUSH1 0x1 PUSH1 0xA0 SHL SUB SWAP3 SWAP1 SWAP3 AND SWAP2 SWAP1 SWAP2 OR SWAP1 SSTORE JUMP JUMPDEST PUSH1 0x1 SLOAD PUSH1 0x1 PUSH1 0x1 PUSH1 0xA0 SHL SUB AND DUP2 JUMP JUMPDEST PUSH1 0x0 SLOAD PUSH1 0x1 PUSH1 0x1 PUSH1 0xA0 SHL SUB AND CALLER EQ PUSH2 0x44D JUMPI PUSH1 0x40 MLOAD PUSH3 0x461BCD PUSH1 0xE5 SHL DUP2 MSTORE PUSH1 0x4 ADD PUSH2 0x1FF SWAP1 PUSH2 0x5ED JUMP JUMPDEST PUSH1 0x1 DUP1 SLOAD PUSH1 0x1 PUSH1 0x1 PUSH1 0xA0 SHL SUB NOT AND PUSH1 0x1 PUSH1 0x1 PUSH1 0xA0 SHL SUB SWAP3 SWAP1 SWAP3 AND SWAP2 SWAP1 SWAP2 OR SWAP1 SSTORE JUMP JUMPDEST PUSH1 0x1 SLOAD PUSH1 0x1 PUSH1 0x1 PUSH1 0xA0 SHL SUB AND CALLER EQ PUSH2 0x499 JUMPI PUSH1 0x40 MLOAD PUSH3 0x461BCD PUSH1 0xE5 SHL DUP2 MSTORE PUSH1 0x4 ADD PUSH2 0x1FF SWAP1 PUSH2 0x5C2 JUMP JUMPDEST PUSH1 0x3 SSTORE JUMP JUMPDEST PUSH1 0x1 PUSH1 0x1 PUSH1 0xA0 SHL SUB AND PUSH1 0x0 SWAP1 DUP2 MSTORE PUSH1 0x5 PUSH1 0x20 MSTORE PUSH1 0x40 SWAP1 KECCAK256 SLOAD PUSH1 0xFF AND SWAP1 JUMP JUMPDEST PUSH1 0x0 SLOAD PUSH1 0x1 PUSH1 0x1 PUSH1 0xA0 SHL SUB AND DUP2 JUMP JUMPDEST PUSH1 0x0 PUSH1 0x20 DUP3 DUP5 SUB SLT ISZERO PUSH2 0x4DC JUMPI DUP1 DUP2 REVERT JUMPDEST DUP2 CALLDATALOAD PUSH2 0x4E7 DUP2 PUSH2 0x675 JUMP JUMPDEST SWAP4 SWAP3 POP POP POP JUMP JUMPDEST PUSH1 0x0 DUP1 PUSH1 0x20 DUP4 DUP6 SUB SLT ISZERO PUSH2 0x500 JUMPI DUP1 DUP2 REVERT JUMPDEST DUP3 CALLDATALOAD PUSH8 0xFFFFFFFFFFFFFFFF DUP1 DUP3 GT ISZERO PUSH2 0x517 JUMPI DUP3 DUP4 REVERT JUMPDEST DUP2 DUP6 ADD SWAP2 POP DUP6 PUSH1 0x1F DUP4 ADD SLT PUSH2 0x52A JUMPI DUP3 DUP4 REVERT JUMPDEST DUP2 CALLDATALOAD DUP2 DUP2 GT ISZERO PUSH2 0x538 JUMPI DUP4 DUP5 REVERT JUMPDEST DUP7 PUSH1 0x20 DUP1 DUP4 MUL DUP6 ADD ADD GT ISZERO PUSH2 0x54B JUMPI DUP4 DUP5 REVERT JUMPDEST PUSH1 0x20 SWAP3 SWAP1 SWAP3 ADD SWAP7 SWAP2 SWAP6 POP SWAP1 SWAP4 POP POP POP POP JUMP JUMPDEST PUSH1 0x0 PUSH1 0x20 DUP3 DUP5 SUB SLT ISZERO PUSH2 0x56E JUMPI DUP1 DUP2 REVERT JUMPDEST POP CALLDATALOAD SWAP2 SWAP1 POP JUMP JUMPDEST PUSH1 0x1 PUSH1 0x1 PUSH1 0xA0 SHL SUB SWAP2 SWAP1 SWAP2 AND DUP2 MSTORE PUSH1 0x20 ADD SWAP1 JUMP JUMPDEST SWAP1 ISZERO ISZERO DUP2 MSTORE PUSH1 0x20 ADD SWAP1 JUMP JUMPDEST PUSH1 0x20 DUP1 DUP3 MSTORE PUSH1 0x14 SWAP1 DUP3 ADD MSTORE PUSH20 0x496E73756666696369656E742062616C616E6365 PUSH1 0x60 SHL PUSH1 0x40 DUP3 ADD MSTORE PUSH1 0x60 ADD SWAP1 JUMP JUMPDEST PUSH1 0x20 DUP1 DUP3 MSTORE PUSH1 0x11 SWAP1 DUP3 ADD MSTORE PUSH17 0x43616C6C6572206973206E6F7420434F4F PUSH1 0x78 SHL PUSH1 0x40 DUP3 ADD MSTORE PUSH1 0x60 ADD SWAP1 JUMP JUMPDEST PUSH1 0x20 DUP1 DUP3 MSTORE PUSH1 0x13 SWAP1 DUP3 ADD MSTORE PUSH19 0x21B0B63632B91034B9903737BA1020B236B4B7 PUSH1 0x69 SHL PUSH1 0x40 DUP3 ADD MSTORE PUSH1 0x60 ADD SWAP1 JUMP JUMPDEST PUSH1 0x20 DUP1 DUP3 MSTORE PUSH1 0x11 SWAP1 DUP3 ADD MSTORE PUSH17 0x43616C6C6572206973206E6F742043544F PUSH1 0x78 SHL PUSH1 0x40 DUP3 ADD MSTORE PUSH1 0x60 ADD SWAP1 JUMP JUMPDEST SWAP1 DUP2 MSTORE PUSH1 0x20 ADD SWAP1 JUMP JUMPDEST PUSH1 0x0 PUSH1 0x0 NOT DUP3 EQ ISZERO PUSH2 0x66E JUMPI PUSH4 0x4E487B71 PUSH1 0xE0 SHL DUP2 MSTORE PUSH1 0x11 PUSH1 0x4 MSTORE PUSH1 0x24 DUP2 REVERT JUMPDEST POP PUSH1 0x1 ADD SWAP1 JUMP JUMPDEST PUSH1 0x1 PUSH1 0x1 PUSH1 0xA0 SHL SUB DUP2 AND DUP2 EQ PUSH2 0x68A JUMPI PUSH1 0x0 DUP1 REVERT JUMPDEST POP JUMP INVALID LOG2 PUSH5 0x6970667358 0x22 SLT KECCAK256 0x4E PUSH12 0x1C8FCC3E3A39F05F9ADC52CD PUSH7 0x4B02ABD46B9E78 0x29 STATICCALL 0xAC STOP PUSH21 0x7C9340922764736F6C634300080100330000000000 "
		},
		"gasEstimates": {
			"creation": {
				"codeDepositCost": "346200",
				"executionCost": "10398",
				"totalCost": "356598"
			},
			"external": {
				"addWhiteList(address[])": "infinite",
				"adminAddress()": "1158",
				"buildPrice()": "1073",
				"changeAdmin(address)": "22050",
				"changeCooAddress(address)": "22027",
				"changeCtoAddress(address)": "22028",
				"cooAddress()": "1137",
				"ctoAddress()": "1071",
				"isWhiteList(address)": "1342",
				"mintPrice()": "1139",
				"setBuildPrice(uint256)": "21087",
				"setMintPrice(uint256)": "21108",
				"withdraw(uint256)": "infinite"
			}
		},
		"methodIdentifiers": {
			"addWhiteList(address[])": "5e1045ec",
			"adminAddress()": "fc6f9468",
			"buildPrice()": "2cab00de",
			"changeAdmin(address)": "8f283970",
			"changeCooAddress(address)": "f364ff5f",
			"changeCtoAddress(address)": "226c8ec1",
			"cooAddress()": "b047fb50",
			"ctoAddress()": "1f513660",
			"isWhiteList(address)": "f99031a7",
			"mintPrice()": "6817c76c",
			"setBuildPrice(uint256)": "80e15f76",
			"setMintPrice(uint256)": "f4a0a528",
			"withdraw(uint256)": "2e1a7d4d"
		}
	},
	"abi": [
		{
			"inputs": [
				{
					"internalType": "address[]",
					"name": "whiteLists",
					"type": "address[]"
				}
			],
			"name": "addWhiteList",
			"outputs": [],
			"stateMutability": "nonpayable",
			"type": "function"
		},
		{
			"inputs": [],
			"name": "adminAddress",
			"outputs": [
				{
					"internalType": "address",
					"name": "",
					"type": "address"
				}
			],
			"stateMutability": "view",
			"type": "function"
		},
		{
			"inputs": [],
			"name": "buildPrice",
			"outputs": [
				{
					"internalType": "uint256",
					"name": "",
					"type": "uint256"
				}
			],
			"stateMutability": "view",
			"type": "function"
		},
		{
			"inputs": [
				{
					"internalType": "address",
					"name": "newAddress",
					"type": "address"
				}
			],
			"name": "changeAdmin",
			"outputs": [],
			"stateMutability": "nonpayable",
			"type": "function"
		},
		{
			"inputs": [
				{
					"internalType": "address payable",
					"name": "newAddress",
					"type": "address"
				}
			],
			"name": "changeCooAddress",
			"outputs": [],
			"stateMutability": "nonpayable",
			"type": "function"
		},
		{
			"inputs": [
				{
					"internalType": "address",
					"name": "newAddress",
					"type": "address"
				}
			],
			"name": "changeCtoAddress",
			"outputs": [],
			"stateMutability": "nonpayable",
			"type": "function"
		},
		{
			"inputs": [],
			"name": "cooAddress",
			"outputs": [
				{
					"internalType": "address payable",
					"name": "",
					"type": "address"
				}
			],
			"stateMutability": "view",
			"type": "function"
		},
		{
			"inputs": [],
			"name": "ctoAddress",
			"outputs": [
				{
					"internalType": "address",
					"name": "",
					"type": "address"
				}
			],
			"stateMutability": "view",
			"type": "function"
		},
		{
			"inputs": [
				{
					"internalType": "address",
					"name": "user",
					"type": "address"
				}
			],
			"name": "isWhiteList",
			"outputs": [
				{
					"internalType": "bool",
					"name": "",
					"type": "bool"
				}
			],
			"stateMutability": "view",
			"type": "function"
		},
		{
			"inputs": [],
			"name": "mintPrice",
			"outputs": [
				{
					"internalType": "uint256",
					"name": "",
					"type": "uint256"
				}
			],
			"stateMutability": "view",
			"type": "function"
		},
		{
			"inputs": [
				{
					"internalType": "uint256",
					"name": "amount",
					"type": "uint256"
				}
			],
			"name": "setBuildPrice",
			"outputs": [],
			"stateMutability": "nonpayable",
			"type": "function"
		},
		{
			"inputs": [
				{
					"internalType": "uint256",
					"name": "amount",
					"type": "uint256"
				}
			],
			"name": "setMintPrice",
			"outputs": [],
			"stateMutability": "nonpayable",
			"type": "function"
		},
		{
			"inputs": [
				{
					"internalType": "uint256",
					"name": "amount",
					"type": "uint256"
				}
			],
			"name": "withdraw",
			"outputs": [],
			"stateMutability": "nonpayable",
			"type": "function"
		}
	]
}